:020000040800F2
:100000009809002039010008693D000843010008F3
:10001000653D0008A70900088D6E0008000000007B
:100020000000000000000000000000004B0100087C
:10003000E9090008000000004F010008B96000084D
:100040005301000853010008530100085301000840
:100050005301000853010008F70900083D0A000891
:100060004B0A0008590A0008670A000853010008F3
:100070005301000853010008530100085301000810
:100080005301000853010008530100085301000800
:10009000530100085301000853010008750A0008C5
:1000A00053010008530100085301000853010008E0
:1000B00053010008530100085301000853010008D0
:1000C00053010008530100085301000853010008C0
:1000D00053010008530100089D6B000853010008FC
:1000E000050A0008893E0008530100085301000872
:1000F00053010008000000005301000853010008EC
:10010000530100085301000853010008530100087F
:1001100053010008530100085301000800000000CB
:1001200053010008DFF80CD000F02CFB004800471A
:10013000C173000898090020064880470648004718
:10014000FEE7FEE7FEE7FEE7FEE7FEE7FEE7FEE787
:10015000FEE7FEE7BD6200082501000840EA010352
:100160009B0703D009E008C9121F08C0042AFAD26D
:1001700003E011F8013B00F8013B521EF9D2704731
:10018000D2B201E000F8012B491EFBD270470022D9
:10019000F6E710B513460A4604461946FFF7F0FF86
:1001A000204610BD2DE9FE4F804681EA0300C00FB6
:1001B0000C46009021F0004123F00045B8EB02000E
:1001C000A94105D24046214690461C460B460246B0
:1001D00023F00040104347D0270DC7F30A00C3F3B4
:1001E0000A510290401A019040286BDAC3F31300C1
:1001F00040F4801B0098924620B10023D2EB030A02
:1002000063EB0B0B01985946C0F14002504600F0D9
:10021000B7F906460D4650465946019A00F0CFF907
:1002200010EB08006141002487EA115284EAE77369
:100230001A4340D0009A62B3019A012A4FEA07524A
:1002400015DC001B61EB02014FF0004202EA07528D
:10025000CDE90042001C41F5801132462B4600F0EA
:10026000CFF903B0BDE8F08F40462146F9E7001B07
:1002700061EB0201001C41F5801300185B4120185E
:10028000A2F5001747EB030140EAD570B6196D419E
:1002900011E06D084FEA360645EAC0754FEA07528D
:1002A000001B61EB0201001C41F5801149084FEA77
:1002B00030000019514132462B4603B0BDE8F04FE3
:1002C00000F08FB90098012240000023D0EB020219
:1002D00063EBE073009821464FEAE074B8EB00004E
:1002E00061EB0401E9E783F000435BE781F0004143
:1002F00058E72DE9FE4F81EA030404F0004421F0A1
:10030000004100944FF0000B23F0004350EA010439
:100310005ED052EA03045BD0C3F30A54C1F30A551A
:100320002C44A4F2F3340194A0FB0254C1F3130152
:1003300041F48011C3F3130343F4801301FB02441F
:1003400000FB034E840A970A44EA815447EA835724
:10035000A4FB076802958D0A05FB07854FEA932CDD
:1003600004FB0C542705029D4FEA065847EA16374E
:10037000B5EB08056EEB070C870E920E47EA811766
:1003800042EA8312A7FB0201B6EB0B0164EB000407
:100390002B0D43EA0C335E1844EB1C50DA465146F1
:1003A000E7FB0201C5F313044FEA0B3343EA14538E
:1003B0004FEA0432019C43EA0603A4F10C040294C0
:1003C000009CCDE900B400F01BF903B0BDE8F08F4C
:1003D00000200146F9E72DE9F04D81EA030404F01D
:1003E000004B21F0004514464FF0000A23F0004175
:1003F00050EA050220D054EA01021DD0C5F30A5785
:100400000246C5F31303C1F31300C1F30A5640F4C7
:10041000801543F48013A7EB0608101BD64608F29C
:10042000FD3873EB050002D308F1010801E09218D2
:100430005B41B8F1000F03DA00200146BDE8F08D02
:1004400000204FF48011064684460EE0171B73EB24
:10045000050705D3121B63EB050306434CEA010CA9
:1004600049084FEA300092185B4150EA0107EDD18C
:1004700052EA030012D082EA040083EA050108432D
:1004800005D0101BAB4106D20122002306E000225A
:100490004FF0004302E06FF0010253101AEB060028
:1004A0004CEB085110EB0A0041EB0B01BDE8F04D9D
:1004B00000F097B80EB5C10F80EAE0700844CA0793
:1004C000002140F233438DE80E000A460B4600F04F
:1004D00097F803B000BD0EB540F233410291002100
:1004E000CDE900110A460B4600F08AF803B000BDC2
:1004F000C1F30A5210B5C1F3130140F2FF3341F4C6
:1005000080119A4201DA002010BD40F233439A4232
:10051000A2F2334203DC524200F041F810BD904099
:1005200010BD000030B5041E71F1000404DB4FF073
:100530000044404264EB0101141E73F1000405DB2A
:100540001C464FF00043524263EB0403994208BF3C
:10055000904230BD30B50B460146002020220124D8
:1005600009E021FA02F59D4205D303FA02F5491B81
:1005700004FA02F52844151EA2F10102F1DC30BD97
:10058000202A04DB203A00FA02F100207047914053
:10059000C2F1200320FA03F3194390407047202A48
:1005A00004DB203A21FA02F00021704721FA02F31D
:1005B000D040C2F120029140084319467047202ADA
:1005C00006DBCB17203A41FA02F043EAE07306E07B
:1005D00041FA02F3D040C2F120029140084319468B
:1005E000704710B5141E73F1000408DA401C41F185
:1005F000000192185B411A4301D120F0010010BDA7
:100600002DE9F04D92469B4611B1B1FA81F202E01C
:10061000B0FA80F220329046FFF7B2FF04460F4650
:1006200040EA0A0041EA0B0153465A46084313D0F8
:10063000114653EA010019D0C8F140025046FFF7B5
:10064000AEFF05460E46504659464246FFF798FF14
:10065000084305D0012004E020463946BDE8F08D6E
:100660000020054346EAE0762C4337430A986305A9
:10067000E40AA0EB08000022FD0A44EA47540A30CD
:1006800002D500200146E9E7010510196941DDE9BD
:10069000084500196941BDE8F04DA2E770B521F0A9
:1006A000004303430CD0C1F30A550024D5EB0405E5
:1006B00064EB0403D617AD1AB34102DB00200146F8
:1006C00070BD201841EB025170BD00002DE9F041D2
:1006D000054621F000400C46284309D0C4F30A50D7
:1006E00040F23341884205DD28462146BDE8F081CD
:1006F0002846FBE740F2FE31884210DC0CDB4FEA73
:10070000043040EA155050EA053105D0104804F095
:10071000004101430020E9E700200146E6E7A0F29E
:1007200033404642C6F1400228462146FFF728FFE3
:1007300007468846284621463246FFF730FF4346A3
:100740003A46FFF74EFF3246BDE8F041FFF718BFCB
:100750000000F03F30B5041E71F1000404DB4FF0DF
:100760000044404264EB0101141E73F1000405DBF8
:100770001C464FF00043524263EB04038B4208BF18
:10078000824230BD064C074D06E0E06840F00103B0
:1007900094E8070098471034AC42F6D3FFF7C6FC44
:1007A000F4830008148400082DE9F04D00231A4654
:1007B0001B1A8A4103DB00200146BDE8F08DC1F31E
:1007C0000A52C1F3130141F480154FF0000BD10719
:1007D00002D100186D41521E0027044640F2FF115D
:1007E000384601EB620A3E468046024600204FF43E
:1007F0008011FFF7D4FEC2197141BB1846EB01000E
:10080000B4EB030C75EB000C04D3E41A65EB0005A4
:1008100017460E46241908F101006D418046342820
:10082000E3DDF91946EB0600091BA84103D24FF09E
:10083000FF32134601E0002213461BEB070046EB94
:100840000A51BDE8F04DFFF7CCBE000010B50446DC
:10085000012C01D104F0FCFB0148047010BD000024
:100860001200002010B5034805F08CFA04F0D2FD08
:1008700010BD0000AC04002072B603480078401C94
:1008800001490870704700000D00002004480078FE
:10089000401E034908700846007800B962B67047E8
:1008A0000D00002000B587B032480078002845D1FF
:1008B00000F05EFD002000900346012221210190FE
:1008C0002D4800F021F9002000900346012220214C
:1008D00001902A4800F018F905F0F4FB012028499E
:1008E000087000200090034602460321019004A8EE
:1008F00000F00AF908222349234800F0D0F84FF409
:100900008072224920480C3000F0C9F803230222EB
:1009100001211D481C3806F091F90020009001903B
:1009200003464FF4E1320221029017481C3806F0CA
:1009300059F904F031FB00F02EF801E005F03CFC21
:100940004FF0FF300523062207210090104805F0E4
:10095000CFFA04F081FD0748007840B9012005492D
:10096000087000F0C7F8012801D100F01FF807B0A7
:1009700000BD0000020000202801002034010020FA
:1009800003000020040000205C0100208C010020F6
:10099000AC040020704710B500F0A8FA00F0BAFAD5
:1009A00000F0AEFA10BD00BFFEE7000010B50B4826
:1009B000007890B90A490B4805F0D0FC4FF47A71E1
:1009C000084805F097FD074805F09EFD01E005F099
:1009D0005FFD024800780028F9D010BD0C0000200F
:1009E000A53D000878010020704710B50446204658
:1009F00000F09AFA10BD10B504F02AFB012000F0B7
:100A0000B7FA10BD10B504F023FB4FF4806000F07E
:100A1000AFFA4FF4006000F0ABFA4FF4805000F0F2
:100A2000A7FA4FF4005000F0A3FA4FF4804000F012
:100A30009FFA4FF4004000F09BFA10BD10B504F08F
:100A400007FB022000F094FA10BD10B504F000FB83
:100A5000042000F08DFA10BD10B504F0F9FA08205A
:100A600000F086FA10BD10B504F0F2FA102000F084
:100A70007FFA10BD10B504F0EBFA202000F078FAF0
:100A8000402000F075FA802000F072FA4FF4807078
:100A900000F06EFA4FF4007000F06AFA10BD002307
:100AA0000380438041600281704710B5024613897C
:100AB000481C90FBF3F403FB140080B210BD70B52A
:100AC000044621882046FFF7F0FF61680D5C21880D
:100AD0002046FFF7EAFF2080284670BD70B5044627
:100AE0000D4661882046FFF7E0FF608061886068FE
:100AF000455470BD0348007808B9012070470020B4
:100B0000FCE70000030000202DE9FC4705460C46E9
:100B100016461F46DDE90A890620B0EB241F07D3DD
:100B20003B46324621462846CDE9008900F002F8CE
:100B3000BDE8FC872DE9F04387B004460E46154614
:100B40001F46DDE90E982670701C10B907B0BDE88D
:100B5000F083207800F00F01012088406080207829
:100B600000F0F00078B94748606000BF4648006870
:100B700040F00100444908600846006800F00100A8
:100B8000019000BF4EE0207800F0F00010280FD157
:100B90003E48606000BF3C48006840F002003A49AF
:100BA00008600846006800F00200019000BF39E0CC
:100BB000207800F0F00020280FD13548606000BF99
:100BC0003148006840F004002F490860084600687A
:100BD00000F00400019000BF24E0207800F0F00055
:100BE00030280FD12B48606000BF2748006840F0D4
:100BF0000800254908600846006800F008000190D8
:100C000000BF0FE02448606000BF1F48006840F04C
:100C100020001D4908600846006800F0200001908F
:100C200000BF00BF6088029084F80A90CDF8109051
:100C30000220059015B90020039017E0032D02D182
:100C40000320039012E0022D09D1012F02D11220BE
:100C5000039001E002200390CDF8188006E0012FF8
:100C600002D11120039001E001200390012D03D156
:100C70004146204600F0DEF802A9606800F086F9DF
:100C800000BF63E7000002401C380240000402403D
:100C900000080240000C02400014024010B5044657
:100CA0001CB9EF2106A006F07FFA94F90000401C61
:100CB00008B9002010BD6188606800F013FBF9E7F7
:100CC0002E2E5C2E2E5C2E2E5C7372635C626F6126
:100CD0007264735C4E75636C656F4C3135325C6762
:100CE00070696F2D626F6172642E63002DE9F043AD
:100CF00085B004460D4616461F464FF000084FF0DB
:100D0000060917B905B0BDE8F08360880090012D91
:100D100002D14448019006E0022D02D142480190E0
:100D200001E042480190A07A0290022003906946B7
:100D3000606800F02BF9052E0ED2DFE806F0030400
:100D4000070A0E0000BF4FF0030809E04FF0020849
:100D500006E04FF0010803E000BF4FF0000800BFBD
:100D600000BF6088B0F5807F3DD012DC102834D001
:100D700008DC012825D0022826D0042827D00828FE
:100D80003DD127E020282BD040282AD0802836D1FA
:100D900028E0B0F5805F2CD009DCB0F5007F23D0CF
:100DA000B0F5806F23D0B0F5006F28D120E0B0F50A
:100DB000005F1FD0B0F5804F1DD0B0F5004F1ED1A1
:100DC0001AE04FF006091BE04FF0070918E04FF05A
:100DD000080915E04FF0090912E04FF00A090FE089
:100DE00000BF00BF00BF00BF4FF0170908E000BF01
:100DF00000BF00BF00BF00BF4FF0280900E000BFE8
:100E000000BF207800F00F00094941F8207000224F
:100E10004146484600F0E6FA484600F0CBFA00BFEB
:100E200070E70000000011100000211000003110D8
:100E30008C02002070B504460D460CB1606818B9EC
:100E4000D22107A006F0B0F994F90000401C00B9C7
:100E500070BDEAB26188606800F05CFA00BFF7E735
:100E60002E2E5C2E2E5C2E2E5C7372635C626F6184
:100E70007264735C4E75636C656F4C3135325C67C0
:100E800070696F2D626F6172642E630010B5044645
:100E900094F900000621B1EB201F03D32046FFF791
:100EA000FDFE10BD0020FCE72DE9F04104460D4693
:100EB00016461F4694F900000621B1EB201F05D30A
:100EC0003B46324629462046FFF710FFBDE8F08139
:100ED00070B504460D4694F900000621B1EB201FC1
:100EE00003D329462046FFF7A5FF70BD034840689D
:100EF00040F001000149486070470000002004E014
:100F00000348406840F00400014948607047000011
:100F1000002004E00348406840F0020001494860B6
:100F200070470000002004E031B5002400F012FA00
:100F3000044600BF00F00EFA001B00998842F9D366
:100F400038BD000070B504460025002C05DD02E028
:100F50006410681CC5B2012CFAD1044850F8250071
:100F600018B1024951F82500804770BD8C0200205D
:100F700010B5044604480068204020B102480460CF
:100F80002046FFF7DFFF10BD140401402DE9F843B0
:100F900005460C460027B8460026C048854214D0B6
:100FA000BF48854211D0BF4885420ED0BE48854219
:100FB0000BD0BE48854208D0BD48854205D0BD480B
:100FC000854202D0BC48854200D103E0CB21BB481A
:100FD00006F0EAF8208880B220B120686FF30F0095
:100FE00000B903E0CC21B54806F0DEF8606830B304
:100FF0006068012823D06068112820D0606802282A
:101000001DD0606812281AD0AD496068884216D099
:10101000AC496068884212D0AB49606888420ED003
:10102000AA49606888420AD0A9496068884206D007
:10103000A8496068884202D06068032800D103E0B4
:10104000CD219E4806F0B0F8A06828B1A06801281C
:1010500002D0A068022800D103E0CE21974806F014
:10106000A3F813E10121B940206800EA0108B8F1B2
:10107000000F7DD06068022802D06068122838D145
:101080008648854214D08648854211D085488542DD
:101090000ED0854885420BD08448854208D08448CC
:1010A000854205D08348854202D08348854200D1DD
:1010B00003E0DD21814806F077F820690F2800D889
:1010C00003E0DE217D4806F06FF8F90805F1200005
:1010D00050F821607807C10E0F20884086437907B9
:1010E000C90E206988400643F90805F1200040F840
:1010F00021602E687900032088408643207900F023
:1011000003007900884006432E606068012808D0FB
:101110006068022805D06068112802D06068122833
:1011200023D1E06840B1E068012805D0E0680228DA
:1011300002D0E068032800D103E0F3215F4806F005
:1011400033F8AE6879000320884086437900E06870
:1011500088400643AE606E680120B840864320791F
:10116000C0F30010B84006436E60EE68790000E0FE
:101170008BE00320884086437900A06888400643BE
:10118000EE60606800F08050B0F1805F7DD100BFFC
:101190005148006840F001004F4908600846006867
:1011A00000F00100009000BF00BF4C48B90850F8A3
:1011B0002160B807010F0F208840864337488542D9
:1011C00001D100201EE03648854201D1012019E0FE
:1011D0003448854201D1022014E03348854201D1D0
:1011E00003200FE03148854201D104200AE0324853
:1011F000854201D1052005E02D48854201D1062018
:1012000000E00720B907090F884006433348B908B2
:1012100040F821603248066826EA0806606800F453
:101220008030B0F5803F01D146EA08062C480660C0
:10123000001D066826EA0806606800F40030B0F574
:10124000003F01D146EA08062548001D0660001D42
:10125000066826EA0806606800F48010B0F5801F72
:1012600001D146EA08061E4808300660001D0668DF
:1012700026EA0806606800F40010B0F5001F01D1EE
:1012800046EA080616480C3006607F1C2068F840C5
:1012900000287FF4E7AEBDE8F883000000000240BC
:1012A0000004024000080240000C0240001002400E
:1012B00000180240001C024000140240888100080F
:1012C0000000111000002110000031100000121069
:1012D00000002210000032102038024008000140B7
:1012E0000004014070B506460C46A0B218B1200CAF
:1012F000000400B904E04FF4CC71054805F054FF38
:101300003069204008B1012500E00025284670BD65
:101310008881000870B506460C461546A0B218B183
:10132000200C000400B904E04FF4DB71084805F01C
:101330003BFF0DB1012D00D104E040F2B71104488C
:1013400005F032FF0DB1B46101E02004B06170BD61
:1013500088810008014800687047000024000020D0
:1013600002480068401C01490860704724000020C2
:1013700010B5032000F084F8002000F005F800F01C
:1013800017F8002010BD000070B50446074800683B
:101390004FF47A71B0FBF1F5284602F0DEFA002234
:1013A0002146501E00F01EF8002070BD20000020D5
:1013B0007047000010B50446002C00DB03E0E72175
:1013C000074805F0F1FE00BF04F01F01012088402E
:1013D0006109890001F1E021C1F8000100BF10BDE1
:1013E000388100082DE9F05F80460C46154600273D
:1013F000102D00D203E0D321204805F0D5FE102C9B
:1014000000D203E0D4211D4805F0CEFE02F0AEFC70
:101410000746394622462B4601F00700C0F1070A6D
:10142000BAF1040F02D94FF0040A01E0C0F1070A33
:10143000D14600F1040ABAF1070F02D24FF0000AB8
:1014400001E0A0F1030AD4464FF0010A0AFA09FAB2
:10145000AAF1010A0AEA020A0AFA0CFA4FF0010B91
:101460000BFA0CFBABF1010B0BEA030B4AEA0B0680
:101470003146404602F082FCBDE8F09F388100080A
:1014800010B50446072C07D0062C05D0052C03D038
:10149000042C01D0032C00D103E0BB21094805F046
:1014A00083FE00BF04F00701074A10684FF6FF02F1
:1014B0001040064A024342EA0120034A106000BF7E
:1014C00010BD0000388100080CED00E00000FA05B6
:1014D0000120810291FAA1F1B1FA81F1014A42F8A9
:1014E0002100704700000E420120410291FAA1F153
:1014F000B1FA81F1014A42F82100704700000E4222
:101500000248006800F4C0507047000000700040BE
:101510000020102191FAA1F1B1FA81F1014A42F8BB
:101520002100704700000E4270B504460D460CB114
:10153000012C00D104E040F20121144805F034FEF2
:10154000012D01D0022D00D104E040F202210F480C
:1015500005F02AFE0E48006820F0030020430C49E5
:1015600008600C48006840F004000A490860012D3A
:1015700001D130BF02E040BF20BF20BF0548006856
:1015800020F004000349086070BD0000D481000809
:101590000070004010ED00E0F8B50446002600257C
:1015A0002068012803D32068022800D803E07421B2
:1015B000994805F0F9FD207800F0010020B9207865
:1015C00000F00200022871D1207800F00100F0B193
:1015D0006068B8B16068B0F5803F13D06068B0F55E
:1015E000003F0FD06068B0F5403F0BD08B4960687A
:1015F000884207D08A496068884203D08949606878
:10160000884200D103E08021834805F0CDFD207899
:1016100000F0020002281ED1A068B8B1A068B0F5A1
:10162000803F13D0A068B0F5003F0FD0A068B0F5A0
:10163000403F0BD07949A068884207D07849A0681C
:10164000884203D07749A068884200D103E0862110
:10165000714805F0A9FD00277348006800F080502C
:1016600070B900BF7048006840F080506E49086053
:101670000846006800F08050009000BF00BF0127BE
:101680006A48006800F48070B8B96848006840F49F
:10169000807066490860FFF75DFE064607E0FFF7C9
:1016A00059FE801B642802D90320F8BDB2E05F48D0
:1016B000006800F480700028F1D05B48243800688E
:1016C00000F0C045606800F0C040A84204D1A068A6
:1016D00000F0C040A8420DD0606800F44030B0F582
:1016E000403F07D150482438006800F4003008B16A
:1016F0000120DAE74C481030006800F44035B5B3FB
:10170000606800F44030A84203D0207800F0010067
:1017100048B9A06800F44030A84252D0207800F0C8
:10172000020002284DD140481030006820F44035B6
:101730000121C80590FAA0F0B0FA80F03C4A02EB13
:101740008000C0F880160020C90591FAA1F1B1FA15
:1017500081F102EB8101C1F8800633481030056049
:1017600005F4807018B1FFF7F5FD064609E028E0A2
:10177000FFF7F0FD801B41F28831884201D9032038
:1017800093E74020C10091FAA1F1B1FA81F1084339
:101790000121B1EB601F03D123482438006802E027
:1017A0002148103000684021CA0092FAA2F2B2FA31
:1017B00082F2114301F01F020121914008400028EC
:1017C000D6D000BF00BF606800F44030B0F5403FA5
:1017D0000BD115482438006820F0C040616801F042
:1017E000C041084310492439086000BF0E4810303A
:1017F0000068616801F4403108430B49103108600A
:1018000000BF012F05D10848006820F0805006492C
:10181000086000BF002048E76C8200080000032039
:1018200000000340000003602438024000700040C4
:101830000000474270B504460D46002604B104E09E
:1018400040F2F221F64805F0AFFC207800F00100EC
:1018500070B9207800F00200022809D0207800F04A
:101860000400042804D0207800F00800082800D1E3
:1018700004E040F2F321EA4805F096FC0DB1012D99
:1018800000D104E04FF43D71E54805F08DFCE548DA
:10189000006800F00100A84218D200BF012D05D158
:1018A000E048006840F00400DE490860DD48006858
:1018B00020F001002843DB49086000BF08460068AB
:1018C00000F00100A84201D0012070BD207800F096
:1018D0000200022827D1A068B8B1A068802814D0DF
:1018E000A068902811D0A068A0280ED0A068B028C9
:1018F0000BD0A068C02808D0A068D02805D0A06868
:10190000E02802D0A068F02800D104E040F20B31BA
:10191000C34805F049FCC448006820F0F000A16805
:101920000843C1490860207800F0010000286BD00E
:10193000606840B16068012805D06068022802D064
:101940006068032800D104E040F21231B44805F089
:101950002BFC6068022820D12020010391FAA1F11C
:10196000B1FA81F108430121B1EB601F03D1AE4808
:101970000838006802E0AC482C30006820210A03D7
:1019800092FAA2F2B2FA82F2114301F01F0201218F
:1019900091400840B8BB012097E76068032820D138
:1019A0002020010591FAA1F1B1FA81F1084301214A
:1019B000B1EB601F03D19C480838006802E09A48E8
:1019C0002C30006820210A0592FAA2F2B2FA82F2C3
:1019D000114301F01F0201219140084098B90120F4
:1019E00073E76068012822D12020022191FAA1F139
:1019F000B1FA81F108430121B1EB601F05D18A489A
:101A00000838006804E033E089E087482C3000683B
:101A10002021022292FAA2F2B2FA82F2114301F0DC
:101A20001F0201219140084010BB01204DE72020FA
:101A3000010191FAA1F1B1FA81F108430121B1EB61
:101A4000601F03D178480838006802E076482C30DF
:101A5000006820210A0192FAA2F2B2FA82F211433E
:101A600001F01F0201219140084008B901202CE734
:101A70006D48006820F00300616808436A49086007
:101A8000FFF768FC06466068022810D108E0FFF7FF
:101A900061FC801B41F28831884201D9032014E7A0
:101AA0006148006800F00C000828F0D137E0606859
:101AB000032810D108E0FFF74DFC801B41F288316C
:101AC000884201D9032000E75748006800F00C0065
:101AD0000C28F0D123E06068012810D108E0FFF75E
:101AE00039FC801B41F28831884201D90320ECE6A1
:101AF0004D48006800F00C000428F0D10FE008E029
:101B0000FFF728FC801B41F28831884201D903206D
:101B1000DBE64548006800F00C000028F0D14148A1
:101B2000006800F00100A84218D900BF012D05D1BE
:101B30003C48006840F004003A49086039480068B1
:101B400020F0010028433749086000BF08460068BC
:101B500000F00100A84201D00120B6E6207800F094
:101B6000040004281FD1E06878B1E068B0F5806F08
:101B70000BD0E068B0F5A06F07D0E068B0F5C06F9B
:101B800003D0E068B0F5E06F00D104E040F27731B7
:101B9000234805F009FB2448006820F4E060E16870
:101BA000084321490860207800F00800082820D167
:101BB000206978B12069B0F5806F0BD02069B0F54D
:101BC000A06F07D02069B0F5C06F03D02069B0F5D1
:101BD000E06F00D104E040F27E31114805F0E4FAF4
:101BE0001148006820F46050216940EAC1000E49A4
:101BF000086000F051F80C49096801F0F001F0228A
:101C000092FAA2F2B2FA82F2D140084A515CC8407C
:101C1000074908600020FFF7B7FB002055E60000E9
:101C200020820008003C0240083802406D7F000816
:101C300020000020014800687047000020000020BC
:101C400000B5FFF7F7FF0749096801F4E0614FF4B9
:101C5000E06292FAA2F2B2FA82F2D140024A515CF8
:101C6000C84000BD083802407D7F000800B5FFF77E
:101C7000E1FF0749096801F460514FF4605292FA9C
:101C8000A2F2B2FA82F2D140024A515CC84000BDD1
:101C9000083802407D7F0008F0B5002100230024B1
:101CA000002200250020254E316801F00C067EB38D
:101CB000042E04D0082E04D00C2E2AD103E0204894
:101CC0003AE01F4838E001F470164FF4701797FAA5
:101CD000A7F7B7FA87F7FE401A4FBB5D01F440063D
:101CE0004FF4400797FAA7F7B7FA87F7FE40741C3E
:101CF000124E366806F4803626B1114E5E43B6FBAE
:101D0000F4F203E00E4E5E43B6FBF4F2104613E02D
:101D100000E000BF094E361F366806F460464FF4F7
:101D2000604797FAA7F7B7FA87F726FA07F56E1C08
:101D30000127B740F80300BF00BFF0BD08380240DC
:101D40000024F400647F0008F8B50446002504B1BF
:101D500004E04FF49971FE4805F026FA2068B8B106
:101D6000207800F0010098B9207800F002000228E5
:101D70000ED0207800F00800082809D0207800F064
:101D80000400042804D0207800F01000102800D1AE
:101D900004E040F23311EE4805F006FA207800F036
:101DA0000100002873D0606828B16068012802D063
:101DB0006068052800D104E040F23911E44805F0DC
:101DC000F3F9E448006800F00C0008280CD0E14862
:101DD000006800F00C000C282BD1DE48006800F4ED
:101DE0008030B0F5803F24D12020010391FAA1F189
:101DF000B1FA81F108430121B1EB601F03D1D5484D
:101E00000838006802E0D3482C30006820210A031B
:101E100092FAA2F2B2FA82F2114301F01F020121FA
:101E200091400840002832D0606800282FD101205E
:101E3000F8BD00BF6068012808D1C64808380068AE
:101E400040F48030C349083908602EE0606868B902
:101E5000C0480838006820F48030BE49083908605E
:101E60000846006820F4802008601EE060680528AD
:101E70000ED1B8480838006840F48020B5490839C8
:101E800008600846006840F4803008600DE066E0B5
:101E9000B0480838006820F48030AE49083908603E
:101EA0000846006820F48020086000BF606858B3CE
:101EB000FFF750FA054606E0FFF74CFA401B64288E
:101EC00001D90320B4E72020010391FAA1F1B1FA6E
:101ED00081F108430121B1EB601F03D19D4808380F
:101EE000006802E09B482C30006820210A0392FA27
:101EF000A2F2B2FA82F2114301F01F0201219140D5
:101F000008400028D8D02AE0FFF724FA054606E06A
:101F1000FFF720FA401B642801D9032088E720201E
:101F2000010391FAA1F1B1FA81F108430121B1EB6A
:101F3000601F03D187480838006802E085482C30CC
:101F4000006820210A0392FAA2F2B2FA82F2114347
:101F500001F01F020121914008400028D8D12078CB
:101F600000F00200022859D1E06810B1E0680128B1
:101F700000D104E040F26D11754805F015F92069B3
:101F80001F2800D804E04FF4B771714805F00CF930
:101F90007048006800F00C0004280AD06D48006802
:101FA00000F00C000C283BD16A48006800F4803037
:101FB000A8BB2020022191FAA1F1B1FA81F10843D6
:101FC0000121B1EB601F03D162480838006802E0CC
:101FD00060482C3000682021022292FAA2F2B2FA64
:101FE00082F2114301F01F0201219140084020B10B
:101FF000E068012801D001201AE75648001F006858
:1020000020F4F8504FF4F85292FAA2F2B2FA82F2A7
:102010002169914008434F49091F08607DE0FFE7AF
:10202000E068E0B3012090FAA0F1B1FA81F14A4AE8
:1020300042F82100FFF78EF9054606E0FFF78AF91E
:10204000401B022801D90320F2E62020022191FA48
:10205000A1F1B1FA81F108430121B1EB601F03D175
:102060003C480838006802E03A482C3000682021DB
:10207000022292FAA2F2B2FA82F2114301F01F0296
:102080000121914008400028D8D03248001F006844
:1020900020F4F8504FF4F85292FAA2F200E008E06F
:1020A000B2FA82F22169914008432A49091F086067
:1020B00033E00020012191FAA1F1B1FA81F1264A21
:1020C00042F82100FFF746F9054606E0FFF742F91E
:1020D000401B022801D90320AAE62020022191FA00
:1020E000A1F1B1FA81F108430121B1EB601F03D1E5
:1020F00018480838006802E016482C300068202193
:10210000022292FAA2F2B2FA82F2114301F01F0205
:102110000121914008400028D8D1207800F010001B
:1021200010287DD10B48006800F00C00002878D101
:102130002020010191FAA1F1B1FA81F108430121B6
:10214000B1EB601F0AD103480838006808E00000BE
:10215000208200080838024000004742FE4800681C
:1021600020210A0192FAA2F2B2FA82F2114301F09E
:102170001F0201219140084018B1A06908B901204F
:1021800056E6E069FF2800D804E04FF4DC71F3481C
:1021900005F00AF8206AB8B1206AB0F5005F13D0E4
:1021A000206AB0F5804F0FD0206AB0F5C04F0BD039
:1021B000206AB0F5004F07D0206AB0F5204F03D059
:1021C000206AB0F5404F00D104E040F2B911E34875
:1021D00004F0EAFFE0493039206A096801F46041FF
:1021E000884223D9206A01F0FBFD08B101201FE6D7
:1021F000D9483038006820F46040216A0843D64945
:10220000303908600846006820F07F404FF07F4278
:1022100092FAA2F2B2FA82F2E1699140084301E037
:10222000FDE043E0CC49303908601FE0CA4830384F
:10223000006820F46040216A0843C74930390860CB
:102240000846006820F07F404FF07F4292FAA2F2E9
:10225000B2FA82F2E16991400843BF49303908601F
:10226000206A01F0BDFD08B10120E1E54FF46041B5
:1022700091FAA1F1B1FA81F1206AC840401C012114
:102280008140C803B4492C39096801F0F001F022FB
:1022900092FAA2F2B2FA82F2D140B14A515CC8403D
:1022A000B04908600020FFF76FF8B8E0A06910B1EE
:1022B000A069012800D104E040F2E511A74804F02C
:1022C00073FFA069B0B30120010291FAA1F1B1FA44
:1022D00081F1A54A42F82100FFF73CF8054606E0E7
:1022E000FFF738F8401B022801D90320A0E5202081
:1022F000010191FAA1F1B1FA81F108430121B1EB99
:10230000601F03D194483438006801E092480068A7
:1023100020210A0192FAA2F2B2FA82F2114301F0EC
:102320001F020121914008400028D9D0E069FF2810
:1023300001D805E03FE040F2F911884804F034FF8D
:10234000206AB8B1206AB0F5005F13D0206AB0F5FA
:10235000804F0FD0206AB0F5C04F0BD0206AB0F587
:10236000004F07D0206AB0F5204F03D0206AB0F5A7
:10237000404F00D104E04FF4FD71784804F014FFA1
:1023800075483038006820F46040216A084372497B
:10239000303908600846006820F07F404FF07F42E7
:1023A00092FAA2F2B2FA82F2E169914008436A49D4
:1023B0003039086033E000204FF4807191FAA1F1C8
:1023C000B1FA81F1684A42F82100FEF7C3FF0546E1
:1023D00006E0FEF7BFFF401B022801D9032027E5D6
:1023E0002020010191FAA1F1B1FA81F10843012104
:1023F000B1EB601F03D158483438006801E05648FB
:10240000006820210A0192FAA2F2B2FA82F2114384
:1024100001F01F020121914008400028D9D1207805
:1024200000F00800082877D1606910B160690128C0
:1024300000D104E040F21921484804F0B5FE60697B
:10244000A0B3012090FAA0F1B1FA81F1464A02EB63
:102450008101C1F88006FEF77DFF054606E0FEF724
:1024600079FF401B022801D90320E1E4402002212A
:1024700091FAA1F1B1FA81F108430121B1EB601F9A
:1024800003D135483438006801E033480068402102
:10249000022292FAA2F2B2FA82F2114301F01F0272
:1024A0000121914008400028D9D035E0FFE7002005
:1024B000012191FAA1F1B1FA81F12B4A02EB8101DC
:1024C000C1F88006FEF746FF054606E0FEF742FF2C
:1024D000401B022801D90320AAE44020022191FADE
:1024E000A1F1B1FA81F108430121B1EB601F03D1E1
:1024F00019483438006801E017480068402102227A
:1025000092FAA2F2B2FA82F2114301F01F02012103
:10251000914008400028D9D1207800F00400042818
:102520007AD10026A06828B1A068012802D0A0684E
:10253000052800D104E040F24521084804F034FEAB
:1025400005481038006800F08050D8B900BF024834
:10255000103800680AE00000343802402082000889
:102560006D7F0008200000200000474240F08050AE
:10257000EF4908600846006800F08050009000BFF6
:1025800000BF0126EB48006800F48070B0B9E9484C
:10259000006840F48070E7490860FEF7DBFE0546FE
:1025A00006E0FEF7D7FE401B642801D903203FE474
:1025B000E048006800F480700028F2D000BFA068F6
:1025C000012808D1DA481030006840F48070D849FA
:1025D000103108602EE0A06868B9D5481030006856
:1025E00020F48070D249103108600846006820F459
:1025F000806008601EE0A06805280ED1CC4810302D
:10260000006840F48060CA491031086008460068DC
:1026100040F4807008600DE073E0C5481030006839
:1026200020F48070C249103108600846006820F428
:102630008060086000BFA06868B3FEF78BFE0546A7
:1026400008E0FEF787FE401B41F28831884201D93D
:10265000032037E44020C10091FAA1F1B1FA81F1E1
:1026600008430121B1EB601F03D1B1482438006851
:1026700002E0AF48103000684021CA0092FAA2F28E
:10268000B2FA82F2114301F01F0201219140084089
:102690000028D6D02CE0FEF75DFE054608E0FEF7E8
:1026A00059FE401B41F28831884201D9032009E4D8
:1026B0004020C10091FAA1F1B1FA81F10843012152
:1026C000B1EB601F03D19A482438006802E09848B3
:1026D000103000684021CA0092FAA2F2B2FA82F2E7
:1026E000114301F01F020121914008400028D6D17A
:1026F000012E05D18E48006820F080508C4908607A
:1027000000BF606A28B1606A012802D0606A0228AE
:1027100000D104E040F28921874804F045FD606A59
:10272000002873D082481C38006800F00C000C2888
:102730006DD0606A02286BD1A06A18B1A06AB0F5AA
:10274000803F00D104E040F292217B4804F02CFD50
:10275000E06AF8B1E06AB0F5802F1BD0E06AB0F50E
:10276000002F17D0E06AB0F5402F13D0E06AB0F523
:10277000801F0FD0E06AB0F5A01F0BD0E06AB0F563
:10278000C01F07D0E06AB0F5E01F03D0E06AB0F5E3
:10279000001F00D104E040F29321674804F004FDDB
:1027A000206BB0F5800F07D0206BB0F5000F03D081
:1027B000206BB0F5400F00D104E04FF425715E4866
:1027C00004F0F2FC00204FF0807191FAA1F1B1FA0F
:1027D00081F15A4A42F82100FEF7BCFD054606E0A9
:1027E000FEF7B8FD401B022801D9032004E4202095
:1027F000010591FAA1F1B1FA81F108430121B1EB90
:10280000601F06D14A482438006805E08DE08AE060
:1028100053E047481030006820210A0592FAA2F2DE
:10282000B2FA82F2114301F01F02012191400840E7
:102830000028D5D1D4E90A010843216B08433C495B
:102840001C39096821F47D01084339491C390860A5
:102850000120010691FAA1F1B1FA81F1374A42F85B
:102860002100FEF777FD054606E0FEF773FD401BED
:10287000022801D903202FE42020010591FAA1F1BB
:10288000B1FA81F108430121B1EB601F03D128485F
:102890002438006802E026481030006820210A052C
:1028A00092FAA2F2B2FA82F2114301F01F02012160
:1028B000914008400028D8D037E000204FF08071C8
:1028C00091FAA1F1B1FA81F11C4A42F82100FEF718
:1028D00041FD054606E0FEF73DFD401B022801D9FB
:1028E00003204DE42020010591FAA1F1B1FA81F114
:1028F00008430121B1EB601F03D10D482438006863
:1029000002E00B481030006820210A0592FAA2F27A
:10291000B2FA82F2114301F01F02012191400840F6
:102920000028D8D101E001202AE4002028E400009A
:102930002438024000700040208200080000474216
:102940007047014600BF087F012801D1022070476F
:102950000120087700BF0220487700BFCA200A681C
:10296000506253200A68506200BF0868806840F0D7
:1029700020000A68906000BFFF200A68506200BF14
:102980000120487700BF0020087700BF00BFDEE7C6
:102990007047000010B5044620688068C0F300301E
:1029A00078B12068C068C0F3002050B12046FFF71E
:1029B000EFFF2068C06800F0800060F4C0702168FC
:1029C000C86020688068C0F3403078B12068C06873
:1029D000C0F3402050B12046FFF7B2FF2068C06826
:1029E00000F0800060F420702168C8604FF400306F
:1029F000024908600120607710BD00001404014006
:102A000070B504460D460026B5F5807F02D0B5F5B9
:102A1000007F00D104E040F27E213C4804F0C4FB7A
:102A200000BF207F012801D1022070BD0120207746
:102A300000BF0220607700BFCA202168486253208F
:102A40002168486200BFB5F5807F29D12068806881
:102A500020F48070216888602068806820F48050AD
:102A600021688860FEF776FC064612E0FEF772FCED
:102A7000801BB0F57A7F0CD900BFFF202168486227
:102A800000BF0320607700BF0020207700BF032035
:102A9000CBE72068C06800F001000028E6D028E0FD
:102AA0002068806820F40070216888602068806851
:102AB00020F4005021688860FEF74CFC064612E0C6
:102AC000FEF748FC801BB0F57A7F0CD900BFFF20D1
:102AD0002168486200BF0320607700BF0020207794
:102AE00000BF0320A1E72068C068C0F340000028B1
:102AF000E6D000BFFF202168486200BF0120607758
:102B000000BF0020207700BF00BF8EE7BC82000816
:102B10002DE9F04706460C46174698460025A9467B
:102B2000B8F1000F02D0B8F1010F00D104E040F27B
:102B3000CB212B4804F038FBB7F5807F02D0B7F5E6
:102B4000007F00D104E04FF43371254804F02CFBE2
:102B5000B7F5807F09D14FF4807060623068C56935
:102B60003068406CC0F30E0908E04FF400706062FA
:102B70003068056A3068806CC0F30E09C5F3054003
:102B80002070C5F30620607005F07F00A07005F48A
:102B90008000000CE070C4F80490C5F3056084F870
:102BA000200005F08040E06105F080306061B8F100
:102BB000000F11D1207801F07DF92070607801F0CC
:102BC00079F96070A07801F075F9A07094F8200090
:102BD00001F070F984F820000020BDE8F0870000C3
:102BE000088300082DE9F04107460C4615460026EB
:102BF0000DB1012D00D104E040F24721114804F04D
:102C0000D3FA38684068104900EA0106300CE070D9
:102C1000C6F30420607006F03F00A070C6F3423097
:102C200020705DB9E07801F045F9E070607801F05E
:102C300041F96070A07801F03DF9A0700020BDE876
:102C4000F0810000BC8200083FFFFF002DE9F04149
:102C500005460C46164600270EB1012E00D104E0B1
:102C60004FF48171164804F09FFA2868806A80B298
:102C7000606028680069C0F30E00A06028680068E2
:102C8000104900EA0107C7F305402070C7F306208A
:102C9000607007F07F00A07007F48000000CE07007
:102CA0005EB9207801F006F92070607801F002F931
:102CB0006070A07801F0FEF8A0700020BDE8F081FF
:102CC000088300087F7F7F0010B504460CB90120FF
:102CD00010BD50492068884200D103E0CD214E4804
:102CE00004F062FA6068402801D0606800B903E02F
:102CF000CE21494804F058FAA0687F2800D803E0A4
:102D0000CF21454804F050FAE068B0F5004F00D2FA
:102D100003E0D021404804F047FA206958B1206907
:102D2000B0F5001F07D02069B0F5800F03D02069EF
:102D3000B0F5C00F00D103E0D121374804F034FAD8
:102D4000606918B16069B0F5801F00D103E0D2213D
:102D5000314804F029FAA06918B1A069B0F5802FB4
:102D600000D103E0D3212C4804F01EFA607F20B983
:102D700000202077204600F053F80220607700BF43
:102D8000CA202168486253202168486200BF20465B
:102D900001F0A8F840B100BFFF202168486200BFE1
:102DA00004206077012093E7206880681B49084071
:102DB0002168886021696068084361690843216867
:102DC00089680843216888602168E0680861206894
:102DD0000169208941EA0040216808612068C068D3
:102DE00020F080002168C8602068006C20F48020FA
:102DF000216808642068006CA169084321680864A0
:102E000000BFFF202168486200BF012060770020DA
:102E10005EE7000000280040BC820008BFFF8FFF73
:102E2000704700002DE9F04705460C4617464FF065
:102E300000080026B1460FB1012F00D104E040F296
:102E40000221FE4804F0B0F9606AB0F5807F03D03B
:102E5000606AB0F5007F00D104E040F20321F7483A
:102E600004F0A2F9606900F07F3000B904E04FF48B
:102E70000171F24804F098F9E06918B1E069B0F125
:102E8000804F00D104E040F20521EC4804F08CF9B9
:102E90006068B0F5004F00D204E040F20721E74837
:102EA00004F082F9A069D8B3A069B0F1807F37D06F
:102EB000A069B0F1007F33D0A069B0F1407F2FD07E
:102EC000A069B0F1806F2BD0A069B0F1A06F27D0BE
:102ED000A069B0F1C06F23D0A069B0F1E06F1FD03E
:102EE000A069B0F1006F1BD0A069B0F1106F17D0CE
:102EF000A069B0F1206F13D0A069B0F1306F0FD08E
:102F0000A069B0F1406F0BD0A069B0F1506F07D04D
:102F1000A069B0F1606F03D0A069B0F1706F00D10B
:102F200004E04FF40271C54804F03EF900BF287F69
:102F3000012802D10220BDE8F0870120287700BFD8
:102F400002206877002F7DD12868806800F040005B
:102F5000B0B1207818B120780C2800D804E04FF4E4
:102F60000571B64804F020F9E07810B1E078402807
:102F700000D110E040F21521B04804F015F90AE044
:102F80000020E0702078172800D804E040F21A21D1
:102F9000AA4804F009F960783B2800D804E04FF40F
:102FA0000771A64804F000F9A0783B2800D804E097
:102FB00040F21D21A14804F0F7F8E06968B994F8DF
:102FC000200020B194F820001F2800D827E040F20C
:102FD00021219A4804F0E8F821E094F82000012823
:102FE00017D094F82000022813D094F8200003286A
:102FF0000FD094F8200004280BD094F82000052866
:1030000007D094F82000062803D094F82000072861
:1030100000D104E040F22521884804F0C5F820786A
:1030200000F053FF4FEA004A607800F04EFF4AEA92
:10303000002AA07800F049FF4AEA000AE0784AEA4C
:10304000004A00E00BE094F8200000F03EFF4AEA5E
:103050000060E1690843616940EA01067DE0286893
:10306000806800F04000C0B1207800F023FF0646E1
:1030700016B10C2E00D804E04FF40D716F4804F027
:1030800093F8E07810B1E078402800D112E040F2E7
:1030900035216A4804F088F80CE00020E0702078C0
:1030A00000F008FF172800D804E040F23A216348F6
:1030B00004F07AF8607800F0FDFE3B2800D804E0C8
:1030C00040F23D215D4804F06FF8A07800F0F2FE78
:1030D0003B2800D804E040F23E21584804F064F850
:1030E000E06970B994F8200000F0E4FE064616B1DD
:1030F0001F2E00D81EE040F24321504804F054F83F
:1031000018E094F8200000F0D5FE0646012E0BD002
:10311000022E09D0032E07D0042E05D0052E03D091
:10312000062E01D0072E00D104E04FF4127143485F
:1031300004F03AF820780004617840EA0120A17890
:103140000843E17840EA014094F8201040EA016029
:10315000E1690843616940EA0106A169606840EAE3
:10316000010900BFCA2029684862532029684862C3
:1031700000BF606AB0F5807F3DD12868806820F488
:103180008070296888602868C06800F0800060F45A
:10319000C0702968C860FEF7DDF8804613E0FEF7CE
:1031A000D9F8A0EB0800B0F57A7F0CD900BFFF205A
:1031B0002968486200BF0320687700BF0020287795
:1031C00000BF0320B7E62868C06800F001000028AF
:1031D000E5D02868C6612868C0F8449028688068EF
:1031E00040F48070296888602868806840F48050C6
:1031F000296888603FE02868806820F400702968AA
:1032000088602868C06800F0800060F42070296839
:10321000C860FEF79FF8804616E0FEF79BF8A0EB2B
:103220000800B0F57A7F0FD900BFFF2029684862F7
:1032300000BF0320687700BF002001E0088300087A
:10324000287700BF032076E62868C068C0F34000F6
:103250000028E2D0286806622868C0F848902868EC
:10326000806840F40070296888602868806840F4AD
:103270000050296888600D48006840F400300B4910
:1032800008600A480830006840F4003007490831F7
:10329000086000BFFF202968486200BF01206877EE
:1032A00000BF0020287700BF00BF44E600040140B3
:1032B0002DE9F04105460C46164600270EB1012EB9
:1032C00000D104E04FF4ED716B4803F06DFF00BFD7
:1032D000287F012802D10220BDE8F0810120287753
:1032E00000BF022068774EB9607800F01000102807
:1032F00004D1607800F0EF000A3060702078012877
:1033000011D0207802280ED0207803280BD0207806
:10331000042808D02078052805D02078062802D077
:103320002078072800D104E04FF4F371524803F0ED
:103330003BFF7EBBE078632800D804E04FF4F571D2
:103340004D4803F031FF607818B160780C2800D840
:1033500004E040F2EB11484803F026FFA07818B1D2
:10336000A0781F2800D804E04FF4F671424803F01B
:103370001BFFE07800F0A9FD0304607800F0A5FDD4
:1033800043EA0023A07800F0A0FD0343207843EA3D
:1033900040372FE0FFE7E07800F08CFD632800D88D
:1033A00004E040F2F511344803F0FEFE607800F0CE
:1033B00081FD074617B10C2F00D804E040F2F71149
:1033C0002D4803F0F1FEA07800F074FD074617B118
:1033D0001F2F00D804E040F2F911274803F0E4FE63
:1033E000E0780004617840EA0120A1780843217860
:1033F00040EA413700BFCA20296848625320296843
:10340000486200BF284600F06DFD60B100BFFF209C
:103410002968486200BF0420687700BF0020287731
:1034200000BF012058E715483840296848602868DF
:10343000C06820F080002968C860284600F042F982
:1034400060B100BFFF202968486200BF0420687790
:1034500000BF0020287700BF01203DE700BFFF200C
:103460002968486200BF0120687700BF00202877E4
:1034700000BF00BF30E70000BC8200083FFFFF0034
:103480002DE9F04105460C46164600270EB1012EE7
:1034900000D104E040F25F11884803F085FEE06847
:1034A000B0F5003F05D0E068B0F5803F01D0E0689E
:1034B00000B904E04FF4B071804803F075FE206954
:1034C00018B12069B0F5802F00D104E040F26111FD
:1034D0007A4803F069FE00BF287F012802D102204C
:1034E000BDE8F0810120287700BF02206877002E18
:1034F00049D12868806800F04000B0B1207818B148
:1035000020780C2800D804E04FF4B6716B4803F023
:103510004BFEE07810B1E078402800D110E040F296
:103520006D11664803F040FE0AE00020E07020784C
:10353000172800D804E04FF4B971604803F034FE56
:1035400060783B2800D804E04FF4BA715B4803F080
:103550002BFEA0783B2800D804E040F275115748B4
:1035600003F022FE207800F0B0FC0304607800F045
:10357000ACFC43EA0023A07800F0A7FC0343E0780A
:1035800043EA00474AE02868806800F04000C0B184
:10359000207800F08FFC074617B10C2F00D804E00C
:1035A00040F28111454803F0FFFDE07810B1E0786A
:1035B000402800D112E04FF4C171404803F0F4FDFF
:1035C0000CE00020E070207800F074FC172800D890
:1035D00004E040F28711394803F0E6FD607800F01E
:1035E00069FC3B2800D804E040F28911334803F01D
:1035F000DBFDA07800F05EFC3B2800D804E04FF42F
:10360000C5712E4803F0D0FD20780004617840EAAF
:103610000120A1780843E17840EA014700BFCA20B1
:103620002968486253202968486200BF284600F094
:1036300059FC60B100BFFF202968486200BF042028
:10364000687700BF0020287700BF012048E71C48AA
:103650003840296808602868806820F4802029683C
:103660008860D4E903010843296889680843296808
:1036700088602868C06820F080002968C8602846F3
:1036800000F020F860B100BFFF202968486200BF49
:103690000420687700BF0020287700BF01201FE7C3
:1036A00000BFFF202968486200BF0120687700BF83
:1036B0000020287700BF00BF12E70000BC8200088E
:1036C0007F7F7F0070B5044600252068806800F089
:1036D0002000B8B92068C06820F0A0002168C86048
:1036E000FDF738FE054607E0FDF734FE401BB0F558
:1036F0007A7F01D9032070BD2068C06800F02000E7
:103700000028F1D00020F6E710B504460CB90120DE
:1037100010BD2068006820F0400021680860204645
:1037200000F0F6F80020606584F8510000BF84F8CE
:10373000500000BF00BFEBE710B504460CB90120F4
:1037400010BD6F492068884207D06E4920688842C2
:1037500003D06D492068884200D103E057216B48AF
:1037600003F022FD606818B16068B0F5827F00D177
:1037700003E05821654803F017FDA06838B1A06840
:10378000B0F5806F03D0A068B0F5004F00D103E022
:1037900059215E4803F008FDE068B0F5006F01D0E4
:1037A000E06800B903E05A21584803F0FDFC2069A5
:1037B00010B12069022800D103E05B21534803F0D7
:1037C000F3FC606910B16069012800D103E05C215D
:1037D0004E4803F0E9FCA069B0F5007F05D0A06970
:1037E00018B1A069B0F5802F00D103E05D214748F2
:1037F00003F0DAFCE069A0B1E069082811D0E069C3
:1038000010280ED0E06918280BD0E069202808D0D5
:10381000E069282805D0E069302802D0E06938281E
:1038200000D103E05E21394803F0BEFC206A10B1EC
:10383000206A802800D103E05F21344803F0B4FC03
:10384000606A10B1606A102800D103E060212F483F
:1038500003F0AAFCA06A18B1A06AB0F5005F00D11D
:1038600003E06121294803F09FFCE06A20B1E06A8F
:10387000B0F5803F00D203E06221244803F094FCBD
:1038800094F8510028B9002084F85000204600F038
:1038900040F8022084F851002068006820F04000C1
:1038A00021680860D4E901010843E16808432169FF
:1038B000084361690843218B01F400710843E16901
:1038C0000843216A0843A16A08432168086004216B
:1038D000A06901EA1040616A0843216848602168D4
:1038E000E06A08612068C06920F400602168C8614E
:1038F00000206065012084F85100002020E70000CE
:103900000030014000380040003C0040588300086F
:103910007047704710B50446042C00D004B904E089
:103920004FF4DF710B4803F03FFC042C08D14FF03B
:10393000E020006940F004004FF0E021086107E05A
:103940004FF0E020006920F004004FF0E021086112
:1039500010BD000038810008704770B50446254648
:10396000681EB0F1807F01D301200FE0681E4FF088
:10397000E02148610F214FF0FF3000F0FFF90020F7
:103980004FF0E021886107200861002070BD10B56C
:10399000FFF7E2FF10BD000010B504460122024906
:1039A000024800F00EF910BD1C0000201C0300208E
:1039B000F8B50446002500262068006800F00105DF
:1039C0002068C06800F4807625B11EB1E06B40F03D
:1039D0000100E06320680068C0F34005206840698A
:1039E00000F0010625B11EB1E06B40F00400E06379
:1039F00020680068C0F3800525B11EB1E06B40F07F
:103A00000200E06320680068C0F3C00525B11EB164
:103A1000E06B40F00800E06320680068C0F34015E8
:103A20002068C06800F020061DB116B1204602F0E3
:103A30003DFE20680068C0F3C0152068C06800F033
:103A400080061DB116B1204603F070F820680068AA
:103A5000C0F380152068C06800F040061DB116B1A3
:103A6000204602F00BFEE06B70B100BF20680068DA
:103A7000009020684068009000BF00BF012084F8DB
:103A800039002046FFF788FFF8BD000010B5044656
:103A90000CB9012010BDA06930B3434920688842A9
:103AA00007D042492068884203D0414920688842B3
:103AB00000D104E04FF483713E4803F075FBA06928
:103AC00058B1A069B0F5807F07D0A069B0F5007F3C
:103AD00003D0A069B0F5407F00D11FE040F207118C
:103AE000344803F061FB19E02F49206888420FD069
:103AF0002E49206888420BD02D492068884207D083
:103B00002D492068884203D02C492068884200D182
:103B100004E040F20B11274803F046FBA06818B1FF
:103B2000A068B0F5805F00D104E040F20D1121489B
:103B300003F03AFBE06918B1E069B0F5004F00D13D
:103B400004E04FF487711B4803F02EFB94F8390012
:103B500028B9002084F83800204600F031F802200F
:103B600084F839002068C06820F400502168C860DB
:103B7000204602F0F9FD2068006920F49040216899
:103B800008612068406920F02A00216848612068A7
:103B9000C06840F400502168C8600020E063012044
:103BA00084F83900002075E70038014000440040E7
:103BB00000480040A8830008004C0040005000402E
:103BC000704730B50346002493F83940012C01D0EA
:103BD000122C37D101B10AB9012030BD00BF93F8D2
:103BE0003800012801D10220F7E7012083F83800CE
:103BF00000BF99629A85DA850020D86393F839006E
:103C0000122803D1322083F8390002E0222083F801
:103C1000390000BF002083F8380000BF1868C06872
:103C200040F480701D68E8601868406940F0010049
:103C30001D6868611868C06840F020001D68E86071
:103C40000020CAE70220C8E710B504460B4800F080
:103C50007CF820B90A4801780848FCF73FFF07487C
:103C60002838406B20B105482838416B012088472F
:103C7000012203490348FFF7A4FF10BD680100209B
:103C80001C0000201C03002030B50346002493F8DC
:103C90003940012C01D0222C2BD101B10AB90120CD
:103CA00030BD00BF93F83800012801D10220F7E7AA
:103CB000012083F8380000BF19629A84DA8400205A
:103CC000D86393F83900222803D1322083F83900D1
:103CD00002E0122083F8390000BF002083F838008A
:103CE00000BF1868C06840F080001D68E8600020D0
:103CF000D6E70220D4E7000010B504460B4800F0D8
:103D00001BF840B90948FCF7DAFE0949087001229E
:103D10000848FFF7B9FF05481C38406B20B103483D
:103D20001C38416B0020884710BD00005C0100205A
:103D30001D0000201C030020014608884A8890428C
:103D400001D1012070470020FCE710B504466188CE
:103D50002046FCF7AAFE2188884201D1012010BD2F
:103D60000020FCE700BFFEE7704700000248006843
:103D7000C0F30220704700000CED00E010B50028F1
:103D800007DA0A07140E054A00F00F031B1FD4546C
:103D900003E00A07130E024A135410BD18ED00E0A9
:103DA00000E400E001200149087070470C00002089
:103DB00001200149087070470000002001200149DE
:103DC000087070470100002010B503481422162126
:103DD000036C0248984710BD887F000880A1031C2F
:103DE000F8B50546002600242548006800F0F000DC
:103DF00058BB23481C30006800F0805018B1FDF714
:103E00007FFB06461AE000BF1D481C30006840F0EA
:103E100080501B491C3108600846006800F0805043
:103E2000009000BF00BFFDF76BFB064614481C3036
:103E3000006820F0805012491C310860B6F5C05F60
:103E400003D1B5F5404F00D1012400BF012C05D1AD
:103E50000C48006840F004000A49086009480068FE
:103E600020F0010020430749086000BF08460068B1
:103E700000F00100A04201D00120F8BD0020FCE7C5
:103E800008380240003C024010B50948FEF782FDA8
:103E90004FF480710648FEF7B3FD01F0D9F800F049
:103EA000F5FE0020FCF7D2FC02F0ACFA10BD0000D9
:103EB000E4020020014600BF080900EB8000420038
:103EC00001F00F001044C0B270470146002203E029
:103ED000521CA1F10A00C1B20A29F9DA100741EA1D
:103EE0001060704770B5044600252068C06800F077
:103EF0004000A0B9681E2168C860FDF72BFA05468E
:103F000007E0FDF727FA401BB0F57A7F01D90320BF
:103F100070BD2068C06800F040000028F1D000208B
:103F2000F6E701460120704702460AB91F20704794
:103F3000002111E00A4850F8310090420AD8084B9D
:103F4000481C53F83000904204D9481C03EBC000D1
:103F50000079ECE7481CC1B21529EBD300BFFEE79E
:103F6000F07F000810B501F097F9032808D0042865
:103F700002D0052806D101E0022010BD0120FCE797
:103F80000320FAE70020F8E71CB504462348046044
:103F9000234801F02FFA002001F09EFD012001F0DE
:103FA00008FD0021084601F057FB0221002001F026
:103FB000D6FD00231A464FF6FF71084601F097FB25
:103FC0001849194802F0CAF91849194802F0C6F907
:103FD00000201849087018A103C9CDE90001082282
:103FE00069464FF4D86001F09DFE002004E00021F6
:103FF0000DF80010411CC8B20828F8DB08226946F9
:104000004FF4D86001F0C6FA002004E000210DF85A
:104010000010411CC8B20828F8DB1CBDC8000020F5
:10402000214200084D420008700500202D42000882
:1040300084050020C5000020C194C10000000000DC
:1040400038B559480078012877D172B60020564912
:10405000087062B601F013F904464FF6FF7001F0E4
:1040600000F904F0010068B1504802F091FA50489C
:10407000006838B14E480068006818B14C490968BA
:104080000868804704F0020002281ED1494802F067
:104090007FFAFF226946484801F066F9474801F077
:1040A0000FF94348006878B141480068806858B10A
:1040B000424890F90D3090F90C203D4800689DF879
:1040C000001085683C48A84700BF04F04000402825
:1040D0000AD13748006838B135480068006918B11E
:1040E000334909680869804704F0800080280CD1B2
:1040F0002F48006848B12E480068806928B12C48D4
:1041000000688169C4F30020884704F40070B0F5AA
:10411000007F25D101F0C0F804280FD1234802F018
:1041200037FA23480068D8B1214800684068B8B120
:104130001F4909684868804712E033E001F0ACF895
:1041400005280DD11B4802F023FA1948006838B140
:1041500017480068C06818B115490968C8688047E1
:1041600004F00400042800D100BF04F0080008286F
:1041700000D100BF04F01000102800D100BF04F0EF
:10418000200020280DD10B4802F002FA08480068F0
:1041900038B107480068C06818B105490968C8689F
:1041A000804700BF38BD0000C5000020700500201A
:1041B000C800002084050020700300205C0300205C
:1041C0002DE9F04707460C4615461E464FF00108FC
:1041D0004FF000094FF0000A384600F0F1F8204691
:1041E00000F0C8F8002000F071F80120FCF7FDFB9A
:1041F00002F0A6F8824608E0384600F062F88146F0
:10420000A94502DD4FF0000804E0504602F09CF89A
:10421000B042F1D300BF00F01DFB4046BDE8F0877F
:104220000120014908707047C500002010B50648FC
:10423000006838B104480068C06818B102490968CC
:10424000C868804710BD0000C800002010B50648AF
:10425000006838B104480068406818B1024909682C
:104260004868804710BD0000C800002070B50025D8
:10427000012000F0A5F8002001F0EAFB00240AE08C
:104280000120FCF7B2FB01F086F800F00100A0402D
:104290000543601CC4B2202CF2DB00F0DBFA284698
:1042A00070BD10B50446204601F06AF910BD70B526
:1042B00004460D46164632462946204601F06AF964
:1042C00070BD10B5044601F066F810BD10B5044687
:1042D00000231A464FF6FF71084601F008FA34B180
:1042E00021460A4802F006F9084802F00DF908488C
:1042F0000078012804D16FF07F4001F0A9FB04E0B1
:1043000004490968880101F0A3FB10BD8405002061
:10431000C4000020C000002070B505460C460023F4
:104320001A4640F20121084601F0E1F901F016F8C1
:10433000012803D10C4880F8D34002E00A4880F8F5
:10434000CC400948C43001F0A5FA00222146284695
:1043500001F076F905480168054802F0CBF80448F9
:1043600002F0D2F870BD000070040020BC000020F4
:104370007005002010B50446204601F021FB10BD59
:1043800070B505460C46012D08D10B4804700B484A
:1043900080F8D340C43001F07DFA0CE0074890F873
:1043A000CB00012807D104480470044880F8CC40B1
:1043B000C43001F06FFA70BDB80000207004002016
:1043C00010B5044614B1012C07D000BF002001F045
:1043D000D1FA00200A49487010E0012001F0CAFA21
:1043E0000748407806490978884206D00448007892
:1043F00003494870487800F005F800BF00BF10BDC1
:10440000C600002010B504460E4804704470012018
:10441000FFF7D6FF012C0AD134214FF4E86001F0F8
:1044200079FC442140F2417001F074FC09E0142150
:104430004FF4E86001F06EFC242140F2417001F07D
:1044400069FC10BDC60000202DE9F04F8FB0074673
:104450000D4614469846DDF874B0DDE9199A1B9EA6
:10446000774921980870012E03D176491C9808706D
:1044700002E0FF207349087017B1012F7ED189E057
:10448000002001F03DFB00206F4981F8EC00084658
:10449000C0F8F0400B2180F8F8102846FFF744FDE3
:1044A0000146694880F8F9100020674981F8C40086
:1044B0004FF6FF7000EAC9016348A0F8C610042156
:1044C00080F8C810182180F8C910002180F8CA109F
:1044D00086F0010180F8CB105A4801785A4880F8DC
:1044E000CC10BBF1010F03D1F22180F8CD1003E015
:1044F0000121554880F8CD100121534880F8CE1095
:1045000000F0B8F9504991F8EC1009B1012100E030
:1045100000210846FFF754FF4B48EC3001F014F936
:104520004948C43001F0B6F948A103C9CDE90C01EE
:104530000CA801F0ECFA40F2FF1001F055FB204608
:10454000FBF7C9FF02460B46CDE9000100204149B7
:10455000FBF741FF0022404BCDE90201FBF7C9FE0A
:10456000CDE906015046FBF7B6FFCDE90401DDE9D0
:104570000623FBF7BEFE0022384B00E05BE0CDE9EE
:104580000801FBF7B6FECDE90A01FBF7B1FF34499C
:10459000086050E0002001F0B3FA0AF0FF0001F0DB
:1045A000CBF80120284981F8EC00084680F8FC404F
:1045B0002C48415D244880F8FD1080F8FE801DB92C
:1045C0000B2C05D00C2C03D0012D06D10C2C04D1C2
:1045D00000211D4880F8FF1003E000211A4880F8F0
:1045E000FF100120184981F8C4000846A0F8D090B7
:1045F00080F8D26013480178134880F8D31080F80F
:10460000D4B0209980F8D510014691F8EC1009B18A
:10461000012100E000210846FFF7D2FE0A48EC30F5
:1046200001F092F80848C43001F034F94FF6FF70F9
:104630000B49086000BF00BF0FB0BDE8F08F00005D
:10464000C4000020B800002070040020C194C10004
:10465000000000000000F03F0000204000408F40BC
:10466000C0000020A080000870B504460D46294611
:10467000204601F003FA70BD2DE9FC5F06460F46A7
:1046800090461C46DDE90FABDDF838900C9D16B165
:10469000012E59D159E00020554981F8EC00084617
:1046A000C0F8F0500B2180F8F8102046FFF73CFCD2
:1046B00001464F4880F8F910C0F8F48000204C49BA
:1046C00081F8C4004FF6FF7000EAC9014848A0F81D
:1046D000C610042180F8C810182180F8C9100021E4
:1046E00080F8CA108AF0010180F8CB10BBF1010FED
:1046F00003D1F22180F8CD1003E001213C4880F87D
:10470000CD1001213A4880F8CE1000F0B3F83849B6
:1047100091F8EC1009B1012100E000210846FFF7F3
:104720004FFE3348EC3001F00FF83148C43001F04F
:10473000B1F830A103C9CDE90001684601F0E7F9FD
:1047400040F2FF1001F050FA48E00120284981F8BA
:10475000EC00084680F8FC502848015D244880F8A9
:10476000FD100D9980F8FE101CB90B2D05D00C2DF5
:1047700003D0012C06D10C2D04D101211C4880F856
:10478000FF1003E000211A4880F8FF1001201849AB
:1047900081F8C4000846A0F8D09080F8D2A018484C
:1047A0000178134880F8D31080F8D4B0139980F8BA
:1047B000D51000F05FF80E4991F8EC1009B1012115
:1047C00000E000210846FFF7FBFD0948EC3000F04F
:1047D000BBFF0748C43001F05DF800BF00BF38469A
:1047E00001F02EF9074914980860BDE8FC9F00000D
:1047F00070040020C194C10000000000A0800008E7
:10480000B8000020BC0000202DE9F05F82460C4675
:104810009146504601F0D4F8204601F011F901F01C
:1048200097F94846FBF757FE07460022074BFBF770
:1048300060FD0546FBF75CFE83465946044801F0DF
:1048400059FE034801F060FEBDE8F09F00408F4034
:104850008405002008B5002000909DF8000020F09D
:104860000400001D0090009801F028F90220FCF7D8
:10487000BCF808BD10B5002001F02EF910BD10B530
:1048800000F0F8FE10BD00002DE9F34F91B00020BC
:104890001090119810B1012859D159E08249D1F8EE
:1048A000F000FBF718FECDE90A011298FBF713FEA2
:1048B000CDE908017C49B1F8C62091F8C91002EB96
:1048C000E100FBF7F7FDCDE90401774890F8CB0054
:1048D00010B90020034601E00020744B0246CDE9E8
:1048E0000203DDE90401FBF75DFCCDE90601DDE92A
:1048F0000823FBF757FC82468B466B4890F8CD00A7
:10490000022803D100204FF0804301E0002003463D
:104910000246CDE9080350465946FBF743FC804662
:104920000022634BFBF7E5FC0646DDE90A23FBF7B3
:1049300052FD00225F4BCDE90C01FBF7DAFC044687
:1049400003F092FACDE90E01FBF7D2FD1090A5E03D
:10495000554890F8FD00001F00EB4000564901EB60
:104960000011514890F8FC00C0F10C0001EBC000B0
:1049700003C8CDE90E014C49B1F8D000FBF7ABFDFF
:10498000044600224D4BFBF70DFC0646DDE90E23E5
:10499000FBF7AFFCCDE90C01434991F8FE10CA17B3
:1049A000059101EB92718A100599A1EB8201081D16
:1049B000FBF780FDCDE902013B4991F8FC2091F81D
:1049C000FF10002901DD022100E00021511A8800BA
:1049D000FBF770FD804689461299CA00324991F86A
:1049E000FC10042303FB11221C322F4991F8D41030
:1049F000102303FB01222C4991F8D210012901D187
:104A0000142100E00021501AFBF754FD42464B46AA
:104A1000CDE90001FBF7DFFC064602F0E7FB0446A8
:104A2000DDE90223FBF765FC82468B460022134634
:104A300050465946FBF776FD02D25046594601E0F2
:104A400000200146044622460B4600201849FBF789
:104A5000A9FBCDE90A01DDE90E23DDE90A01FBF737
:104A600048FCCDE90801DDE90823DDE90C01FBF78D
:104A700099FBCDE9060100220E4BDDE90601FBF7AB
:104A800038FC04460E4A0F4BFBF78CFB064602F03F
:104A90001BFC8046FBF72CFD109000BF00BF109858
:104AA00013B0BDE8F08F0000700400200000F03F5C
:104AB0000000204000408F402800002000001140EE
:104AC0002B8716D9CEF7EF3F70B504460D46294621
:104AD000204601F01FF970BD70B504460D4616461C
:104AE00032462946204601F01DF970BD70B50446D6
:104AF00000250CB9002070BD002000F0F3F8054639
:104B0000284600F08FF90546A54203D2C4F1FF30D4
:104B10002844F0E7281BEEE70FB42DE9F04F87B0EB
:104B200083468946182212A901A8FBF717FB002427
:104B3000A24612A8867947799DF84C809DF84A5084
:104B40004C46008940F2FF71081A1FFA80FAC4F33C
:104B50000A0050441FFA80FAE40A03E04848241A85
:104B6000681C85B246488442F8D205E0A4F5616429
:104B700008F101001FFA80F8B4F5616FF6D202E087
:104B80003C3C781C87B23C2CFAD2301986B205E046
:104B9000AAF500601FFA80FA701C86B2BAF5006FA1
:104BA000F6DA04E0A6F13C0086B2781C87B23C2E0F
:104BB000F8DA06E0A7F13C0087B208F101001FFA1D
:104BC00080F83C2FF6DA05E0A8F118001FFA80F80B
:104BD000681C85B2B8F1180FF6DA9DF84B1041B198
:104BE0009DF84B00C11700EB91718910A0EB81017A
:104BF000B1B99DF84900401E2249085CA84225DA57
:104C00009DF84900401E085C95FBF0F100FB115037
:104C100085B29DF80500401CC0B28DF8050015E076
:104C20009DF84900401E1849085CA8420EDA9DF81C
:104C30004900401E085C95FBF0F100FB115085B265
:104C40009DF80500401CC0B28DF8050040F2FF70D1
:104C5000A0EB0A0103918DF80A608DF8097008F045
:104C6000FF008DF80800E8B28DF80600182201A9AF
:104C70005846FBF773FA07B0BDE8F00F5DF814FB78
:104C800080510100587F00084C7F000830B597B074
:104C90000024002510480078E0B901A800F02AF9A6
:104CA000182201A907A8FBF759FA00234FF48072D4
:104CB0000DA90A48FDF72CFF40F2FF710E980C1A5F
:104CC00009980D1A281B00F0ADF80549086001206D
:104CD0000149087017B030BD14000020E402002024
:104CE0001800002070B58CB0054600BF002445B9FF
:104CF000684600F0FFF81822694606A8FBF72EFA6E
:104D000004E01822294606A8FBF728FA00200EE046
:104D100030B1C21700EB92729210A0EB820212B96E
:104D20002C490C4401E02C490C44411C08B29DF86C
:104D30001B108142ECDC9DF81B1041B19DF81B005B
:104D4000C11700EB91718910A0EB810181B900209E
:104D500008E02249095C40F2A322514304EBC1144C
:104D6000411CC8B29DF81910491E8142F1DC0FE0C8
:104D7000002008E01A49095C40F2A322514304EBE9
:104D8000C114411CC8B29DF81910491E8142F1DCC2
:104D90009DF81E109DF81D00C0EB001001EB800077
:104DA0009DF81C10C1EB4112C2EB012100EB011177
:104DB0009DF81A0040F2A322504301EBC0100444B6
:104DC00040F2FF710898081A00EBC42630460CB078
:104DD00070BD00000085E2018033E101587F0008CA
:104DE0004C7F00082DE9F14F00BF0098FBF773FBE3
:104DF00080460022094BFBF77CFA06460022084B4E
:104E0000FBF7E9FA044603F031F882468B46504638
:104E10005946FBF76DFBBDE8F88F000000007040BD
:104E200000405F402DE9F14F00BF0098FBF753FBB6
:104E300080460022094BFBF75CFA06460022084B2D
:104E4000FBF7C9FA044603F011F882468B46504638
:104E50005946FBF74DFBBDE8F88F000000405F406E
:104E60000000704010B50D480078A8B90C480078D3
:104E7000012811D1FBF7F6FCFCF74AFB0948006852
:104E800040F0040007490860FCF72EFBFCF720FB0C
:104E900001210846FCF748FB10BD0000120000206D
:104EA00011000020007000400F490968884209D9AC
:104EB0000E490978012905D100210C4A11700A49CF
:104EC0000968401A0849096888420BD9322803D278
:104ED0000021074A117005E00121054A11700249BD
:104EE0000968401A704700001800002010000020D8
:104EF0001100002070B586B005460026002400226F
:104F000001A91048FDF7A2FE029E002201A90D484A
:104F1000FDF79CFE029C06E02646002201A90948F6
:104F2000FDF794FE029CA642F6D100226946054890
:104F3000FDF758FE182269462846FBF70FF906B020
:104F400070BD0000E402002070B50026002400259A
:104F50000020FFF7C7FE04460748FFF7C3FE0546DB
:104F6000AC4203D2C5F1FF30061900E0661B3046A3
:104F7000FFF758FF70BD0000CC02002010B50024E0
:104F80000020FFF7AFFE04462046FFF74BFF204608
:104F9000FFF748FF10BD000000B587B02848007833
:104FA00000284BD10120810591FAA1F1B1FA81F1DC
:104FB000244A02EB8101C1F8800623482349086096
:104FC000002048600F212148816040F2FF71C160DC
:104FD0000021016141618161FDF776FE00208DF8BD
:104FE000070001208DF805008DF8060006208DF8D9
:104FF0000400002201A91548FEF75AF900208DF897
:10500000080000218DF809108DF80A1004918DF820
:105010000B1005910691002202A90C48FEF730FA08
:105020000A48FDF78EFC002201212920FCF7DAF95D
:105030002920FCF7BFF901200149087007B000BD25
:10504000130000200000474200280040E402002036
:1050500010B50E48406800F0010030B10B48006800
:1050600040F004000949086002E001200849087086
:105070000848006800F00C00042804D005480068C7
:1050800000F00C0008B9FBF70DFC10BD00700040EB
:10509000100000200838024070B504462046FFF793
:1050A000A1FE054600F002F870BD000010B5A0B0EA
:1050B00004464FF480712648FDF7A2FC032C00D86B
:1050C000032404A8FFF716FF182204A91AA8FBF767
:1050D00045F818221AA91F48FBF740F81CA80FC86A
:1050E0008DE80F00214604A8DDE91A23FFF714FD1F
:1050F000182204A914A8FBF731F84FF4807013901C
:10510000002011900F904FF07060109000208DF8EB
:105110002B0016980B9014A880798DF82A0014A8FB
:1051200040798DF829009DF854008DF828009DF8ED
:1051300052008DF8480000220AA90548FDF772FECA
:1051400020B140F2AB1104A002F02EF820B010BD47
:10515000E4020020CC0200202E2E5C2E2E5C2E2E8F
:105160005C7372635C626F617264735C4E75636CD6
:10517000656F4C3135325C7274632D626F6172649D
:105180002E6300001CB50020009003460122092177
:1051900001900248FBF7B8FC1CBD0000040300208E
:1051A0001CB501200090002302460921019002480D
:1051B000FBF7AAFC1CBD00000403002038B5044620
:1051C0001B48844206D9E1208DF80000E9208DF8C3
:1051D000010026E01748844206D9D7208DF8000048
:1051E000D8208DF801001CE01348844206D9C12064
:1051F0008DF80000C5208DF8010012E00F488442B0
:1052000006D975208DF8000081208DF8010008E096
:105210000B48844205D96B208DF800006F208DF873
:10522000010002226946982000F04CFD38BD0000C4
:1052300000E9A43580F8A9328044E52D000B6B1BF2
:1052400040FC541910B500F027F818B100F024F80C
:10525000062803D100F0F0FCFFF7A2FF00F0E2FC0B
:1052600010BD38B50446200A8DF80000E0B28DF874
:10527000010002226946104600F024FD38BD08B541
:1052800002226946122000F04FF99DF801009DF8B6
:10529000001040EA012008BD014800787047000076
:1052A000CC00002010B504460448FBF7EFFD0128B0
:1052B00001D1022010BD0220FCE7000010030020F5
:1052C00038B5044603226946142000F02DF900F099
:1052D00045F82070207820B1012814D00F2831D152
:1052E00031E09DF8000020719DF80100404240101F
:1052F00041B2A1719DF802004042401041B261717B
:105300000021A16026E09DF800004042401041B21B
:1053100021739DF80100802804DA9DF801008110B6
:10532000617305E09DF80100A0F580708110617344
:105330009DF802004042401041B2A1730648016846
:10534000216107E000BF14212046FAF720FF0F205B
:10535000207000BF00BF38BDD00000200148007899
:1053600070470000CD000020F8B505460C461646F3
:10537000002000906946204600F01BF82078B042DB
:1053800001DD0120F8BD227829469DF8000000F0DB
:105390009BF80020F6E738B5002401226946152065
:1053A00000F0C2F89DF800004042401044B2204690
:1053B00038BD38B504460D4602226946132000F078
:1053C000B3F8FFF7CBFF01280DD140F2047000F0D5
:1053D000D7F80121B1EBE01F05D140F2027000F0D7
:1053E000CFF8207002E09DF8000020709DF80100C9
:1053F000287038BD10B5044600F002F9204600F0D0
:1054000057F800F019FC002000F066FB012000F0C6
:1054100067F910BD1CB5012000900023024616213B
:1054200001900C48FBF770FB00200090034603221C
:105430000A2101900748AC38FBF766FB002000907A
:1054400003460322132101900248A038FBF75CFBBE
:105450001CBD0000280500201CB501200090002381
:105460000246162101901048FBF74EFB00200090E9
:10547000034602460A2101900B48AC38FBF744FB77
:105480000020009003460246132101900648A038F0
:10549000FBF73AFB002000900346024604210190EE
:1054A0000248FBF731FB1CBD28050020100300203B
:1054B00010B504462346032201210248FBF7F4FC01
:1054C00010BD0000880400202DE9F04105460E467D
:1054D0001746FFF7B7FE00211248FBF7F9FC1E2123
:1054E00010487C3800F0C2FC29460E487C3800F099
:1054F000BDFC00210B487C3800F0B8FC002407E01C
:10550000002108487C3800F0B1FC3055601C84B2A2
:10551000BC42F5DB01210348FBF7DAFC00F082FB1B
:10552000BDE8F081280500202DE9F04105460E4632
:105530001746FFF787FE00211048FBF7C9FC2946F4
:105540000E487C3800F092FC00210C487C3800F0BA
:105550008DFC002407E0002108487C3800F086FC20
:105560003055601C84B2BC42F5DB01210348FBF7D7
:10557000AFFC00F057FBBDE8F081000028050020DB
:1055800038B5044601226946204600F003F89DF82C
:10559000000038BD2DE9F04104460E461746FFF7DE
:1055A00051FE00211548FBF793FC1D2113487C3860
:1055B00000F05CFC210A11487C3800F057FCE1B295
:1055C0000E487C3800F052FC00210C487C3800F07A
:1055D0004DFC002507E0002108487C3800F046FC1F
:1055E0007055681C85B2BD42F5DB01210348FBF70D
:1055F0006FFC00F017FBBDE8F081000028050020DB
:105600001CB50A20FBF7F1F90020009003460122A7
:10561000014601900948FBF777FA1420FBF7E5F9FA
:10562000012000210B460246CDE900100348FBF79C
:105630006BFA0A20FBF7D9F91CBD000070040020AA
:1056400070B505460E4614463146284600F0A8F9C6
:10565000204600F067FA70BD38B505460C468DF857
:1056600000508DF80140022269468F2000F02AFB8D
:1056700038BD000010B500221146C52000F022FB05
:1056800007200149087010BDCC00002038B5044641
:10569000200A8DF80000E0B28DF80100FFF75EFEF1
:1056A00030B90222694640F2BE6000F03BFB00E0E8
:1056B00000BF00BF38BD38B50446200A8DF8000091
:1056C000E0B28DF80100FFF749FE30B902226946C9
:1056D00040F2BC6000F026FB00E000BF00BF38BD18
:1056E00001B5012269469D2000F0ECFA08BD2DE9C4
:1056F000FC4107460C4615461E46380A8DF8000048
:10570000F8B28DF80100200A8DF80200E0B28DF8A1
:105710000300280A8DF80400E8B28DF80500300A6D
:105720008DF80600F0B28DF8070008226946104691
:1057300000F0C8FABDE8FC8101B501226946A0204D
:1057400000F0C0FA08BD00002DE9F04786B004461D
:105750004FF0000900200490059020783F49097817
:10576000884202D0207800F005F9207820B1012885
:1057700059D00F286BD16BE04FF0080A6068FAF738
:10578000AAFE07463A460B4600203549FAF723FEA3
:1057900005460022334BFAF7ACFDCDE90201FAF7DA
:1057A000A7FE81464FEA19408DF810004FEA1920F4
:1057B0008DF8110009F0FF008DF81200207B8DF8A4
:1057C0001300607B8DF814000022274B10469903CC
:1057D00001F05EFE05462A460B4600202049FAF7F6
:1057E000FAFD07468846A068FAF775FE3A46434632
:1057F000CDE90001FAF7EFFDCDE90201FAF778FEF5
:1058000081464FEA19408DF815004FEA19208DF8AE
:10581000160009F0FF008DF81700524604A98B20EE
:1058200000F050FA17E04FF0040A207C8DF81000C9
:10583000607C8DF81100A07C8DF81200E07C8DF862
:105840001300524604A98B2000F03CFA03E000BF8D
:1058500006B0BDE8F08700BF00BFF9E7CD0000202B
:1058600080847E410000404000003940F8B5044685
:105870000D4616461F468DF800408DF801508DF8F4
:1058800002608DF8037004226946952000F01AFA30
:10589000F8BD0000FEB504460026002000900190EF
:1058A0000290207832490978884202D0207800F0AE
:1058B00061F8207820B101283AD00F284DD14DE071
:1058C000607AF12809D14FF6FF70FFF7F4FE48F235
:1058D0000500FFF7DBFE02260DE0607AF22809D111
:1058E00041F60F50FFF7E7FE41F22100FFF7CEFE31
:1058F000062600E0667A09256088000A8DF8000017
:10590000A0788DF8010020798DF8020060798DF87B
:105910000300A0798DF80400E0798DF80500207A65
:105920008DF806008DF80760A07A8DF8080016E063
:105930000625A089000A8DF80000207B8DF8010063
:10594000A07B8DF80200E07B8DF80300207C8DF8B1
:105950000400607C8DF8050001E000BFFEBD00BFC3
:105960002A4669468C2000F0ADF900BFF6E700003A
:10597000CD00002001B59DF80000084908709DF891
:10598000000020B9002140F2AC6000F0C3F9012210
:1059900069468A2000F096F908BD0000CD0000207D
:1059A00070B504460D462A462146002000F060F9F5
:1059B00070BD01B501226946962000F083F908BD4B
:1059C0002DE9FE4F83464FF0000A5846FFF7F6FBDD
:1059D0000022194B1046990301F05AFD02460B466E
:1059E000CDE9000100201549FAF7F5FC06460F46FF
:1059F0005846FAF770FD804632463B46FAF7EBFC14
:105A00000446FAF775FD82464FEA1A608DF80800E1
:105A10004FEA1A408DF809004FEA1A208DF80A0063
:105A20000AF0FF008DF80B00042202A9862000F086
:105A300049F9BDE8FE8F00000000394080847E41B6
:105A400010B504460221204600F089F810BD000080
:105A500038B50446052008490870200C8DF8000070
:105A6000200A8DF80100E0B28DF802000322694699
:105A7000822000F027F938BDCC0000207CB5054617
:105A80000C46280C8DF80000280A8DF80100E8B2B9
:105A90008DF80200200C8DF80300200A8DF8040018
:105AA000E0B28DF8050006226946942000F00AF95C
:105AB0000620014908707CBDCC00002001B5FFF72D
:105AC00061FB01226946842000F0FCF800200149B6
:105AD000087008BDCC00002001B501226946802075
