:020000040800F2
:10000000081D002039010008B1450008430100081F
:1000100039450008070E0008A19300080000000001
:100020000000000000000000000000004B0100087C
:10003000910E0008000000004F010008118900081F
:100040005301000853010008530100085301000840
:1000500053010008530100089B0E0008E50E00083C
:10006000F50E0008050F0008150F000853010008E1
:100070005301000853010008530100085301000810
:100080005301000853010008530100085301000800
:10009000530100085301000853010008250F000810
:1000A00053010008530100085301000853010008E0
:1000B00053010008530100085301000853010008D0
:1000C00053010008530100085301000853010008C0
:1000D000530100085301000859910008530100081A
:1000E000AB0E0008DD58000853010008530100085A
:1000F00053010008000000005301000853010008EC
:10010000530100085301000853010008530100087F
:1001100053010008530100085301000800000000CB
:1001200053010008DFF80CD000F00CFC0048004739
:10013000B19C0008081D002006488047064800477B
:10014000FEE7FEE7FEE7FEE7FEE7FEE7FEE7FEE787
:10015000FEE7FEE7C98A00082501000840EA01031E
:100160009B0703D009E008C9121F08C0042AFAD26D
:1001700003E011F8013B00F8013B521EF9D2704731
:10018000D2B201E000F8012B491EFBD270470022D9
:10019000F6E710B513460A4604461946FFF7F0FF86
:1001A000204610BDF0B480EA0102D40F4200B2EB49
:1001B000410F02D20246084611464A0042D0C30D02
:1001C000DDB2C1F3C752AD1A202D35DAC1F31601E5
:1001D00041F4000204B15242C5F1200602FA06F1D0
:1001E0002A411044B3EBD05F23D0C4B1012DA0EB62
:1001F000C35009DCF0BC4FF0004202EAC352DBB24C
:1002000000F5000000F0B7BA400000F1807000EB8C
:10021000C350A0F1807040EAD170490009E049085C
:1002200041EAC071A0EBC35000F50000400800EBAC
:10023000C350F0BC00F096BA6142012202EB4101CA
:10024000001BF6E7F0BC704781F00041AAE780F0A0
:100250000040A7E72DE9FE4F804681EA0300C00F6A
:100260000C46009021F0004123F00045B8EB02005D
:10027000A94105D24046214690461C460B460246FF
:1002800023F00040104347D0270DC7F30A00C3F303
:100290000A510290401A019040286BDAC3F3130010
:1002A00040F4801B0098924620B10023D2EB030A51
:1002B00063EB0B0B01985946C0F14002504600F029
:1002C00020FA06460D4650465946019A00F038FA83
:1002D00010EB08006141002487EA115284EAE773B9
:1002E0001A4340D0009A62B3019A012A4FEA07529A
:1002F00015DC001B61EB02014FF0004202EA0752DD
:10030000CDE90042001C41F5801132462B4600F039
:100310006FFA03B0BDE8F08F40462146F9E7001BB5
:1003200061EB0201001C41F5801300185B412018AD
:10033000A2F5001747EB030140EAD570B6196D41ED
:1003400011E06D084FEA360645EAC0754FEA0752DC
:10035000001B61EB0201001C41F5801149084FEAC6
:1003600030000019514132462B4603B0BDE8F04F32
:1003700000F02FBA0098012240000023D0EB0202C7
:1003800063EBE073009821464FEAE074B8EB00009D
:1003900061EB0401E9E783F000435BE781F0004192
:1003A00058E72DE9FE4F81EA030404F0004421F0F0
:1003B000004100944FF0000B23F0004350EA010489
:1003C0005ED052EA03045BD0C3F30A54C1F30A556A
:1003D0002C44A4F2F3340194A0FB0254C1F31301A2
:1003E00041F48011C3F3130343F4801301FB02446F
:1003F00000FB034E840A970A44EA815447EA835774
:10040000A4FB076802958D0A05FB07854FEA932C2C
:1004100004FB0C542705029D4FEA065847EA16379D
:10042000B5EB08056EEB070C870E920E47EA8117B5
:1004300042EA8312A7FB0201B6EB0B0164EB000456
:100440002B0D43EA0C335E1844EB1C50DA46514640
:10045000E7FB0201C5F313044FEA0B3343EA1453DD
:100460004FEA0432019C43EA0603A4F10C0402940F
:10047000009CCDE900B400F0BBF903B0BDE8F08FFB
:1004800000200146F9E72DE9F04D81EA030404F06C
:10049000004B21F0004514464FF0000A23F00041C4
:1004A00050EA050220D054EA01021DD0C5F30A57D4
:1004B0000246C5F31303C1F31300C1F30A5640F417
:1004C000801543F48013A7EB0608101BD64608F2EC
:1004D000FD3873EB050002D308F1010801E0921822
:1004E0005B41B8F1000F03DA00200146BDE8F08D52
:1004F00000204FF48011064684460EE0171B73EB74
:10050000050705D3121B63EB050306434CEA010CF8
:1005100049084FEA300092185B4150EA0107EDD1DB
:1005200052EA030012D082EA040083EA050108437C
:1005300005D0101BAB4106D20122002306E00022A9
:100540004FF0004302E06FF0010253101AEB060077
:100550004CEB085110EB0A0041EB0B01BDE8F04DEC
:1005600000F037B970B521F0004303430CD0C1F35C
:100570000A550024D5EB040564EB0403D617AD1A25
:10058000B34102DB0020014670BD201841EB02514F
:1005900070BD96230022114600F0EDB80EB5C10FD4
:1005A00080EAE0700844CA07002140F233438DE836
:1005B0000E000A460B4600F01BF903B000BD0EB555
:1005C00040F2334102910021CDE900110A460B4669
:1005D00000F00EF903B000BD70B5C1F30A5201F08E
:1005E00000450024C1F3130140F2FF3341F48011B0
:1005F0009A4201DA002070BD40F233439A42A2F2DF
:10060000334203DC524200F08BF800E090402C4370
:10061000F1D0404270BDC1F30A5210B5C1F31301CD
:1006200040F2FF3341F480119A4201DA002010BDFC
:1006300040F233439A42A2F2334203DC524200F0CA
:100640006FF810BD904010BD00F0004230F0004047
:100650000AD0C10D01F56071C0F3160042EA0151E4
:10066000C208400711437047002001467047000050
:1006700030B5041E71F1000404DB4FF00044404229
:1006800064EB0101141E73F1000405DB1C464FF0FE
:100690000043524263EB0403994208BF904230BDCD
:1006A0002DE9F05F0546002092469B4688460646A7
:1006B000814640241BE0284641464746224600F03A
:1006C0002FF853465A46C01A914110D31146184686
:1006D000224600F016F82D1A67EB01084F46224615
:1006E0000120002100F00DF817EB00094E41201EFB
:1006F000A4F10104DFDC484631462A464346BDE802
:10070000F09F202A04DB203A00FA02F10020704713
:100710009140C2F1200320FA03F31943904070473F
:10072000202A04DB203A21FA02F00021704721FA46
:1007300002F3D040C2F120029140084319467047AD
:10074000202A06DBCB17203A41FA02F043EAE07395
:1007500006E041FA02F3D040C2F120029140084382
:10076000194670470029A8BF7047401C490008BFC0
:1007700020F00100704710B4B0FA80FC00FA0CF0D1
:1007800050EA010404BF10BC704749B1CCF1200409
:1007900021FA04F411FA0CF118BF01212143084396
:1007A000A3EB0C01CB1D4FEA00614FEA102042BFC2
:1007B000002010BC704700EBC35010440029A4BFB8
:1007C00010BC7047401C490008BF20F0010010BC5D
:1007D000704710B5141E73F1000408DA401C41F193
:1007E000000192185B411A4301D120F0010010BDB5
:1007F0002DE9F04D92469B4611B1B1FA81F202E02B
:10080000B0FA80F220329046FFF77BFF04460F4695
:1008100040EA0A0041EA0B0153465A46084313D006
:10082000114653EA010019D0C8F140025046FFF7C3
:1008300077FF05460E46504659464246FFF761FF90
:10084000084305D0012004E020463946BDE8F08D7C
:100850000020054346EAE0762C4337430A986305B7
:10086000E40AA0EB08000022FD0A44EA47540A30DB
:1008700002D500200146E9E7010510196941DDE9CB
:10088000084500196941BDE8F04DA2E72DE9F041A6
:10089000054621F000400C46284309D0C4F30A5015
:1008A00040F23341884205DD28462146BDE8F0810B
:1008B0002846FBE740F2FE31884210DC0CDB4FEAB1
:1008C000043040EA155050EA053105D0104804F0D4
:1008D000004101430020E9E700200146E6E7A0F2DD
:1008E00033404642C6F1400228462146FFF709FF41
:1008F00007468846284621463246FFF711FF434601
:100900003A46FFF766FF3246BDE8F041FFF7F9BE11
:100910000000F03F30B5041E71F1000404DB4FF01D
:100920000044404264EB0101141E73F1000405DB36
:100930001C464FF00043524263EB04038B4208BF56
:10094000824230BD064C074D06E0E06840F00103EE
:1009500094E8070098471034AC42F6D3FFF7E6FB63
:10096000A0AA0008C0AA000870B58C1810F8015B96
:1009700015F0070301D110F8013B2A1106D110F838
:10098000012B03E010F8016B01F8016B5B1EF9D13C
:100990002B0705D40023521E0DD401F8013BFAE7C2
:1009A00010F8013BCB1A921C03E013F8015B01F82D
:1009B000015B521EF9D5A142D8D3002070BD70B59D
:1009C00088B00C46054610220021684609F07CFAE2
:1009D00069462246084608F05CFF9DF800006A461A
:1009E00000064FF000000FD51318115C5B7849002A
:1009F00041EAD3111154401C0F28F5DB9DF80F007C
:100A0000400080F087000CE01318115C5B7849000F
:100A100041EAD3111154401C0F28F5DB9DF80F005B
:100A200040008DF80F00D4F81401102815D09DF85F
:100A300000004FF0000100061BD55318505C5B7896
:100A4000400040EAD3105054491C0F29F5DB9DF8B3
:100A50000F00400080F0870018E000202118165C8D
:100A600091F80131401C734081F801311028F5DB09
:100A700029E05318505C5B78400040EAD310505492
:100A8000491C0F29F5DB9DF80F0040008DF80F0081
:100A9000D4F8143104F2011180205854002300E0EE
:100AA0004354D4F81401401CC4F814011028F7D39F
:100AB00000202118165C91F80131401C734081F828
:100AC00001311028F5DB00202118401C11F8F12F0E
:100AD0000B7C5A400A701028F6DB102204F1F10159
:100AE00004A809F0DDF92246294604A808F0D1FE41
:100AF00010220021684609F0E7F908B070BD10B572
:100B0000044610220021F13009F0DEF900200146F0
:100B1000C4F814012046BDE81040F02209F0D4B911
:100B20000B4602461021184608F0DABE2DE9FF47B1
:100B30000546D0F814010E46144605F2011805F1D9
:100B4000F10918B3C0F11007A74200D31746BAB293
:100B50004044314609F0A4F9D5F814013844C5F8E9
:100B60001401102837D3BC4235D000202918401C6E
:100B700011F8F12F0B7C5A400A701028F6DB494619
:100B80002A46084608F085FE3E44E41B1AE000228F
:100B9000A818B35C10F8F11F521C59400170102ABC
:100BA000F6DB10224946684609F07AF969462A467A
:100BB000084608F06EFE10226946484609F070F9B2
:100BC000103C1036102CE2D8A2B23146404609F053
:100BD00067F9C5F81441BDE8FF8700002DE9F0472B
:100BE000284C9246A046627A0546C2F18002D6B2EF
:100BF00098F8082098F80980531CC8F18008012053
:100C0000A5F1020C204F08F0FF08DBB2A8F10109A2
:100C1000BCF1090F34D2DFE80CF02D232D1117237E
:100C2000262D3000BD54F9545B1C05E00020012145
:100C3000E171BDE8F087BD542372F7E74A45F8DA61
:100C4000BD54F9545B1C11E0B61EB242F1DABD543A
:100C5000F9545B1CD8B207F800A0401C2072E5E7ED
:100C60004A45DFDBE5E7B242E3D2BD54237207F029
:100C70004BFCDBE7B242DED3DBE7B242E0D3D8E79E
:100C80000220D6E7700000201E0F002010B50400DF
:100C900001D006F0EFFC0148847010BD5400002024
:100CA00010B5034807F086FCBDE8104006F0BABE58
:100CB0007018002072B60248C178491CC170704794
:100CC000500000200449C878401E10F0FF00C87092
:100CD00000D162B67047000050000020002070472D
:100CE0000349F1E934025040496948407047000027
:100CF0000000F81FFEB53E4D0126287830B307F0FE
:100D00007FFE4FF0FF310520CDE9000106230722C9
:100D10000021384807F068FD06F0A4FE2878002876
:100D200064D12E7000F050F901285FD1A878002816
:100D30005CD13149314807F0F3FE4FF47A712F4806
:100D400007F086FF2D4807F08BFF4CE000F09AFC7F
:100D500000242A4800942346012221215C38019472
:100D600000F03CF92548009400230122202150384E
:100D7000019400F033F92148002300941A462D21F4
:100D80004438019400F02AF907F0CAFD1B494FF4DA
:100D9000806714316E703A46A1F1300000F0D8F847
:100DA00017493A46A1F2244000F0D2F81348032331
:100DB00002220121383808F0F2F910480094019419
:100DC00000234FF4E13202213838029408F0DEF9B2
:100DD00006F0FCFB00F07EFA00F08CFA00F082FADC
:100DE0008FE707F009FFA8780028FAD0FEBD0000C1
:100DF0005000002070180020314600086C030020CD
:100E0000800700207047FEE72DE9FF5F002692462D
:100E1000B046354637460024019830F817100120B7
:100E2000A040014223D005EB040909EB49005AF820
:100E30002010E1B10AEB800B9BF90800021140F38E
:100E40000301009840B205F02AFD80B19BF809101B
:100E5000039800EB0110C06820B108F1010000F018
:100E6000FF0804E00E9901F80690761CF6B2641CA7
:100E7000E4B2102CD0D310357F1CEDB2FFB2482D58
:100E8000C9D30F99304681F8008004B0BDE8F09FC7
:100E90007047AFF3008000F035BA10B506F0EAFBFA
:100EA000BDE81040012000F04BBA10B506F0E2FB9F
:100EB0004FF4806000F044FA4FF4006000F040FA14
:100EC0004FF4805000F03CFA4FF4005000F038FA34
:100ED0004FF4804000F034FABDE810404FF4004079
:100EE00000F02EBA10B506F0C5FBBDE81040022098
:100EF00000F026BA10B506F0BDFBBDE81040042096
:100F000000F01EBA10B506F0B5FBBDE81040082091
:100F100000F016BA10B506F0ADFBBDE81040102089
:100F200000F00EBA10B506F0A5FB202000F008FA7C
:100F3000402000F005FA802000F002FA4FF48070A3
:100F400000F0FEF9BDE810404FF4007000F0F8B971
:100F50000023038043804160028170470089491C5F
:100F6000B1FBF0F200FB121080B2704770B504467E
:100F70000188FFF7F3FF61680D5C21882046FFF7C9
:100F8000EDFF2080284670BD70B50D4604464188AF
:100F9000FFF7E4FF608061680D5470BD094951F8A6
:100FA000200000F57760B0F5783006D000F5776066
:100FB000B0F5783F03D00020704701207047022031
:100FC000704700002CA300080348407808B10020B7
:100FD0007047012070470000500000207CB5DDE91B
:100FE0000645CDE9004500F001F87CBDF0B587B0BD
:100FF0000446DDE90C6570296EDA2170481C6BD05F
:1010000001F00F0C012707FA0CF06080334811F053
:10101000F00F22D0C1F30311012928D0022930D0CA
:10102000032938D02E496160016841F02001016038
:10103000006800F02000059060880090A6720220F1
:10104000CDE902608AB3032A32D0022A33D0012BC1
:1010500037D00197012A37D03AE022496160016810
:1010600041F001010160006800F00100E3E71E4962
:101070006160016841F002010160006800F0020057
:10108000D9E71A496160016841F004010160006814
:1010900000F00400CFE716496160016841F00801E3
:1010A0000160006800F00800C5E7FFE7002000E0ED
:1010B000032001900CE0012B00D112200495019037
:1010C00006E011200190C5E72946204600F0C8F847
:1010D0006946606800F040F907B0F0BD1C38024076
:1010E00000140240000002400004024000080240D8
:1010F000000C024010B5044690F9000070280FDA89
:1011000024B94FF4997107A008F068FC94F9000025
:10111000401C06D061886068BDE8104000F07ABAD3
:10112000002010BD2E2E5C2E2E5C2E2E5C2E2E5CF2
:101130007372635C626F617264735C4E75636C653D
:101140006F4C3135325C6770696F2D626F6172640C
:101150002E6300002DE9F041054690F9000086B0AD
:101160001F469046702870DA00260624002F6CD0A7
:1011700068880090012916D0022916D034480190C1
:10118000A87A0290022003906946686800F0E4F8AB
:101190005FEA08000BD0012809D0022809D0B8F175
:1011A000030F09D107E02B48E9E72B48E7E70326BF
:1011B00002E0022600E001266888B0F5807F33D087
:1011C00012DC10282ED008DC012830D0022823D0D1
:1011D000042823D008282AD122E0202824D040281F
:1011E00022D0802823D11FE0B0F5805F1ED009DC1B
:1011F000B0F5007F18D0B0F5806F17D0B0F5006F54
:1012000015D113E0B0F5005F10D0B0F5804F0DD0D0
:10121000B0F5004F0BD109E0072408E0082406E0F0
:10122000092404E00A2402E0172400E02824287896
:101230000A4900F00F00002241F820703146204694
:1012400000F056FA204600F03FFA06B0BDE8F08103
:10125000000031100000111000002110800B002050
:1012600070B5044690F900000D46702812DA0CB1F2
:10127000606820B940F2011107A008F0AFFB94F9B3
:101280000000401C06D0EAB261886068BDE870408A
:1012900000F0D0B970BD00002E2E5C2E2E5C2E2EDC
:1012A0005C2E2E5C7372635C626F617264735C4E61
:1012B00075636C656F4C3135325C6770696F2D6298
:1012C0006F6172642E630000FFF714BFFFF742BF27
:1012D000FFF7C6BF0248416841F001014160704715
:1012E000002004E00248416841F004014160704779
:1012F000002004E00248416841F00201416070476B
:10130000002004E031B500F0AFF9044600F0ACF97C
:101310000099001B8842F9D338BD0000002118B99C
:1013200004E04008491CC9B20128FAD1034850F82A
:101330002100002800D0004770470000800B0020EB
:10134000044910B50A68024202D00860FFF7E6FFC0
:1013500010BD0000140401402DE9F84FDFF86CB215
:1013600000260D460446584518D09948844215D0A9
:101370009848844212D0984884420FD097488442BB
:101380000CD09748844209D09648844206D09648AB
:10139000844203D0CB21954808F020FB2868010443
:1013A000090C01D0000C03D0CC21904808F016FBAA
:1013B0006868F8B101281DD011281BD0022819D067
:1013C000122817D08A49884214D08A49884211D0FD
:1013D000894988420ED0894988420BD08849884281
:1013E00008D08849884205D0032803D0CD217F4802
:1013F00008F0F4FAA868002807D00128FCD00228D9
:10140000FAD0CE21794808F0E9FAD8E0012000FAB4
:1014100006FA17EA0A077CD06868022801D0122869
:101420002ED15C4518D06A48844215D06948844260
:1014300012D0694884420FD0684884420CD0684872
:10144000844209D06748844206D06748844203D06A
:10145000DD21664808F0C2FA28690F2803D9DE2189
:10146000624808F0BBFAF00804EB8000026A7107DA
:10147000C90E0F238B409A432B698B4013430362A1
:1014800022687000032101FA00F92979804601F0F1
:10149000030122EA090201FA08F111432160686898
:1014A000012805D0022803D0112801D012281CD110
:1014B000E86848B1012807D0022805D0032803D0E6
:1014C000F3214A4808F08AFAA068E96820EA09008E
:1014D00001FA08F10143A1606068297920EA0A0055
:1014E000C1F30011B14001436160E068A96820EADE
:1014F000090001FA08F10143E1606868C0005DD5A8
:101500004148016841F001010160006800F00100FC
:1015100000E053E000903D4826F003010A1893686C
:10152000B007010F0F20884083435C4501D10020A4
:101530001EE02748844201D1012019E02548844259
:1015400001D1022014E02448844201D103200FE09D
:101550002248844201D104200AE02348844201D178
:10156000052005E01E48844201D1062000E0072046
:10157000884018439060264908686A68B843D203D7
:1015800000D5384308602249091D08686A68B843D5
:10159000920300D5384308601D49083108686A681D
:1015A000B843D20200D53843086019490C310868A5
:1015B0006A68B843920200D538430860761C2F68E9
:1015C00037FA06F07FF422AFBDE8F88F0000024042
:1015D0000004024000080240000C024000100240DB
:1015E00000180240001C02400014024014A8000829
:1015F0000000111000002110000031100000121036
:10160000000022100000321020380240000001408B
:101610000004014070B50C00054604D14FF4CC71B4
:10162000034808F0DBF92869204000D0012070BD94
:1016300014A8000870B515460C00064604D14FF4F6
:10164000DB71084808F0CAF945B1012D04D040F219
:10165000B711044808F0C2F9B46170BD2004B0614C
:1016600070BD000014A80008014800687047000021
:101670006800002002480168491C016070470000B2
:101680006800002010B5032000F064F8002000F08E
:1016900005F800F017F8002010BD000010B5044652
:1016A00007484FF47A710068B0FBF1F001F0CFFE0B
:1016B00000222146501E00F01BF8002010BD000043
:1016C000640000207047000010B5040003D5E72136
:1016D000064808F083F904F01F01012088406109E1
:1016E000890001F1E021C1F8000110BDC0A7000888
:1016F00070B514460D460646102A03D3D32113486D
:1017000008F06CF9102D03D3D421104808F066F9C5
:101710000F480068C0F30223C3F10700042800D972
:101720000420191D072901D2002300E0DB1E01223D
:1017300002FA00F1491E294099409A40521E224067
:101740003046BDE87040114302F033BFC0A7000827
:101750000CED00E010B5044607280BD0062C09D08C
:10176000052C07D0042C05D0032C03D0BB2108483E
:1017700008F034F9074A04F0070110684FF6FF0338
:10178000184040EA012004490843106010BD0000E1
:10179000C0A700080CED00E00000FA05012081025E
:1017A00091FAA1F1024AB1FA81F142F821007047A1
:1017B00000000E420120410291FAA1F1024AB1FA61
:1017C00081F142F82100704700000E420248006893
:1017D00000F4C0507047000000700040002010214D
:1017E00091FAA1F1024AB1FA81F142F82100704761
:1017F00000000E4270B50C46050006D0012D04D045
:1018000040F20121114808F0E9F8012C06D0022C21
:1018100004D040F202210D4808F0E0F80C480168BD
:1018200021F00301294301600A48016841F00401E5
:101830000160012C07D040BF20BF20BF016821F00C
:101840000401016070BD30BFF8E7000064A8000823
:101850000070004010ED00E02DE9F84F04460068EC
:10186000401E012803D974217A4808F0B7F820688F
:10187000C10701D1810771D5774D784E784FC007E8
:101880004FF480384FF400394FF4403A11D060687B
:1018900078B140450DD048450BD0504509D0A842FD
:1018A00007D0B04205D0B84203D08021694808F083
:1018B00095F82078800711D5A06878B140450DD003
:1018C00048450BD0504509D0A84207D0B04205D0BA
:1018D000B84203D086215F4808F080F8DFF8849191
:1018E0000025D9F80000C0000BD4D9F8001041F051
:1018F0008051C9F80010D9F80000012500F080508F
:101900000090594F3868C0050FD4386840F4807093
:101910003860FFF7A9FE064604E0FFF7A5FE801B2E
:10192000642860D83868C005F7D54E4F243F386822
:10193000616800F0C04001F0C042824204D1A26858
:1019400002F0C04282420AD0C1F30140032806D10E
:101950003868800303D50120BDE8F88F77E0DFF811
:10196000048108F11008D8F8000010F4403053D07A
:1019700001F44031814202D02178C90707D1A16822
:1019800001F44031814247D02078800744D5D8F80F
:10199000000046464FF4000292FAA2F1B1FA81F13A
:1019A0004FEA810C31494FF0010A8C4420F4403059
:1019B000CCF880A692FAA2F2B2FA82F201EB82018E
:1019C0000023C1F880363060C00525D5FFF74CFEF6
:1019D00006464FF4007B08E0FFF746FE811B41F20C
:1019E0008830814201D90320B6E79BFAABF0B0FA08
:1019F00080F040F04000BAEB501F01D1386801E0A0
:101A0000D8F800009BFAABF2B2FA82F202F01F02A1
:101A10000AFA02F10842DFD06068C0F301410329ED
:101A200006D1396800F0C04021F0C041014339605F
:101A3000D8F80010626802F440321143C8F8001070
:101A40002DB1D9F8001021F08051C9F80010002004
:101A500082E7000004A90008000003200000034002
:101A6000000003602438024000700040000047423C
:101A70002DE9F0470D46040004D140F2F221A248BE
:101A800007F0ACFF2068C1070AD1810708D44107DD
:101A900006D4000704D440F2F3219B4807F09EFFD0
:101AA00035B1012D04D04FF43D71974807F096FFF2
:101AB000DFF85882D8F8000000F00100A84214D2E4
:101AC000012D05D1D8F8001041F00401C8F800102C
:101AD000D8F8001021F001012943C8F80010D8F807
:101AE000000000F00100A84270D12078884E8007E5
:101AF0001CD5A068A0B1802812D0902810D0A028B2
:101B00000ED0B0280CD0C0280AD0D02808D0E028A9
:101B100006D0F02804D040F20B317B4807F05EFF7E
:101B20003068A16820F0F000084330602078C007DA
:101B30005DD0DFF8DC91DFF8D8A160680127A9F15A
:101B400008090AF12C0A88B1012840D0022810D0D7
:101B500003282FD040F212316B4807F03FFF606836
:101B6000022806D0032825D0012830D04FF4007178
:101B700022E04FF400311FE0006891FAA1F1B1FAC0
:101B800081F101F01F018F4038426CD030686168EC
:101B900020F0030008433060FFF766FD07466068E9
:101BA00041F2883102281CD0032827D00128894619
:101BB00030D03DE04FF0007191FAA1F0B0FA80F022
:101BC00040F02000400904D04846D5E74BE0022110
:101BD000F2E75046D0E7FFF747FDC11B494501D961
:101BE00023E089463068C0F381000228F3D123E066
:101BF000FFF73AFDC11B494501D916E08946306817
:101C0000C0F381000328F3D116E0FFF72DFDC11BBF
:101C100049450AD83068C0F381000128F5D10BE0AE
:101C2000FFF722FDC11B494502D90320BDE8F0871B
:101C3000306810F00C0FF3D1D8F80010404601F0D6
:101C40000101A94211D9012D03D1016841F004011C
:101C50000160016821F0010129430160006800F082
:101C60000100A84201D00120E0E720784FF4806510
:101C700040074FF4A0674FF4C0684FF4E06914D5F3
:101C8000E06860B1A8420AD0B84208D0404506D00A
:101C9000484504D040F277311B4807F09FFE30687A
:101CA000E16820F4E060084330602078000715D533
:101CB000206960B1A8420AD0B84208D0404506D099
:101CC000484504D040F27E310F4807F087FE306867
:101CD000216920F4605040EAC100306000F054F8FF
:101CE0003168F02292FAA2F201F0F001B2FA82F227
:101CF000D140084A515CC840074908600020FFF7FE
:101D0000CDFC002092E70000B4A80008003C02408F
:101D100008380240F1A20008640000200148006871
:101D200070470000640000200848094900680968FD
:101D30004FF4E06292FAA2F201F4E061B2FA82F2A8
:101D4000D140044A515CC840704700006400002044
:101D50000838024001A300080848094900680968DA
:101D60004FF4605292FAA2F201F46051B2FA82F298
:101D7000D140044A515CC840704700006400002014
:101D80000838024001A300081B4B19681B4801F0EA
:101D90000C02042A12D0082A10D00C2A0FD0181FC7
:101DA000006800F460414FF4604090FAA0F0B0FA8F
:101DB00080F0C1404FF40040491C884070474FF408
:101DC000701292FAA2F201F47010B2FA82F2D040CC
:101DD0000B4A01F44001105C4FF4400292FAA2F267
:101DE000B2FA82F2D1401A68491CD203034A504326
:101DF000B0FBF1F070470000083802400024F40006
:101E0000E8A200082DE9F84F040004D14FF49971BD
:101E1000FE4807F0E3FDFF4EDFF8F493FD4D343646
:101E200020684FF0000B4FF002084FF4007A0127B2
:101E300070B1C1070FD1810771D4010770D4410778
:101E4000FCD4C0066DD440F23311F04807F0C6FD53
:101E50002078C00733D0606840B1012806D005283B
:101E600004D040F23911E94807F0B8FDE9480830DC
:101E70000168C1F38101022907D00168C1F3810122
:101E800003291DD10068C0031AD54FF4003191FA1F
:101E9000A1F0B0FA80F040F02000400901D028689D
:101EA00000E0306891FAA1F1B1FA81F101F01F016F
:101EB00007FA01F1084262D0606800287ED05EE037
:101EC000606801280AD008B1052811D0286820F4DC
:101ED00080302860286820F4802002E0286840F4E0
:101EE00080302860606848B3FFF7BEFB00900AE0CE
:101EF000286840F480202860F0E7FFF7B5FB0099E0
:101F0000401A64287ED84FF4003191FAA1F0B0FA5B
:101F100080F040F02000400904D0286803E031E060
:101F20007BE0DBE0306891FAA1F1B1FA81F101F0D8
:101F30001F0107FA01F10842DFD020E0FFF794FB10
:101F4000009005E0FFF790FB0099401A6428D9D86B
:101F50004FF4003191FAA1F0B0FA80F040F0200087
:101F6000400901D0286800E0306891FAA1F1B1FA87
:101F700081F101F01F0107FA01F10842E2D1207856
:101F800080074AD5E06830B1012804D040F26D11D5
:101F90009E4807F023FD20691F2804D94FF4B7712C
:101FA0009A4807F01BFD9B4808300168C1F3810186
:101FB000012909D00168C1F3810100E09AE00329F9
:101FC0002CD10068C00329D498FAA8F0B0FA80F0A8
:101FD00040F02000400901D0286800E0306898FAFD
:101FE000A8F1B1FA81F101F01F0107FA01F10842ED
:101FF00002D0E06801287DD18648001D016821F4E7
:10200000F85200E0ADE14FF4F85191FAA1F12369E3
:10201000B1FA81F18B401A4302605CE0E068A0B342
:1020200097FAA7F0B0FA80F049F82070FFF71CFB90
:10203000009005E0FFF718FB0099401A022886D8A7
:1020400098FAA8F0B0FA80F040F02000400901D0E2
:10205000286800E0306898FAA8F1B1FA81F101F03F
:102060001F0107FA01F10842E4D06A4B1B1D1868F2
:102070004FF4F85292FAA2F22169B2FA82F220F4F5
:10208000F85091400843186025E0FFE797FAA7F160
:10209000B1FA81F149F821B0FFF7E6FA009005E0C6
:1020A000FFF7E2FA0099401A0228C8D898FAA8F077
:1020B000B0FA80F040F02000400901D0286800E02C
:1020C000306898FAA8F1B1FA81F101F01F0107FA1E
:1020D00001F10842E4D12078C0067BD54D48083094
:1020E000006810F00C0F1AD0A069002873D00128E6
:1020F00009D000E0AAE040F2E511444807F06EFC88
:10210000A069002867D04FF4807090FAA0F0B0FA70
:1021100080F049F82070FFF7A7FA0090A3E09AFA40
:10212000AAF0B0FA80F040F02000400901D0286801
:1021300000E030689AFAAAF1B1FA81F101F01F01CA
:1021400007FA01F1084202D0A06900287ED0E069B8
:10215000FF2804D94FF4DC712C4807F03FFC206ABB
:10216000B0B1B0F5005F13D0B0F5804F10D0B0F52E
:10217000C04F0DD0B0F5004F0AD0B0F5204F07D0BA
:10218000B0F5404F04D040F2B911204807F026FCCA
:102190002049206A091D096801F4604188421BD961
:1021A00003F060FB002851D11A48001D0168226A23
:1021B00021F460411143016001684FF07F4321F039
:1021C0007F4293FAA3F3E169B3FA83F399400A4398
:1021D00002601AE0BAE092E00E49091D0A6822F492
:1021E000604202430A6008684FF07F4393FAA3F30A
:1021F000E269B3FA83F320F07F409A40104308600D
:10220000206A03F02FFB0028CDD105E0B4A8000818
:1022100000004742003802404FF4604090FAA0F0BE
:10222000216AB0FA80F0C1404FF40040491C884058
:10223000FE490968F02292FAA2F201F0F001B2FA26
:1022400082F2D140FA4A515CC84000E0EDE1F94920
:1022500008600020FFF722FA78E0FFF705FA0099FE
:10226000401A02287DD89AFAAAF0B0FA80F040F01D
:102270002000400901D0286800E030689AFAAAF1ED
:10228000B1FA81F101F01F0107FA01F10842E4D02F
:10229000E069FF2804D940F2F911E74807F09EFBF6
:1022A000206AB0B1B0F5005F13D0B0F5804F10D008
:1022B000B0F5C04F0DD0B0F5004F0AD0B0F5204FAB
:1022C00007D0B0F5404F04D04FF4FD71DA4807F065
:1022D00085FBD648001F0168226A21F46041114342
:1022E000016001684FF07F4393FAA3F3E269B3FA08
:1022F00083F321F07F419A401143016026E04FF4BF
:10230000807191FAA1F1B1FA81F149F821B0FFF79A
:10231000ABF9009005E0FFF7A7F90099401A0228F1
:10232000A0D89AFAAAF0B0FA80F040F02000400954
:1023300001D0286800E030689AFAAAF1B1FA81F178
:1023400001F01F0107FA01F10842E4D120780007EB
:1023500062D56069A8B3012808D040F21921B648B7
:1023600000E008E107F03AFB606950B397FAA7F084
:10237000B0FA80F009EB8000C0F88076FFF774F9BE
:10238000B846009005E0FFF76FF90099401A02285F
:10239000C6D8022292FAA2F0B0FA80F040F04000D3
:1023A000B8EB501F01D1286800E0306892FAA2F221
:1023B000B2FA82F202F01F0208FA02F10842E2D0F9
:1023C0002AE0FFE797FAA7F1B1FA81F109EB810161
:1023D000C1F880B6FFF748F9B846009005E0FFF76E
:1023E00043F90099401A02289AD8022292FAA2F0E0
:1023F000B0FA80F040F04000B8EB501F01D12868DF
:1024000000E0306892FAA2F2B2FA82F202F01F0201
:1024100008FA02F10842E2D12078400772D5002084
:102420000090A06840B1012806D0052804D040F2F1
:102430004521814807F0D2FA7C481C300068C00072
:102440000AD47A481C30016841F08051016000686C
:1024500000F080500120009078480168C90511D42F
:10246000016841F480710160FFF7FEF8804605E0E5
:10247000FFF7FAF8A0EB080064287CD86F480068E2
:10248000C005F5D5A06801280AD008B1052811D0EB
:10249000306820F480703060306820F4806002E0A2
:1024A000306840F480703060A06838B3FFF7DCF823
:1024B00080460CE0306840F480603060F0E7FFF761
:1024C000D3F8A0EB080141F28830814253D89AFA40
:1024D000AAF0B0FA80F040F04000B7EB501F01D1F5
:1024E000286800E030689AFAAAF2B2FA82F202F0A2
:1024F0001F0207FA02F10842E1D022E0FFF7B4F828
:10250000804608E025E0FFF7AFF8A0EB080141F2B4
:10251000883081422FD89AFAAAF0B0FA80F040F0C1
:102520004000B7EB501F01D1286800E030689AFAEC
:10253000AAF2B2FA82F202F01F0207FA02F108428E
:10254000E1D1009828B139481C30016821F0805150
:102550000160606AF0B3012808D0022806D040F27A
:102560008921354807F03AFA606A98B3DFF8BCA0D1
:10257000DAF8000000E0C3E0C0F38100032854D083
:10258000606A4FF0807802280CD098FAA8F1B1FA6E
:1025900081F149F821B0FFF767F8A84604464FF0EB
:1025A0000075B0E0A06A38B1B0F5803F04D040F2C9
:1025B0009221214807F012FAE06AF0B1B0F5802FBD
:1025C0001BD0B0F5002F18D0B0F5402F15D0B0F5C6
:1025D000801F00E0ADE010D0B0F5A01F0DD0B0F529
:1025E000C01F0AD0B0F5E01F07D0B0F5001F04D01F
:1025F00040F29321104807F0F1F9206BB0F5800FFD
:102600000AD0B0F5000F07D0B0F5400F04D04FF45A
:102610002571094807F0E2F94FF08070594690FAA9
:10262000A0F0B0FA80F0CB460AE084E0083802401F
:10263000F1A2000864000020B4A800080070004067
:1026400049F82010FFF710F8B14680464FF00076A9
:1026500005E0FFF709F8A0EB0800022850D896FA29
:10266000A6F0B0FA80F040F02000400901D02868C0
:1026700001E0D9F8000096FAA6F1B1FA81F101F073
:102680001F0107FA01F10842E3D1D4E90A01226BE4
:10269000DAF80030084323F47D031A431043CAF8E4
:1026A00000004FF0807090FAA0F0B0FA80F04BF884
:1026B0002070FEF7D9FFA84604464D4604E0FEF719
:1026C000D3FF001B02281BD896FAA6F0B0FA80F0C0
:1026D00040F02000400902D0D8F8000000E028684F
:1026E00096FAA6F1B1FA81F101F01F0107FA01F1A2
:1026F0000842E4D01DE0FEF7B7FF001B022802D914
:102700000320BDE8F88F95FAA5F0B0FA80F040F00C
:102710002000400902D0D8F8000000E0306895FAA7
:10272000A5F1B1FA81F101F01F0107FA01F10842A8
:10273000E1D10020E5E70120E3E77047017F0129AF
:1027400016D001220277022141770368CA2159621B
:1027500003685321596201688B6843F020038B6042
:102760000368FF21596242770021017708467047CC
:10277000022070477047000010B504460068816869
:10278000C9040CD5C068C00509D52046FFF7F2FF83
:102790002068C16801F0800161F4C071C1602068E7
:1027A000816889040CD5C068800509D52046FFF7EB
:1027B000C4FF2068C16801F0800161F42071C1602C
:1027C00003494FF4003008600120607710BD00001D
:1027D000140401402DE9F05F4FF480770D46044664
:1027E000B94207D0B5F5007F04D040F27E212D48D4
:1027F00007F0F4F8207F012822D04FF0010984F877
:102800001C90022060772168CA204862216853200A
:102810004862206800264FF0FF0881684FF0030BE4
:102820004FF47A7ABD4218D121F48071816020681A
:10283000816821F480518160FEF716FF054607E0AC
:102840000220BDE8F09FFEF70FFF401B504515D852
:102850002068C068C007F6D01CE021F400718160D8
:102860002068816821F400518160FEF7FDFE054675
:102870000CE0FEF7F9FE401B504507D92068C0F870
:10288000248084F81DB026770320DAE72068C0682A
:102890008007EED52068C0F8248084F81D90267744
:1028A0000020CEE758A900082DE9F0411D0016468A
:1028B0000C46074606D0012D04D040F2CB21254816
:1028C00007F08CF84FF48070864229D030464FF4E0
:1028D0000076B04204D04FF433711E4807F07EF802
:1028E00066623868016A806CC1F30623C0F30E0289
:1028F000C1F305402070637001F07F03A370402393
:1029000003EA1143E3706260C1F3056284F820209A
:1029100001F0804201F08031E26161612DB115E08A
:1029200060623868C169406CDEE703F00FF8207020
:10293000607803F00BF86070A07803F007F8A070DF
:1029400094F8200003F002F884F820000020BDE88D
:10295000F0810000A8A9000870B515000C460646D5
:1029600006D0012D04D040F24721104807F036F878
:10297000306841680E480140080CE070C1F3042241
:10298000627001F03F02A270C1F34231217055B96B
:1029900002F0DCFFE070607802F0D8FF6070A07891
:1029A00002F0D4FFA070002070BD000058A90008FC
:1029B0003FFFFF0070B515000C46064606D0012DFE
:1029C00004D04FF48171154807F008F83068806A28
:1029D00080B2606030680069C0F30E00A0603068AB
:1029E00001680F480140C1F305402070C1F3062281
:1029F000627001F07F02A270402202EA1141E17090
:102A000055B902F0A3FF2070607802F09FFF60705C
:102A1000A07802F09BFFA070002070BDA8A900085C
:102A20007F7F7F0070B5040042D04449206888420F
:102A300003D0CD21424806F0D1FF6068402804D081
:102A400018B1CE213E4806F0C9FFA0687F2803D9FF
:102A5000CF213B4806F0C2FFE068B0F5004F03D33A
:102A6000D021374806F0BAFF206960B1B0F5001FE9
:102A700009D0B0F5800F06D0B0F5C00F03D0D1213A
:102A80002F4806F0ABFF606930B1B0F5801F03D06E
:102A9000D2212B4806F0A2FFA06930B1B0F5802FFB
:102AA00003D0D321264806F099FF607F10B106E0DD
:102AB000012070BD00202077204600F045F802205C
:102AC00060772168CA204862216853204862204606
:102AD00002F050FFFF210028206803D0416204204B
:102AE0006077E5E78268174B1A4082602068826849
:102AF00063681A43D4E904352B431A438260226881
:102B0000E068106120680269238942EA0342026199
:102B10002068C26822F08002C2602068026C22F441
:102B2000802202642068026CA3691A430264206850
:102B3000416201206077002070BD00000028004045
:102B400058A90008BFFF8FFF704700002DE9F05F14
:102B500016000C46054606D0012E04D040F2022194
:102B6000DA4806F03BFF606AB0F5807F07D0B0F529
:102B7000007F04D040F20321D44806F02FFF6069A3
:102B800010F07F3F04D04FF40171D04806F026FFCB
:102B9000E06938B1B0F1804F04D040F20521CB4854
:102BA00006F01CFF6068B0F5004F04D340F2072127
:102BB000C64806F013FFA06988B3B0F1807F2ED01D
:102BC000B0F1007F2BD0B0F1407F28D0B0F1806F02
:102BD00025D0B0F1A06F22D0B0F1C06F1FD0B0F1FE
:102BE000E06F1CD0B0F1006F19D0B0F1106F16D0AB
:102BF000B0F1206F13D0B0F1306F10D0B0F1406F52
:102C00000DD0B0F1506F0AD0B0F1606F07D0B0F1C5
:102C1000706F04D04FF40271AC4806F0DFFE287FDD
:102C200001281DD001202877022068772868002716
:102C300080684FEA4060B6B1002877DA207802F069
:102C400085FE401E0B2804D94FF40D719F4806F0F5
:102C5000C5FEE078F0B3402873D040F235216DE036
:102C60000220BDE8F09F00280FDA2078401E0B28D4
:102C700004D94FF40571954806F0B0FEE07868B1CC
:102C800040280BD040F2152105E0E7702078172886
:102C900004D940F21A218D4806F0A0FE60783B2846
:102CA00004D94FF40771894806F098FEA0783B28B4
:102CB00004D940F21D21854806F090FEE069002805
:102CC00094F820002CD0012812D0022810D003281C
:102CD0000ED000E035E004280AD0052808D00628E8
:102CE00006D0072804D040F22521784806F076FE69
:102CF000207802F034FE0604607802F030FE46EAE6
:102D00000026A07802F02BFE0643E07846EA004653
:102D100094F8200002F023FE46EA00664DE005E04C
:102D2000401E1E28E4D940F22121DEE7E77020781A
:102D300002F00CFE172804D940F23A21634806F04D
:102D40004DFE607802F002FE3B2804D940F23D219E
:102D50005E4806F043FEA07802F0F8FD3B2804D957
:102D600040F23E21594806F039FEE069002894F807
:102D700020004AD002F0EAFD012810D002280ED02F
:102D800003280CD004280AD0052808D0062806D02D
:102D9000072804D04FF412714C4806F01FFEA078AB
:102DA0002178E27840EA01406178090241EA024173
:102DB000084394F8201040EA0166E069A1690643DF
:102DC00060690643606840EA01082968CA204862D1
:102DD000296853204862606A4FF0030AB0F5807F8B
:102DE00028684FF0FF094FF47A7B816815D021F4F1
:102DF000007181602868C16801F0800161F4207170
:102E0000C160FEF731FC04463AE002F09FFD401E2F
:102E10001E28C4D940F24321BEE721F480718160AD
:102E20002868C16801F0800161F4C071C160FEF7DB
:102E30001BFC044604E0FEF717FC001B584517D89E
:102E40002868C068C007F6D02868C6612968C1F83C
:102E500044802868816841F48071816028688168B5
:102E600041F480511EE0FEF7FFFB001B584507D9D7
:102E70002968C1F8249085F81DA02F770320F0E67B
:102E80002868C0688007EED5286806622968C1F8FE
:102E900048802868816841F40071816028688168F1
:102EA00041F4005181600A48016841F40031016039
:102EB00007480830016841F4003101602968C1F811
:102EC0002490012068772F770020CAE6A8A900087F
:102ED000000401402DE9F04716000C46054606D0D7
:102EE000012E04D04FF4ED71554806F077FD287F90
:102EF000012807D04FF0010985F81C90022068775F
:102F00001EB109E00220BDE8F0876078C10603D554
:102F100000F0EF000A3060702078012810D00228FD
:102F20000ED003280CD004280AD0052808D0062883
:102F300006D0072804D04FF4F371414806F04EFD47
:102F4000E078BEB302F002FD632804D940F2F51127
:102F50003B4806F043FD607802F0F8FC401E0B2869
:102F600004D940F2F711364806F038FDA07802F097
:102F7000EDFC401E1E2804D940F2F911304806F03D
:102F80002DFDA078E17840EA0146607821780002C2
:102F900040EA413006432968CA2048622968532024
:102FA0004862284602F0E6FC00244FF00408FF27A0
:102FB000C0BB2AE0FFE7632804D94FF4F57120482D
:102FC00006F00CFD6078401E0B2804D940F2EB118E
:102FD0001B4806F003FDA078401E1E2804D94FF4BC
:102FE000F671174806F0FAFCE07802F0B8FC02042B
:102FF000607802F0B4FC42EA0022A07802F0AFFC54
:103000000243207842EA4036C5E70E480640286869
:1030100046602868C16821F08001C160284600F040
:10302000FFF830B12868476285F81D802C770120B1
:1030300069E72868476285F81D902C77002062E7D1
:1030400058A900083FFFFF002DE9F04717000C4684
:10305000054606D0012F04D040F25F116E4806F0FD
:10306000BDFCE068B0F5003F08D0B0F5803F05D06A
:1030700020B14FF4B071684806F0B0FC206938B157
:10308000B0F5802F04D040F26111634806F0A6FC31
:10309000287F01281FD04FF0010A85F81CA00220CC
:1030A00068772868002680684FEA4060B7B100283A
:1030B00052DA207802F04AFC401E0B2804D940F274
:1030C0008111554806F08AFCE078E8B340284ED0DC
:1030D0004FF4C17148E00220BDE8F08700280FDA04
:1030E0002078401E0B2804D94FF4B6714A4806F0E8
:1030F00075FCE07868B140280BD040F26D1105E016
:10310000E6702078172804D94FF4B971424806F0C8
:1031100065FC60783B2804D94FF4BA713E4806F04C
:103120005DFCA0783B2804D940F275113A4806F0BE
:1031300055FC207802F013FC0204607802F00FFCCA
:1031400042EA0022A07800E011E002F008FC02430D
:10315000E07842EA004728E0E670207802F0F6FBCB
:10316000172804D940F287112B4806F037FC607805
:1031700002F0ECFB3B2804D940F28911264806F006
:103180002DFCA07802F0E2FB3B2804D94FF4C57176
:10319000214806F023FCA078217840EA01476078B6
:1031A000E178000240EA014007432968CA204862EA
:1031B000296853204862284602F0DCFB4FF0FF08E4
:1031C0004FF00409C0B9154807402868076028680F
:1031D000816821F480218160D4E9031001432868CB
:1031E0008268114381602868C16821F08001C16054
:1031F000284600F015F838B12968C1F8248085F810
:103200001D902E77012067E72968C1F8248085F892
:103210001DA02E7700205FE758A900087F7F7F0060
:1032200070B5054600688168890614D4C16821F02C
:10323000A001C160FEF718FA04464FF47A7606E062
:10324000FEF712FA001BB04201D9032070BD2868B6
:10325000C0688006F4D5002070BD10B504000ED003
:103260002068016821F040010160204600F0D6F896
:103270000020606584F8510084F8500010BD0120E2
:1032800010BD000070B504007DD060492068884200
:1032900009D05F49884206D05E49884203D0572151
:1032A0005D4806F09BFB606830B1B0F5827F03D0CB
:1032B0005821594806F092FBA06848B1B0F5806FDC
:1032C00006D0B0F5004F03D05921534806F086FBD5
:1032D000E068B0F5006F04D018B15A214E4806F0EE
:1032E0007DFB206928B1022803D05B214A4806F003
:1032F00075FB606928B1012803D05C21464806F0BF
:103300006DFBA069B0F5007F07D030B1B0F5802F1C
:1033100003D05D21404806F061FBE06988B10828D0
:103320000FD010280DD018280BD0202809D028281D
:1033300007D0302805D0382803D05E21364806F063
:103340004DFB206A28B1802803D05F21324806F067
:1033500045FB606A28B1102803D060212E4806F092
:103360003DFBA06A30B1B0F5005F03D061212A486F
:1033700006F034FBE06A4FF6FE71401E884205D924
:103380006221254800E006E006F028FB94F8510091
:10339000002510B106E0012070BD84F85050204691
:1033A00000F03DF8022084F851002068016821F007
:1033B00040010160D4E901010843D4E9031211433B
:1033C000084361690843218B01F400710843E169F6
:1033D0000843216A0843A16A084321680860A0697C
:1033E000042101EA1040616A0843216848602168AD
:1033F000E06A08612068C16921F40061C161656506
:10340000012084F85100002070BD00000030014010
:1034100000380040003C0040FCA90008704770479D
:1034200010B54FF0E02404280AD020B14FF4DF712A
:10343000054806F0D3FA206920F00400206110BD91
:10344000206940F00400F9E7C0A70008704710B5F4
:10345000401EB0F1807F01D3012010BD4FF0E02469
:1034600060610F21601701F0A4F80020A06107201F
:103470002061002010BD10B5FFF7E8FF10BD00006F
:1034800001220249024800F0F2B80000600000206A
:10349000A80C002038B5044600680168C268C1F372
:1034A000000102F4807221B11AB1E16B41F0010117
:1034B000E1630168C1F34002416901F0010122B1F9
:1034C00019B1E26B42F00402E2630268C2F38002C7
:1034D00022B119B1E26B42F00202E2630268C2F368
:1034E000C00222B119B1E16B41F00801E16301684A
:1034F000C068C1F3401100F0200019B110B120469E
:1035000005F024FC20680168C068C1F3C01100F018
:10351000800019B110B1204605F0EAFD2168086865
:10352000CA68C0F3801002F04002012568B162B1A0
:10353000CA68204622F04002CA6094F83910322945
:1035400010D080F8395000F00FF9E06B002808D057
:10355000206801684068009084F839502046FFF7E1
:103560008FFF38BD222180F83910ECE770B50400D8
:1035700020D0A06937490028374A384B20681BD033
:1035800088420AD0904208D0984206D04FF4837106
:10359000334806F023FAA069F8B1A069B0F5807F3E
:1035A0001BD0B0F5007F18D0B0F5407F15D040F2A9
:1035B00007110FE0012070BD88420ED090420CD060
:1035C00098420AD02749884207D02749884204D028
:1035D00040F20B11224806F001FAA06838B1B0F5AC
:1035E000805F04D040F20D111D4806F0F7F9E06944
:1035F00038B1B0F5004F04D04FF48771184806F089
:10360000EDF994F83900002520B984F838502046A7
:1036100000F02CF8022084F839002068C16821F4F9
:103620000051C160204605F0E5FB2068016921F4E6
:10363000904101612068416921F02A0141612068BF
:10364000C16841F40051C160E563012084F839008C
:10365000002070BD00380140004400400048004098
:1036600050AA0008004C004000500040704790F8FD
:103670003930012B01D0122B2BD131B32AB390F862
:103680003830012B25D0012380F8383081628285C3
:10369000C2850021C16390F83920122A17D0222256
:1036A00080F8392080F838100168CA6842F48072C6
:1036B000CA6001684A6942F001024A610068C16853
:1036C00041F02001C1600020704701207047322284
:1036D000E6E702207047000010B50B48044600F0F2
:1036E0006BF820B9094801782046FDF74DFC0648E3
:1036F0002838416B09B101208847BDE810400122FC
:1037000002490348FFF7B3BF5C03002060000020BC
:10371000A80C002090F83930012B01D0222B21D1A8
:10372000E1B1DAB190F83830012B1BD0012380F8D9
:10373000383001628284C2840021C16390F839204C
:10374000222A0DD0122280F8392080F83810006823
:10375000C16841F08001C1600020704701207047BE
:103760003222F0E70220704710B50C48044600F002
:103770001BF848B92046FDF7F9FB094901224870BA
:10378000491C0848FFF7C6FF04481C38416B002954
:1037900003D0BDE810400020084710BD50030020B2
:1037A00060000020A80C002001884088814201D1DF
:1037B000012070470020704710B504464188FDF78E
:1037C000CDFB2188884201D1012010BD002010BD11
:1037D00070B50446884201DD054600E00D46042A26
:1037E0000CD004220021184602F068FF322803D2D0
:1037F000052C00DC05242546284670BD022CFADC89
:103800000224F8E72DE9F04117460A460546DDE9AE
:1038100006411948089E447183711C0AC4711C0C2E
:1038200004721B0E437281720B0AC3720B0C03737A
:10383000090E4173D4B2C4731048FDF760F93946DC
:103840000E48FDF76DF910220B490C48FDF76EF993
:10385000224629460948FDF769F90849A1F5827011
:10386000FDF7ADF806480178D0F8010041EA0020E4
:103870003060BDE8F0810000D800002084120020F4
:1038800080110020F8B50F46040016467ED020684F
:103890000028FBD060680028F8D0A0680028F5D088
:1038A000E0680028F2D0104603F025F800286ED01A
:1038B000764D002105F11900C5E91647EE73017038
:1038C00029746963A974296569650B208DF8000066
:1038D0006946304603F001F800B10120E874082081
:1038E0008DF800006946E87B02F0F7FF684C6946F6
:1038F000207005208DF80000E87B02F0EEFF60707C
:103900000C208DF800006946E87B02F0E6FFE060DD
:103910000D208DF800006946E87B02F0DEFF206193
:103920000E208DF800006946E87B02F0D6FF60614A
:103930000F208DF800006946E87B02F0CEFFA06101
:1039400010208DF800006946E87B02F0C6FFE061B8
:1039500013208DF800006946E87B02F0BEFF84F872
:10396000210014208DF800006946E87B02F0B5FFC5
:10397000606215208DF800006946E87B02F0ADFF1B
:1039800084F828001A208DF8000001E079E07AE040
:103990006946E87B02F0A1FF84F82C001B208DF81B
:1039A00000006946E87B02F098FF84F82D001C2097
:1039B0008DF800006946E87B02F08FFF20631D2030
:1039C0008DF800006946E87B02F087FF6063002104
:1039D000E87B02F08AFF012684F820600A20062294
:1039E0006060A4F13801227248600A72E068C86021
:1039F0002069086160694861A0698861E069C861FF
:103A000081F8206003F016FC224904F1380005F02B
:103A100087F84FF47A7104F1380005F019F91E495E
:103A200004F1680005F07CF81C4904F17C0005F005
:103A300077F81B4904F1900005F072F8194904F178
:103A4000CC0005F06DF805F067F8286304F14C0030
:103A500015490160154981601549016115494160A9
:103A6000164C1549C160216888476069804706F097
:103A7000E3FB6E74A16D30468847E06A8047002002
:103A8000F8BD0320F8BD0A20F8BD0000700000203A
:103A90005810002075460008555100085150000884
:103AA000CD500008D54500081D4F0008B948000852
:103AB000054E000815500008814E0008A0A300081C
:103AC0002DE9F04106461D4617460C460C48FDF709
:103AD00016F839460A48FDF723F8E2B2314608489D
:103AE000FDF724F80649A1F58270FCF768FF054848
:103AF0000178D0F8010041EA00202860BDE8F0819B
:103B000084120020801100202DE9FF4184B00F466F
:103B10000446984606ADF02200211D480E9E06F090
:103B2000D3F91B4A1021204605F0DAFE10220021AD
:103B3000684606F0C9F901208DF800006C4606229F
:103B40003946601C06F0ACF902222946E01D06F059
:103B5000A7F90F4A4146684605F09BFE1022002156
:103B6000684606F0B1F902208DF8000006223946B9
:103B7000601C06F095F902222946E01D06F090F936
:103B8000034A3146684605F084FE08B0BDE8F0817E
:103B9000901100202DE9F04117460C4606461D46BF
:103BA000F02200210C4806F08FF90B4A102138460C
:103BB00005F096FE084A2946304605F06AFE102CAC
:103BC00008D305F1100106F11000BDE8F041024AEA
:103BD00005F05FBEBDE8F081901100202DE9FE4F99
:103BE0004FF0000704004FF0020A3D463E4679D0F0
:103BF000DFF808B1DBF8340010B10120BDE8FE8F1A
:103C000000208DF80000014614223D4806F05CF9C2
:103C10003B4801215A4641708BF80D10207820B1A5
:103C200001280AD0032828D119E011739DF800005B
:103C3000012620F0E000403007E0E07B10739DF8A3
:103C40000000012620F0E00080308DF80000277988
:103C5000B4F80C8094F90E50D4F808900DE011736C
:103C60009DF80000012640F0E0008DF80000B4F857
:103C7000088094F90A50D4F80490E02F32D82148F3
:103C80008DF8081002A990F82C008DF80A009BF816
:103C90000F0002F022FEA84200D3054668B2F6B13A
:103CA0009BF804105D4679B9164E8DF80400042285
:103CB00096F82C008DF8060001A9E87B03F0B1FA14
:103CC00078B19DF80400707043464A46394668460C
:103CD00004F066FB5FEA000A06D0002068715046D7
:103CE0008CE7FFE7032089E7054821780170034846
:103CF0001930017841F001010170F0E770000020F7
:103D00005011002020100020F8B504004FF00005ED
:103D10001BD03648364B277803F12001C27B01F1D6
:103D200038061F2F5FD2DFE807F0121417191B1E89
:103D300020232527292C33313B3E40424446484A24
:103D40004E4C50525456585A5C000320F8BD007C2B
:103D500000E0C078207147E00079FBE7806C00E06C
:103D6000C06C606040E02348FBE722481030F8E771
:103D7000407CEFE7807CEDE719200AE0D3E91101F0
:103D800001E0D3E91F01C4E901012DE0172000E0A3
:103D900016208DF800006946104602F09EFDE0E70F
:103DA00091F82000D6E7C868DBE70869D9E74869D9
:103DB000D7E78869D5E7C869D3E77078CAE7487854
:103DC000C8E73078C6E70878C4E7406AC9E7806A80
:103DD000C7E7006AC5E74868C3E7087ABAE7486BEF
:103DE000BFE7706BBDE702252846F8BD70000020D4
:103DF00000100020000D00202DE9FF5F04004FF0AF
:103E0000000509D0DFF82C8298F83400C00705D0EF
:103E1000012004B0BDE8F09F0320FAE7DFF81CB2F0
:103E20008448ABF5887A0AF15807A7F13806237859
:103E30000022DFF80492C07B96F82D101F2B72D25F
:103E4000DFE803F0102024282C30363F46F54A7274
:103E5000878190979A9DA0A4A7B3CFC3DDE1F5E534
:103E6000E9EFF200207988F8100020B1012805D090
:103E7000022803D103E0D9F82C008047D8E088F865
:103E8000052040E0207988F80300D1E0207988F807
:103E90000400CDE06068C8F84800C9E06068C8F870
:103EA0004C00C5E0616800296FD01022644805E02D
:103EB0006168002969D062481022103005F0F0FFD7
:103EC000B6E0207988F81100D9F858108847AFE09B
:103ED000207988F81200ABE0227A8DF804208DF862
:103EE0000510062201A903F09CF900284DD0D4E961
:103EF0000112CAE9111298F81000022812D198F89C
:103F0000030000280ED0D9F82C008047CDF800B06F
:103F1000327A96F9281098F80F00736802F0C7FCFF
:103F200001F05AF984E082E0227A8DF804208DF8BD
:103F30000510062201A903F074F930B3D4E9011287
:103F4000CAE91F1274E06168029101218DF80C101A
:103F500003E0616802918DF80C2002A902F0A1FA39
:103F600098B165E02079411E0E2946D886F82000D8
:103F70005EE06068F0605BE06068306158E0606857
:103F8000706155E06068B06152E036E06068F061F1
:103F90004EE021798DF80410052201A903F041F9C2
:103FA00058B39DF80400787042E021798DF8041030
:103FB00096F82C108DF80610042201A903F031F9AF
:103FC000D8B19DF80400707032E021798DF80410AA
:103FD000082201A903F025F978B19DF80400387092
:103FE00026E021798DF80410072201A903F019F9C0
:103FF00018B19DF8040030701AE0032518E06068DD
:10400000C8F8240014E06068C8F8280010E0606870
:10401000786070600CE020793872307208E003E05C
:10402000FFE76068706303E06068786300E0022582
:104030002846EEE670000020A0A300081011002022
:10404000000D00202DE9F84304004FF002084CD089
:10405000374F786BC0B90C220021364805F034FF89
:10406000344E01204FF000097070207807F11905D7
:1040700030B101283BD0022845D003282DD14BE098
:1040800097F83400C00602D50120BDE8F8836068C7
:1040900058B3A06848B3E06838B303F0CBF8287889
:1040A00040F008002870207830706068F863A068DD
:1040B0003864E068786494F91010F87B02F0D0F965
:1040C0001D4900231A4648708DF80090194668462D
:1040D00004F066F95FEA000805D087F805902878B3
:1040E00020F0080028704046CFE70320CDE728786D
:1040F000002240F00800287020783070114602201D
:10410000FCF76CFDE6E73070287840F00800287076
:10411000A08804F005FADDE73070287840F0080048
:104120002870227BA088A16804F026FAD2E700005C
:10413000700000206411002020100020FEB508AFA0
:1041400097E870008DE8700000F002F8FEBD0000F6
:104150002DE9FF5F0D46DDE90FA8074600249946CB
:104160000126F02221463048DDF838B005F0ACFEDB
:104170002D4A1021029805F0B3FB2C484FEA192173
:1041800080F805B080F80690C1714FEA19410172BC
:104190004FEA1961417280F80AA04FEA1A21C172F0
:1041A0004FEA1A4101734FEA1A61DFF87CA04173AC
:1041B000AAF1200A81461BE089F80F601A4A761C92
:1041C000B6B2A2F12001194805F063FB0020524667
:1041D000211812F800C07B5C401C83EA0C0380B2FB
:1041E00008F801301028F3D3103D1034ADB2E4B21A
:1041F000102DE1D2002D14D00B4A89F80F60A2F1E6
:1042000020010A4805F045FB0020534607E021182D
:104210001E5C7A5C7240401C08F8012080B2A84203
:10422000F5D3BDE8FF9F000090110020E8000020BA
:104230002DE9F04381462E4887B00D0041788DF876
:1042400014102C4E00788DF81800307A717A0844DA
:10425000C4B238D04FF000088DF804803079244F74
:104260008DF80500F06A383F029078788DF80C00E0
:1042700038788DF80D0097F82C008DF80E0006F1B7
:104280002C00009006AB05AA01A9F07B02F0D8F83B
:1042900097F82C008DF812009DF814008DF811008D
:1042A00009208DF81000B07C10B10A208DF81000A4
:1042B00004A9F07B02F011FBC0B26870A04206D3E3
:1042C000001B287009E0032007B0BDE8F0832870C8
:1042D00086F80880002486F8098022469DF914108B
:1042E000484605F05FF808B10020EDE70820EBE74D
:1042F000581000207000002010B5407830B901211E
:104300000448FCF7E5FF044804F0AAFC0349012037
:10431000087110BD10030020D4020020000000200E
:104320002DE9F047044640788CB0002878D12078F9
:1043300058B1012809D17D4804F0C2FC01217B4815
:1043400004F086FC794804F08BFC6079012801D1E7
:1043500000F012FF754D3C352A78012A02D1A88958
:10436000401CA881607B012859D1E078012856D0F3
:10437000022854D0E02852D10126DFF8B4814FF052
:10438000000902216AB1A06803274FF0040A0078EF
:104390006870082843D2DFE800F02F44474A4E6592
:1043A0006B9D207B04283AD1A0680278012A36D17F
:1043B0004278012A33D18278012A30D1C07801288D
:1043C0007DD188F80390E02088F8000098F801007B
:1043D00088F8020088F80110A5F80C9085F80E9076
:1043E00085F80F9085F810902E706E708DF8001083
:1043F0008DF80460684610E088F8039088F8001093
:1044000098F8020088F80100A5F80C9085F8009053
:104410008DF814108DF8189005A8FFF7EDFC4EE00C
:1044200081E088F801104AE088F8036001E088F82C
:1044300003906E7043E03D4B227BF43B88F80120F3
:1044400083F800A0012005E0A168095C491C19540B
:10445000401CC0B2F22A01D2114600E0F221814292
:10446000F2D82CE08DF800606846FFF7EBFD26E0FF
:1044700088F8039088F8001098F8020088F8010086
:10448000A5F80C9085F800908DF820108DF82490F8
:1044900008A8FFF7B1FC26488DF800901030019075
:1044A00008300290083003908DF810906846FFF7AE
:1044B000C9FD10B188F8057001E088F805A0012158
:1044C0001C48FCF705FF0CB01848BDE8F047283041
:1044D00004F0C6BB207B03281CD00728A9D18DF887
:1044E0000070A068B0F8010040BAADF80400A06800
:1044F000C17802790904407941EA0221014364202C
:1045000041430291A06880798DF80C006846FFF75E
:1045100099FD8EE78DF80010A068B0F8010040BA50
:10452000ADF80400F2E70CB0BDE8F087C00200204F
:10453000000000201C030020FEE7000030B50178D9
:10454000164C85B0012511B1012924D118E040781D
:1045500090B11249002010310191083102918DF87B
:10456000000008318DF8100003916846FFF76AFDDE
:1045700020B1032060710EE00220FBE70420F9E780
:10458000417841B906490A78012A04D18D73027A2B
:10459000CA73407A0874257105B030BD0000002050
:1045A000FC0200200078042801D100F0E5BD70472E
:1045B00070470907090E002806DA00F00F0000F125
:1045C000E02080F8141D704700F1E02080F800140E
:1045D0007047000010B50D4804F072FB0C4841799B
:1045E00029B101218173416B21F004014163007CF9
:1045F000022805D106481930017841F020010170E8
:10460000BDE8104003A004F0F3BE00002411002018
:10461000700000204F6E41636B54696D656F757457
:1046200054696D65724576656E7428290D0A00001F
:1046300001490120887070475000002010B50448DF
:1046400004F03EFBBDE8104000210248FCF740BEEC
:10465000D40200201003002010B5044804F030FB01
:10466000BDE8104000210248FCF732BEE8020020FD
:104670001C0300202DE9F84300268D4804F020FBA0
:104680008C4FA7F11904387881066CD5616B4A0606
:1046900002D521F0410161638549020701F1D4018E
:1046A000A1F114084FF0000501D4C20712D098F808
:1046B00001304246022B02D04B78022B0AD1636BA9
:1046C000012623F0010363632572637B5371157127
:1046D000C8F8085062793243754EA6F1700629D1A8
:1046E000020702D4C10702D124E00A783AB196F851
:1046F0002010A27A914207D981070BD415E048789F
:1047000070B96562A5720BE0800703D42572E06A78
:10471000401CE062A572607810B9606A401C60625B
:10472000606B20F00100606304E020F0200038702E
:1047300000F010FD3878800716D598F8041001298C
:1047400003D0617B227B91420ED9A573657161789C
:1047500011B9616A491C6162617B88F80510606B60
:1047600020F0010060634FE0A07BA0B394F8340018
:10477000C00649D4A573607B217B884231D20828CA
:104780002FD8401C6073C0070ED01E208DF800008B
:1047900096F82C008DF8020070788DF801006946BB
:1047A000E07B02F09AF87070012003F065FD98B18B
:1047B000092188F801102572616B21F00101616304
:1047C000657188F80450617B88F80510717888F865
:1047D00002106078A8B117E0387820F02000387017
:1047E00012E00121E07B02F080F8606B20F0010014
:1047F00060632572657188F80450617B88F8051044
:10480000E7E7606A401C6062606B810702D520F0B8
:104810000200606388B14FF47A71254804F018FAF9
:10482000234804F01DFA3878810733D520F00200C0
:104830003870207C02281FD020E03878C10707D0CC
:1048400020F001003870A06D01681948C030884719
:104850003878010707D520F008003870A06D81680E
:104860001348D4308847607A08B103F04DFE387899
:1048700020F020003870D6E700F0AEFC3878400712
:1048800004D4A06D41680A48A8308847387820F0E1
:1048900004003870C0B2C10607D520F0100038708F
:1048A000A06DC1680348801E8847BDE8F8830000FA
:1048B00090100020890000202DE9FF4F0D4691B097
:1048C0000021CDE905110446FD4804901030089000
:1048D00000F588600C91A0F118080171A8F80E206D
:1048E000149A88F81020F74AF7480E46127E88F886
:1048F000112088F8031088F8021088F80510C8F80D
:10490000081088F80C1088F80D1088F81210C8F8F4
:10491000141088F80010C06A0F468B468047A8F133
:10492000500004F0CDF92078099081460A904FF0AC
:10493000010AE6A004F05CFD4FEA5910291FA5F119
:1049400001090B91012815D003287DD005287CD0C2
:1049500007287BD088F801A000F0C0FDD948E24AC2
:104960004179037C447B1279007B00296FD0002AB7
:104970006ED126E2D34FF87810B188F801A0CBE1D0
:10498000DA4E1FFA89F1731C601C7A6CFFF702F98A
:10499000099830700B9806AB81B230467A6CFFF7FD
:1049A0008FF8701906F2453410F8041D427841EA78
:1049B00002218278C07841EA024141EA006006990A
:1049C00088424AD1A4F254400090BD4BBA8B711C6E
:1049D000786CFFF799F83079717940EA0120B17964
:1049E00040EA0140B864F079317A40EA0120717AF6
:1049F00040EA0140B17A40EA0160F864F07AA4F537
:104A0000A271C0F3021281F8212000F00F0081F89A
:104A10002800307B10F00F00086102D15046C1F829
:104A200010A04FF47A725043086100F57A70486123
:104A3000AE48113D0D300D908DF838500DA9F87B22
:104A400001F015FD002004E00DE009E0A5E1B5E16D
:104A5000B9E1607087F803A080E7072060707DE708
:104A6000A3A004F0C5FCAB4890F82D008DF81E0003
:104A70009D48183800798DF81D0009208DF81C001C
:104A80009048817C11B10A218DF81C1007A9C07BC8
:104A900001F023FF0146A5F10D0000B2002800DA65
:104AA0000020884204D99049183981F801A033E1E7
:104AB0006078A178834A40EA0120E17840EA014029
:104AC000217940EA01600390D26C052190427D4833
:104AD00015D0076A0CE03A680398824207D1381D66
:104AE0000490103008904FF0010B7E6A08E0BF6A16
:104AF000002FF0D1BBF1000F02D10B214AE1866AF1
:104B0000605C491C8146625C491C00F00F00615CDE
:104B100008300990601942EA012110F8042D059B24
:104B20001A43437842EA03228378C07842EA034278
:104B300042EA00600590881B1FFA80F806A9B8F5C4
:104B4000004F12D24644CDF800A0CDE901610B9888
:104B5000DDE9033281B22046FEF754FEDDE90501AE
:104B600088421AD101200C9017E00FFA88F03044E7
:104B700000F58030CDF800A00F90CDE901010B9831
:104B8000DDE9033281B22046FEF73CFEDDE9050196
:104B9000884202D101200F9E0C9011208DF81C003C
:104BA000484807A9C07B01F098FE404505D84E480B
:104BB0000A21183841704661AEE00C9800287DD07B
:104BC000DFF824814FF0000CA8F11808C9F3001099
:104BD00088F801C088F802B088F80500C8F808C055
:104BE000414A88F80CC03748C8F8146082F801C000
:104BF000C0F82CC05FEA0B0180F809C04FF0080B29
:104C00000BD0022188F80010796AB14203D111B1AA
:104C100088F801B080E07E621DE00A990523B3EBBD
:104C2000511F0ED180F806A088F800A0816AB14219
:104C300010D179B1234919310B7843F004030B707B
:104C400008E080F806C088F800C0816AB14201D14E
:104C50000029DDD186621178012962D080F808C070
:104C60000998281A001F002871DD099F09987F1CE8
:104C7000E91B205C091F88F803000028CDB24FEA29
:104C8000097059D038B114980821C3B2781EC2B245
:104C9000204600F087FCDFF85490CDF800A0CDE965
:104CA0000169E0192946039B089AFFF747FAC8F8FB
:104CB000089088F80C5088F80DA064E069E00000C6
:104CC000000D002070000020A0A300083C2D2D2D19
:104CD0002D2D2D2D4F6E526164696F5278446F6E89
:104CE0006528290D0A000000501100201F0E002029
:104CF0004652414D455F545950455F444154415FD0
:104D0000434F4E4649524D45445F444F574E0D0A5E
:104D1000000000002010002000F0E0FB15B0BDE80E
:104D2000F08F5FEA89619BD580F808C0C9F3401015
:104D3000107188F8120093E750B12F48017841F0C4
:104D40000401017082F804C088F812C01BE010E072
:104D50002A48CDF800A0CDE90160DDE90332E01971
:104D60002946FFF7EBF914982A46C3B200212348DD
:104D700007E05FEA097006D014980821C3B2204604
:104D8000099A00F00FFC1C48017841F00201017003
:104D9000E4E50C211A484170BEE7611C2A46174819
:104DA00005F07EF8032188F80010002188F8011032
:104DB0001249C8F8081088F80C90E4E7022B02D0DA
:104DC00005E0844203D90E48143803F079FF0C48FB
:104DD0001438007A0028A1D10748017841F0200159
:104DE000017007480121A83803F032FF0448A838B1
:104DF00003F036FF92E70000890000201F0E00201C
:104E00003811002070B51B4C207C022802D01A48B3
:104E1000C06A80471949174D207E6379193501F121
:104E2000140258B1062003B148705070207C02284B
:104E30001CD0287840F02000287070BD052003B1F8
:104E400048705070207C022810D0206D03F066FE60
:104E5000616E884207D30948683803F031FF28782B
:104E600040F020002870207C0228E6D1BDE8704088
:104E700000F0B2B970000020A0A30008501100207B
:104E800070B51DA004F0B4FA214C207C022802D099
:104E90002048C06A804720491D4D207E637919351E
:104EA00001F1140258B1042003B148705070207C05
:104EB00002281CD0287840F02000287070BD032004
:104EC00003B148705070207C022810D0206D03F090
:104ED00025FE616E884207D30F48683803F0F0FE64
:104EE000287840F020002870207C0228E6D1BDE818
:104EF000704000F071B900004F6E526164696F52EA
:104F00007854696D656F757428290D0A00000000DA
:104F100070000020A0A30008501100202DE9FE4FD2
:104F200003F0FAFD384C0546207C022803D03748B0
:104F3000C06A804701E000F04FF9334FDFF8D0A09E
:104F4000A07819370AF114084FF00109002658B368
:104F5000A8F19000216E03F07BFEA8F1900003F011
:104F60007FFE207C02280DD0A8F17C00616E03F04A
:104F70006FFEA8F17C0003F073FE207C022801D0B4
:104F80006079F8B112208DF8080002A9E07B01F0E9
:104F9000A4FC616E01441E482C3803F059FE1C48E5
:104FA0002C3803F05DFE0DE08AF80160042188F8DA
:104FB0000110387810B9484687F80090C0B240F028
:104FC000200038703878000702D598F80000B8B192
:104FD000A675207D60758DF80000E0788DF80100E1
:104FE00001956946E07B01F0C4FC256560790028E5
:104FF00004D18AF80160A07A401CA072BDE8FE8F3F
:1050000084F81690E5E7000070000020A0A30008D7
:10501000501100200B4810B5007C022803D00A482C
:10502000C06A804701E000F0D7F8084902204870C4
:105030001431487003481930017841F020010170A3
:1050400010BD000070000020A0A300085011002037
:1050500070B5164803F034FE154D144C0020287628
:105060002834297DA4F1DC06217096F82110E17026
:1050700096F82D102174A97C6174A074E074287CCA
:10508000022802D10B48006B8047084AE87B68324F
:10509000A2F1400101F05DFCA07CF16802F08CFB04
:1050A000BDE8704004A004F0A3B90000D4100020B3
:1050B00070000020A0A300084F70656E52785769F9
:1050C0006E646F7720310D0A000000002DE9F04179
:1050D000184803F0F5FD184E164C01252834307D94
:1050E000A4F1F0072070786A606097F82D002074B2
:1050F000B07C6074E574307C022802D00020A0747B
:1051000000E0A5740D48006B80470A4AF07B5432DA
:10511000A2F12C0101F01DFC002809D0A07CF96847
:1051200002F04AFB3576BDE8F04105A004F060B915
:10513000BDE8F081E810002070000020A0A3000866
:105140004F70656E527857696E646F7720320D0A22
:105150000000000010B5064803F0B2FD0548416BA1
:1051600021F010014163BDE81040012003F084B834
:10517000C01000207000002030B589B0144803F042
:105180009FFD01258DF8145005A8FEF7BDFD0028F0
:1051900016D19DF818000F4C012813D004F110010E
:1051A00001910020083102918DF8000008318DF83E
:1051B000100003916846FEF745FF38B10320607187
:1051C00009B030BD022060712571F9E70420F6E7CF
:1051D000C002002000000020044910B500208860B3
:1051E000FFF774FF02490220087610BD101100205D
:1051F00070000020F0B505004FF00003184600D005
:10520000E2B90020F0BDEC5CA61E092E14D2DFE846
:1052100006F0131113050F110B1305005B1C14543A
:10522000DBB2401CEC5CC0B21454401CC0B203E0C2
:105230009B1C00E05B1CDBB25B1CDBB28B42E2D34D
:10524000F0BD00002DE9F04F87B0DFF87C824FF011
:10525000000A109FCDF818A0A8F81AA016460C4610
:105260001D1E88F805A000D10027FAB2974F88F8D4
:1052700000200178397000784FF0010C6146400938
:1052800009D002284CD0042848D007287ED002201C
:1052900007B0BDE8F08FA8F81A10781C0822D8F8DB
:1052A000401004F006FEB8F81A000822083080B258
:1052B000A8F81A003844D8F83C1004F0FAFDB8F801
:1052C0001A000830A8F81A00814840698047A8F8F9
:1052D0001C00B8F81A1006AB7854491C89B2000AB1
:1052E0007854491CA8F81A10C9B27848D8F8442054
:1052F000FEF7E6FBB8F81A1006987854491C89B2F4
:10530000020A7A54491C89B2020C7A54491C89B2A7
:10531000000E7854491CA8F81A10D3E088F805C08C
:1053200098F80300002865D08DF80CC02078694AF1
:10533000C0098DF80D00D8F82C00049012F8010F68
:105340008DF8140012F8010C8DF8150092F82B005E
:105350008DF816005C48E3462C3000905D4B03A9A5
:1053600098F80F0001F06CF80146207861F3861080
:10537000207098F8061021B188F806A040F02000AF
:105380002070D8F84C10B946797000E08FE00A0A16
:10539000BA700A0CFA70090E397121787971B8F86F
:1053A0002410B971090AF9714B4898F808100827B8
:1053B0000844494998F80920803104F071FD98F8B3
:1053C000081098F809000844C1B2404688F808104F
:1053D000DDB10278CAB1C279F2B10F2918D82078AC
:1053E0004B46421862F30300207089F80500002044
:1053F000394A07E007204BE7145CDC557F1C401C52
:10540000FFB280B28842F7D306E029B1C2791AB15F
:10541000314D88F8001000262F4A444688F807A02E
:1054200080322D48FFF7E6FE607208B184F807B0BD
:105430009DB1217889B109F807607F1CFFB256B38E
:10544000636A09EB0700CDF800A0CDE901301F4ADF
:10545000E36C103A2846FEF77BFE207806AA39183E
:105460006183636ACDF800A0CDE90132174A17487D
:10547000203AE36CFEF7C6F9618B069809EB01024E
:1054800009F80100030A5370030C000E9370D070EA
:10549000091D618316E084F808A0504609EB070354
:1054A000626A8DE80D00094AE36C203AD2E74BB1FD
:1054B00042B1781C294604F0F3FC98F80000401C27
:1054C000A8F81A000020E3E670000020200D00205C
:1054D000A0A30008201000201E0F00200C4810B5CB
:1054E000416B41F040014163407908B1FFF772F828
:1054F00007491931087840F0220008700121054859
:1055000003F0A6FBBDE81040024803F0A9BB000071
:105510007000002090100020F0B5002702241F4AE0
:105520001F49012303250526022810D0E0280DD1AC
:1055300001F5987C9CF80E0001281DD09CF8010014
:10554000012824D0042801D18CF80130F0BD0B20B3
:10555000507090700F704B708C70CD70042008717B
:105560004E71062088710720C87108200872092032
:1055700048720A208872F0BD8CF80E7055700E705B
:105580009CF80F0048709CF810008870DCE754709D
:10559000BCF80C00020A0A704870F0BD0000002040
:1055A000CC0100202DE9FF4F89B093460C460546FB
:1055B0004FF00009DFF89C82A74F24E1285D641CAE
:1055C000801EE4B209286ED2DFE800F00510626E9A
:1055D000A3AFD7ECFE00A14981F80190285D0872C5
:1055E000641CE0B22A5C4A72401C4FE02819401E3D
:1055F0000690ABEB04008DF80890401C8DF80C90E1
:105600008DF810908DF814908DF81C0038798DF875
:105610001E0098F82C008DF81D0098F801008DF8F8
:105620001F0098F800008DF8200098F820008DF8F1
:10563000210005A904A8CDE90001464603AB02AA52
:1056400006A9F87B01F05DF982466FEA0A0040077F
:1056500009D19DF8080070709DF80C0030709DF81D
:10566000100086F82000002606E0002251460320A4
:10567000FBF7B4FA761CF6B29DF814100520B1FBC6
:10568000F0F0B042F1D8C8B22044401EC4B2BAE033
:10569000285D641C0121F87281400022F983E4B284
:1056A00011460420ADE0B1E0285DC0F302108DF892
:1056B0000100285D641C00F00F008DF80000E0B2CE
:1056C000295C401CC0B201912A5C401C41EA0221C5
:1056D000C0B201912A5C401C41EA0241C4B20846B2
:1056E0006421484301906946F87B01F03BF901468B
:1056F000C84340070AD19DF8002088F82820019A65
:10570000C8F824209DF8012088F8212000220520D7
:1057100077E0F86DFF2118B1006808B180470146B5
:105720000C9800F03F0206206BE0285D8DF8100019
:10573000641CE0B2CDF80CD0295C401CC0B20091D2
:105740002A5C401C41EA0221C0B200912A5C401C44
:1057500041EA0241642200915143CDE90019C0B2EF
:10576000295C8DF80810401CC4B203A9F87B01F035
:10577000D9F801460022072043E0285D04F1010426
:1057800010F00F00E4B200D101204FF47A714843C9
:10579000C8F8100000F57A700022C8F8140011460D
:1057A00008202EE0285D641C8DF80090E4B28DF88E
:1057B0000190810602D501218DF80110C10602D5A4
:1057C00001218DF8001000E023E000F00F008DF8BB
:1057D00002006946F87B01F0E6F8401C13D046460B
:1057E0009DF8000006F82C0F9DF8010070709DF8E0
:1057F00002001B49085CFAF7CCFE002270601146DB
:105800000920FBF7EBF95C45FFF4D8AE0DB0BDE81D
:10581000F08F285D8DF80000641CE0B2295C401C0C
:10582000C0B201912A5C401C41EA0221C0B2019140
:105830002A5C401C41EA0241C4B208466421484344
:1058400001906946F87B01F041F8014600220A20E8
:10585000D7E7000020100020700000206411002015
:1058600009A30008F8B507461A48002400681A4E34
:1058700010F0F00F20D1174D1C352868C00002D55C
:10588000FBF7A4FF0DE0286840F0805028602868EE
:1058900000F080500090FBF799FF296821F08051BB
:1058A0002960B0F5C05F07D1B7F5404F04D130682B
:1058B000012440F004003060306820F001002043F3
:1058C0003060306800F00100A04201D00120F8BD36
:1058D0000020F8BD08380240003C024030B597B0C7
:1058E0001848FCF749FF4FF4807529461548FCF726
:1058F00071FF01F0BFFE144C2079D8B9684601F061
:1059000023FE1822694610A8FAF728FC00232A462D
:1059100006A90C48FCF7C8FF0798A0F2FF704142A7
:105920001298A0F2FF704042401A01F0C3FDA0603F
:10593000012020710020FBF7A9F917B0BDE8304025
:1059400003F030B9C00B002054000020010901EB26
:10595000810100F00F0000EB4100C0B27047002150
:1059600002E00A38C0B2491C0A28FAD2090740EA04
:105970001160704770B505460068C168490613D4C8
:105980004FF0FF31C160FBF76FFE04464FF47A76AB
:1059900006E0FBF769FE001BB04201D9032070BD91
:1059A0002868C0684006F4D5002070BD012070470B
:1059B00070B10B4A002152F8313083420AD802EB11
:1059C000C1039B68834205D902EBC100007B70478D
:1059D0001F207047491CC9B21529ECD3FEE700000F
:1059E00010A4000810B501F06FFF032804D00428AC
:1059F00003D0052803D0002010BD022010BD0120D7
:105A000010BD10B501F054FFC01C10BD10B5134CF3
:105A10002061134801F0F0FF002002F0E7FA0120B6
:105A200002F059FA0021084602F00FF90421002083
:105A300002F017FB00234FF6FF701A46014602F0F2
:105A40004AF90849084803F06BF807480749143039
:105A500003F066F80020A07010BD000010010020C7
:105A6000315C0008995C0008E01800203D5C0008EB
:105A7000F8B5444DA87800287ED0FBF71BF900202C
:105A8000A870FBF71FF901F015FF04464FF6FF70F1
:105A900001F002FFE00707D03B4803F011F9286945
:105AA00010B1006800B18047A0071AD536481430FD
:105AB00003F006F9FF226946344801F059FF3348E4
:105AC000143801F011FF286958B186684EB12F488B
:105AD0009DF80010143890F90D3090F90C20143016
