:020000040800F2
:10000000501A002039010008B758000843010008C1
:100010000D58000883100008E9C000080000000027
:100020000000000000000000000000004B0100087C
:1000300067120008000000004F01000819B3000813
:100040005301000853010008530100085301000840
:10005000530100085301000881120008C71200086C
:10006000D5120008E3120008F1120008530100083D
:100070005301000853010008530100085301000810
:100080005301000853010008530100085301000800
:10009000530100085301000853010008FF12000833
:1000A00053010008530100085301000853010008E0
:1000B00053010008530100085301000853010008D0
:1000C00053010008530100085301000853010008C0
:1000D000530100085301000805BE00085301000841
:1000E0008F1200080974000853010008530100082A
:1000F00053010008000000005301000853010008EC
:10010000530100085301000853010008530100087F
:1001100053010008530100085301000800000000CB
:1001200053010008DFF80CD000F00CFC0048004739
:10013000E5CB0008501A00200648804706480047D3
:10014000FEE7FEE7FEE7FEE7FEE7FEE7FEE7FEE787
:10015000FEE7FEE725B500082501000840EA010397
:100160009B0703D009E008C9121F08C0042AFAD26D
:1001700003E011F8013B00F8013B521EF9D2704731
:10018000D2B201E000F8012B491EFBD270470022D9
:10019000F6E710B513460A4604461946FFF7F0FF86
:1001A000204610BDF0B480EA0102D40F4200B2EB49
:1001B000410F02D20246084611464A0042D0C30D02
:1001C000DDB2C1F3C752AD1A202D35DAC1F31601E5
:1001D00041F4000204B15242C5F1200602FA06F1D0
:1001E0002A411044B3EBD05F23D0C4B1012DA0EB62
:1001F000C35009DCF0BC4FF0004202EAC352DBB24C
:1002000000F5000000F09FBA400000F1807000EBA4
:10021000C350A0F1807040EAD170490009E049085C
:1002200041EAC071A0EBC35000F50000400800EBAC
:10023000C350F0BC00F07EBA6142012202EB4101E2
:10024000001BF6E7F0BC704781F00041AAE780F0A0
:100250000040A7E72DE9FE4F804681EA0300C00F6A
:100260000C46009021F0004123F00045B8EB02005D
:10027000A94105D24046214690461C460B460246FF
:1002800023F00040104347D0270DC7F30A00C3F303
:100290000A510290401A019040286BDAC3F3130010
:1002A00040F4801B0098924620B10023D2EB030A51
:1002B00063EB0B0B01985946C0F14002504600F029
:1002C00008FA06460D4650465946019A00F020FAB3
:1002D00010EB08006141002487EA115284EAE773B9
:1002E0001A4340D0009A62B3019A012A4FEA07529A
:1002F00015DC001B61EB02014FF0004202EA0752DD
:10030000CDE90042001C41F5801132462B4600F039
:1003100057FA03B0BDE8F08F40462146F9E7001BCD
:1003200061EB0201001C41F5801300185B412018AD
:10033000A2F5001747EB030140EAD570B6196D41ED
:1003400011E06D084FEA360645EAC0754FEA0752DC
:10035000001B61EB0201001C41F5801149084FEAC6
:1003600030000019514132462B4603B0BDE8F04F32
:1003700000F017BA0098012240000023D0EB0202DF
:1003800063EBE073009821464FEAE074B8EB00009D
:1003900061EB0401E9E783F000435BE781F0004192
:1003A00058E72DE9FE4F81EA030404F0004421F0F0
:1003B000004100944FF0000B23F0004350EA010489
:1003C0005ED052EA03045BD0C3F30A54C1F30A556A
:1003D0002C44A4F2F3340194A0FB0254C1F31301A2
:1003E00041F48011C3F3130343F4801301FB02446F
:1003F00000FB034E840A970A44EA815447EA835774
:10040000A4FB076802958D0A05FB07854FEA932C2C
:1004100004FB0C542705029D4FEA065847EA16379D
:10042000B5EB08056EEB070C870E920E47EA8117B5
:1004300042EA8312A7FB0201B6EB0B0164EB000456
:100440002B0D43EA0C335E1844EB1C50DA46514640
:10045000E7FB0201C5F313044FEA0B3343EA1453DD
:100460004FEA0432019C43EA0603A4F10C0402940F
:10047000009CCDE900B400F0A3F903B0BDE8F08F13
:1004800000200146F9E72DE9F04D81EA030404F06C
:10049000004B21F0004514464FF0000A23F00041C4
:1004A00050EA050220D054EA01021DD0C5F30A57D4
:1004B0000246C5F31303C1F31300C1F30A5640F417
:1004C000801543F48013A7EB0608101BD64608F2EC
:1004D000FD3873EB050002D308F1010801E0921822
:1004E0005B41B8F1000F03DA00200146BDE8F08D52
:1004F00000204FF48011064684460EE0171B73EB74
:10050000050705D3121B63EB050306434CEA010CF8
:1005100049084FEA300092185B4150EA0107EDD1DB
:1005200052EA030012D082EA040083EA050108437C
:1005300005D0101BAB4106D20122002306E00022A9
:100540004FF0004302E06FF0010253101AEB060077
:100550004CEB085110EB0A0041EB0B01BDE8F04DEC
:1005600000F01FB996230022114600F0ECB80EB53A
:10057000C10F80EAE0700844CA07002140F233430B
:100580008DE80E000A460B4600F01AF903B000BDD4
:100590000EB540F2334102910021CDE900110A4627
:1005A0000B4600F00DF903B000BD70B5C1F30A525F
:1005B00001F000450024C1F3130140F2FF3341F480
:1005C00080119A4201DA002070BD40F233439A4212
:1005D000A2F2334203DC524200F08AF800E090407D
:1005E0002C43F1D0404270BDC1F30A5210B5C1F3A3
:1005F000130140F2FF3341F480119A4201DA0020E6
:1006000010BD40F233439A42A2F2334203DC52421D
:1006100000F06EF810BD904010BD00F0004230F0C8
:1006200000400AD0C10D01F56071C0F3160042EA26
:100630000151C2084007114370470020014670472E
:1006400030B5041E71F1000404DB4FF00044404259
:1006500064EB0101141E73F1000405DB1C464FF02E
:100660000043524263EB0403994208BF904230BDFD
:100670002DE9F05F0546002092469B4688460646D7
:10068000814640241BE0284641464746224600F06A
:100690002FF853465A46C01A914110D311461846B6
:1006A000224600F016F82D1A67EB01084F46224645
:1006B0000120002100F00DF817EB00094E41201E2B
:1006C000A4F10104DFDC484631462A464346BDE832
:1006D000F09F202A04DB203A00FA02F10020704744
:1006E0009140C2F1200320FA03F319439040704770
:1006F000202A04DB203A21FA02F00021704721FA77
:1007000002F3D040C2F120029140084319467047DD
:10071000202A06DBCB17203A41FA02F043EAE073C5
:1007200006E041FA02F3D040C2F1200291400843B2
:10073000194670470029A8BF7047401C490008BFF0
:1007400020F00100704710B4B0FA80FC00FA0CF001
:1007500050EA010404BF10BC704749B1CCF1200439
:1007600021FA04F411FA0CF118BF012121430843C6
:10077000A3EB0C01CB1D4FEA00614FEA102042BFF2
:10078000002010BC704700EBC35010440029A4BFE8
:1007900010BC7047401C490008BF20F0010010BC8D
:1007A000704710B5141E73F1000408DA401C41F1C3
:1007B000000192185B411A4301D120F0010010BDE5
:1007C0002DE9F04D92469B4611B1B1FA81F202E05B
:1007D000B0FA80F220329046FFF77BFF04460F46C6
:1007E00040EA0A0041EA0B0153465A46084313D037
:1007F000114653EA010019D0C8F140025046FFF7F4
:1008000077FF05460E46504659464246FFF761FFC0
:10081000084305D0012004E020463946BDE8F08DAC
:100820000020054346EAE0762C4337430A986305E7
:10083000E40AA0EB08000022FD0A44EA47540A300B
:1008400002D500200146E9E7010510196941DDE9FB
:10085000084500196941BDE8F04DA2E770B521F0E7
:10086000004303430CD0C1F30A550024D5EB040523
:1008700064EB0403D617AD1AB34102DB0020014636
:1008800070BD201841EB025170BD00002DE9F04110
:10089000054621F000400C46284309D0C4F30A5015
:1008A00040F23341884205DD28462146BDE8F0810B
:1008B0002846FBE740F2FE31884210DC0CDB4FEAB1
:1008C000043040EA155050EA053105D0104804F0D4
:1008D000004101430020E9E700200146E6E7A0F2DD
:1008E00033404642C6F1400228462146FFF7F1FE5A
:1008F00007468846284621463246FFF7F9FE43461A
:100900003A46FFF74EFF3246BDE8F041FFF7E1BE41
:100910000000F03F30B5041E71F1000404DB4FF01D
:100920000044404264EB0101141E73F1000405DB36
:100930001C464FF00043524263EB04038B4208BF56
:10094000824230BD064C074D06E0E06840F00103EE
:1009500094E8070098471034AC42F6D3FFF7E6FB63
:1009600020E5000840E500082DE9F04D00231A4677
:100970001B1A8A4103DB00200146BDE8F08DC1F35C
:100980000A52C1F3130141F480154FF0000BD10757
:1009900002D100186D41521E0027044640F2FF119B
:1009A000384601EB620A3E468046024600204FF47C
:1009B0008011FFF79DFEC2197141BB1846EB010083
:1009C000B4EB030C75EB000C04D3E41A65EB0005E3
:1009D00017460E46241908F101006D41804634285F
:1009E000E3DDF91946EB0600091BA84103D24FF0DD
:1009F000FF32134601E0002213461BEB070046EBD3
:100A00000A51BDE8F04DFFF7CCBE70B58C1810F858
:100A1000015B15F0070301D110F8013B2A1106D143
:100A200010F8012B03E010F8016B01F8016B5B1E5D
:100A3000F9D12B0705D40023521E0DD401F8013B38
:100A4000FAE710F8013BCB1A921C03E013F8015BA4
:100A500001F8015B521EF9D5A142D8D3002070BD28
:100A600030B589B005460C461022002105A80CF0CF
:100A7000E3F9224605A905A80BF06DFE9DF81400C8
:100A800000F08000E8B100BF00200AE005A9095C81
:100A90004A0005AB411C595C42EAE11105AA115418
:100AA000401C0F28F2DB9DF823104906090E8DF833
:100AB000231000BF9DF8230080F087008DF82300ED
:100AC00016E000BF00200AE005A9095C4A0005AB5A
:100AD000411C595C42EAE11105AA1154401C0F283F
:100AE000F2DB9DF823104906090E8DF8231000BF94
:100AF000D4F8140110280FD100BF002009E004F23F
:100B00000111095C05AA125C514004F20112115452
:100B1000401C1028F3DB5DE09DF8140000F080001D
:100B2000E8B100BF00200AE005A9095C4A0005AB56
:100B3000411C595C42EAE11105AA1154401C0F28DE
:100B4000F2DB9DF823104906090E8DF8231000BF33
:100B50009DF8230080F087008DF8230016E000BF89
:100B600000200AE005A9095C4A0005AB411C595C5C
:100B700042EAE11105AA1154401C0F28F2DB9DF84E
:100B800023104906090E8DF8231000BF802104F2BE
:100B90000110D4F81421815405E0002104F2011061
:100BA000D4F814218154D4F81401401CC4F8140161
:100BB0001028F2D300BF002009E004F20111095C03
:100BC00005AA125C514004F201121154401C102875
:100BD000F3DB00BF00BF00200AE004F1F101095C73
:100BE00004F20112125C514004F1F1021154401C54
:100BF0001028F2DB00BF102204F1F10101A80CF073
:100C000001F92246294601A80BF0A5FD102200217A
:100C100005A80CF011F909B030BD10B5044610223A
:100C2000002104F1F1000CF007F90020C4F81401D0
:100C3000F022002120460CF0FFF810BD70B50446EC
:100C40000D462246102128460BF0B2FD70BD2DE95D
:100C5000FF4104460F461546D4F8140100283BD046
:100C6000D4F81401C0F11000A84204D2D4F8140141
:100C7000C0F1100000E028460646B2B204F20111AD
:100C8000D4F81431581839460CF0BCF8D4F81401D3
:100C90003044C4F81401D4F81401102801D3B5422B
:100CA00001D1BDE8FF8100BF00200AE004F1F1019D
:100CB000095C04F20112125C514004F1F10211547A
:100CC000401C1028F2DB00BF224604F1F101084667
:100CD0000BF041FD3744AD1B21E000BF002008E0D0
:100CE00004F1F101095C3A5C514004F1F102115444
:100CF000401C1028F4DB00BF102204F1F10168460B
:100D00000CF080F82246694668460BF024FD10225C
:100D1000694604F1F1000CF075F81037103D102D04
:100D2000DBD8AAB2394604F201100CF06BF8C4F813
:100D3000145100BFB5E700002DE9F04104460E460E
:100D400017464FF001086B480078C0F18000C5B22B
:100D5000A01E092872D2DFE800F005142B3A537266
:100D6000899AA90064480078A84209DA62480178A3
:100D70000078401C604A1070604844544FF00008EE
:100D8000AFE0681E5C490978884210DD5A48017856
:100D90000078401C584A1070584844541046017856
:100DA0000078401C1070554846544FF0000898E0F9
:100DB00051480078A84209DA4F4801780078401C71
:100DC0004D4A10704D4844544FF0000889E0681EA9
:100DD00049490978884212DD474801780078401C6B
:100DE000454A107045484454104601780078401C2C
:100DF00010704248465409F0EBFF4FF0000870E0D5
:100E0000A81E3D490978884217DD3B4801780078E3
:100E1000401C394A10703948445410460178007813
:100E2000401C107035484654104601780078401C2C
:100E30001070324847544FF0000852E04EE0681EF0
:100E40002D490978884210DD2B4801780078401C34
:100E5000294A107029484454104601780078401CF3
:100E60001070264846544FF000083AE022480078B7
:100E7000A8420BDA204801780078401C1E4A107006
:100E80001E48445409F0A4FF4FF0000829E01A4816
:100E90000078A84209DA184801780078401C164A00
:100EA0001070164844544FF000081AE012480078B9
:100EB000A84212DA104801780078401C0E4A1070DF
:100EC0000E484454104601780078401C10700B48BE
:100ED000465409F07DFF4FF0000802E00220BDE813
:100EE000F08100BFB8F1000F02D101200449087061
:100EF0004046F4E7AC000020AB0000202A0F0020A1
:100F0000AA00002010B50446012C01D108F0D4FE3F
:100F10000148047010BD00005600002010B50348C1
:100F200009F0BCFF09F0C2F810BD0000B8150020A0
:100F300072B603480078401C0149087070470000F1
:100F40005100002004480078401E034908700846FC
:100F5000007800B962B67047510000200020704749
:100F6000054800680449D039D1F8D41048400249F6
:100F70001431096848407047D000F81F0EB5334857
:100F80000078002845D100F061FE00200090034663
:100F90000122212101902E4800F020FA002000902B
:100FA00003460122202101902A4800F017FA002070
:100FB0000090034602462D210190274800F00EFACA
:100FC0000AF0B0F901202549087082022449254819
:100FD00000F0AAF94FF48062234922480C3000F057
:100FE000A3F90323022201211E481C380AF042FF04
:100FF00000200090019003464FF4E132022102905C
:1010000018481C380AF022FF08F0FAFD00F031F809
:1010100001E00AF005FA4FF0FF3005210623072210
:10102000CDE90010002111480AF090F809F060F8AD
:101030000648007840B901200449087000F0BAF968
:10104000012801D100F058F80EBD00004E0000202C
:101050001C03002028030020340300204F00002040
:101060008C0300205C0300208C070020B8150020B2
:10107000704710B500F0A8FB00F0BAFB00F0AEFB23
:1010800010BD00BFFEE700003EB5044612480078E0
:101090008DF80000114800788DF802008DF80340AB
:1010A0000F4800680AF084FA01900E480068029028
:1010B0000D4800788DF8010069460C48007807F06B
:1010C0001FFF084800680A4909884843054909681C
:1010D000401A084908603EBDA2000020BC00002064
:1010E000C0000020DC000020BF00002070000020B5
:1010F000B0000020B800002010B50B48007890B96F
:101100000A490B480AF05EFA4FF47A7108480AF06F
:1011100025FB07480AF02CFB01E00AF0EDFA024833
:1011200000780028F9D010BD500000206559000853
:10113000780300202DE9F04104460D4616461F466F
:10114000DDF818802CB9022D0ED108480AF054FBA6
:101150000AE0012E03D105480AF04EFB04E04745A2
:1011600002DD02480AF048FBBDE8F08130110020A2
:1011700030B50246002300200AE0012484401440D8
:1011800001258540AC4201D15C1CE3B2441CE0B2B5
:101190008842F2DB184630BD2DE9F84F07468846F5
:1011A00091461E464FF0000AD346002500200090CD
:1011B00051E0002446E0009839F810000121A140D8
:1011C000084098B3281900EB400056F8200000B9F9
:1011D00036E02FB90120A04000F0030000B92FE055
:1011E000281900EB400006EB800090F9080002117E
:1011F000281900EB400006EB8000007A40F3030161
:101200004FFA88F008F050F900B919E0281900EBFE
:10121000400006EB8000417A0A9800EB0110C0689C
:1012200028B10BF1010000F0FF0B09E007E02819DD
:10123000C2B25046411C01F0FF0A0B990A5400BF8C
:10124000601CC4B2102CB6DB05F11000C5B20098CA
:10125000401CC0B20090102DABDB0C9880F800B0A1
:101260005046BDE8F88F704710B50446204600F0A0
:1012700001F810BD10B50446204600F0C3FA10BDB9
:1012800010B508F019FD012000F0E0FA10BD10B50E
:1012900008F012FD4FF4806000F0D8FA4FF40060BF
:1012A00000F0D4FA4FF4805000F0D0FA4FF4005020
:1012B00000F0CCFA4FF4804000F0C8FA4FF4004040
:1012C00000F0C4FA10BD10B508F0F6FC022000F0E2
:1012D000BDFA10BD10B508F0EFFC042000F0B6FA1E
:1012E00010BD10B508F0E8FC082000F0AFFA10BD02
:1012F00010B508F0E1FC102000F0A8FA10BD10B500
:1013000008F0DAFC202000F0A1FA402000F09EFA5C
:10131000802000F09BFA4FF4807000F097FA4FF4B1
:10132000007000F093FA10BD0023038043804160F9
:101330000281704710B502461389481C90FBF3F4F4
:1013400003FB140080B210BD70B50446218820460E
:10135000FFF7F0FF61680D5C21882046FFF7EAFF88
:101360002080284670BD70B504460D466188204631
:10137000FFF7E0FF608061886068455470BD000041
:1013800001460B4850F82100A0F5F430483840B130
:10139000A0F5F430483830B1A0F57430903820B161
:1013A00000BF002070470120FCE70220FAE70000A0
:1013B00030DD00080348007808B90120704700209C
:1013C000FCE700004F000020024600238A4201D1C2
:1013D000CBB201E0501EC3B258B270472DE9FC47B2
:1013E00004460D4616461F46DDE90A893B4632464D
:1013F00029462046CDE9008900F002F8BDE8FC87C7
:101400002DE9F04387B004460E4615461F46DDE938
:101410000E98702E7ADA2670701C10B907B0BDE8ED
:10142000F083207800F00F01012088406080207850
:1014300000F0F00078B94848606000BF4748006895
:1014400040F00100454908600846006800F00100CE
:10145000019000BF4EE0207800F0F00010280FD17E
:101460003F48606000BF3D48006840F002003B49D3
:1014700008600846006800F00200019000BF39E0F3
:10148000207800F0F00020280FD13648606000BFBF
:101490003248006840F0040030490860084600689F
:1014A00000F00400019000BF24E0207800F0F0007C
:1014B00030280FD12C48606000BF2848006840F0F9
:1014C0000800264908600846006800F008000190FE
:1014D00000BF0FE02548606000BF2048006840F072
:1014E00020001E4908600846006800F020000190B6
:1014F00000BF00BF6088029084F80A90CDF8109079
:10150000022005901DB90020039018E022E0032D71
:1015100002D10320039012E0022D09D1012F02D144
:101520001220039001E002200390CDF8188006E01D
:10153000012F02D11120039001E001200390012D21
:1015400003D14146204600F0EFF802A9606800F0A0
:101550008BF900BF00BF61E7000002401C38024069
:101560000004024000080240000C02400014024047
:1015700010B5044694F90000702810DA24B94FF42D
:10158000997108A00BF0B2F994F90000401C08B959
:10159000002010BD6188606800F012FBF9E70020B0
:1015A000F7E700002E2E5C2E2E5C2E2E5C2E2E5C7D
:1015B0007372635C626F617264735C4E75636C65B9
:1015C0006F4C3135325C6770696F2D626F61726488
:1015D0002E6300002DE9F04385B004460D46164603
:1015E0001F4694F9000070286FDA4FF000084FF0A2
:1015F000060917B905B0BDE8F08360880090012D99
:1016000002D14548019006E0022D02D143480190E5
:1016100001E043480190A07A0290022003906946BD
:10162000606800F021F9052E0ED2DFE806F0030411
:10163000070A0E0000BF4FF0030809E04FF0020850
:1016400006E04FF0010803E000BF4FF0000800BFC4
:1016500000BF6088B0F5807F3ED012DC102835D006
:1016600008DC012825D0022826D0042827D0082805
:101670003ED127E020282CD040282BD0802837D1FD
:1016800029E0B0F5805F2DD009DCB0F5007F24D0D3
:10169000B0F5806F24D0B0F5006F29D121E0B0F50E
:1016A000005F20D0B0F5804F1ED0B0F5004F1FD1A5
:1016B0001BE04FF006091CE04FF0070919E04FF05E
:1016C000080916E04FF0090913E022E04FF00A097B
:1016D0000FE000BF00BF00BF00BF4FF0170908E0D8
:1016E00000BF00BF00BF00BF00BF4FF0280900E0EF
:1016F00000BF00BF207800F00F000A4941F82070B9
:1017000000224146484600F0DBFA484600F0C0FAA5
:1017100000BF00BF6EE700000000111000002110A4
:10172000000031108C0B002070B504460D4694F972
:101730000000702811DA0CB1606820B940F2011184
:1017400007A00BF0D3F894F90000401C00B970BD5D
:10175000EAB26188606800F04BFA00BFF7E700006A
:101760002E2E5C2E2E5C2E2E5C2E2E5C7372635CF5
:10177000626F617264735C4E75636C656F4C31357A
:10178000325C6770696F2D626F6172642E63000056
:1017900010B504462046FFF7EBFE10BD2DE9F041E1
:1017A00004460D4616461F463B463246294620460D
:1017B000FFF710FFBDE8F08170B504460D462946DD
:1017C0002046FFF7B1FF70BD0348406840F00100BC
:1017D0000149486070470000002004E00348406869
:1017E00040F004000149486070470000002004E018
:1017F0000348406840F0020001494860704700001B
:10180000002004E031B5002400F012FA044600BFC5
:1018100000F00EFA001B00998842F9D338BD000091
:1018200070B504460025002C05DD02E06410681C3C
:10183000C5B2012CFAD1044850F8250018B102496C
:1018400051F82500804770BD8C0B002010B5044670
:1018500004480068204020B1024804602046FFF799
:10186000DFFF10BD140401402DE9F84305460C4686
:101870000027B8460026C048854214D0BF4885429C
:1018800011D0BF4885420ED0BE4885420BD0BE481D
:10189000854208D0BD48854205D0BD48854202D06A
:1018A000BC48854200D103E0CB21BB480BF01EF8B9
:1018B000208880B220B120686FF30F0000B903E0E8
:1018C000CC21B5480BF012F8606830B3606801288D
:1018D00023D06068112820D0606802281DD060687D
:1018E00012281AD0AD496068884216D0AC496068A9
:1018F000884212D0AB49606888420ED0AA4960681D
:1019000088420AD0A9496068884206D0A849606820
:10191000884202D06068032800D103E0CD219E48B0
:101920000AF0E4FFA06828B1A068012802D0A068EE
:10193000022800D103E0CE2197480AF0D7FF13E137
:101940000121B940206800EA0108B8F1000F7DD0FC
:101950006068022802D06068122838D18648854223
:1019600014D08648854211D0854885420ED08548DE
:1019700085420BD08448854208D08448854205D0F2
:101980008348854202D08348854200D103E0DD21AF
:1019900081480AF0ABFF20690F2800D803E0DE2160
:1019A0007D480AF0A3FFF90805F1200050F82160F6
:1019B0007807C10E0F20884086437907C90E206939
:1019C00088400643F90805F1200040F821602E68A0
:1019D0007900032088408643207900F003007900D5
:1019E000884006432E606068012808D0606802289D
:1019F00005D06068112802D06068122823D1E06801
:101A000040B1E068012805D0E068022802D0E06813
:101A1000032800D103E0F3215F480AF067FFAE68B6
:101A200079000320884086437900E06888400643B7
:101A3000AE606E680120B84086432079C0F3001084
:101A4000B84006436E60EE68790000E08BE003204A
:101A5000884086437900A06888400643EE6060684D
:101A600000F08050B0F1805F7DD100BF5148006828
:101A700040F001004F4908600846006800F001008E
:101A8000009000BF00BF4C48B90850F82160B8076B
:101A9000010F0F20884086433748854201D100203E
:101AA0001EE03648854201D1012019E034488542C4
:101AB00001D1022014E03348854201D103200FE018
:101AC0003148854201D104200AE03248854201D1E3
:101AD000052005E02D48854201D1062000E00720C1
:101AE000B907090F884006433348B90840F8216018
:101AF0003248066826EA0806606800F48030B0F5CF
:101B0000803F01D146EA08062C480660001D0668A1
:101B100026EA0806606800F40030B0F5003F01D105
:101B200046EA08062548001D0660001D066826EAEC
:101B30000806606800F48010B0F5801F01D146EA05
:101B400008061E4808300660001D066826EA0806DA
:101B5000606800F40010B0F5001F01D146EA0806E5
:101B600016480C3006607F1C2068F84000287FF47F
:101B7000E7AEBDE8F8830000000002400004024028
:101B800000080240000C0240001002400018024011
:101B9000001C02400014024094E2000800001110F2
:101BA000000021100000311000001210000022106F
:101BB00000003210203802400800014000040140BB
:101BC00070B506460C46A0B218B1200C000400B94E
:101BD00004E04FF4CC7105480AF088FE30692040DB
:101BE00008B1012500E00025284670BD94E20008F8
:101BF00070B506460C461546A0B218B1200C00047C
:101C000000B904E04FF4DB7108480AF06FFE0DB133
:101C1000012D00D104E040F2B71104480AF066FE3D
:101C20000DB1B46101E02004B06170BD94E2000820
:101C30000148006870470000680000200248006802
:101C4000401C0149086070476800002010B503205F
:101C500000F084F8002000F005F800F017F80020EC
:101C600010BD000070B50446074800684FF47A7153
:101C7000B0FBF1F5284602F0DEFA00222146501EA4
:101C800000F01EF8002070BD6400002070470000C6
:101C900010B50446002C00DB03E0E72107480AF0FA
:101CA00025FE00BF04F01F01012088406109890062
:101CB00001F1E021C1F8000100BF10BD40E20008C1
:101CC0002DE9F05F80460C4615460027102D00D206
:101CD00003E0D32120480AF009FE102C00D203E0D3
:101CE000D4211D480AF002FE03F0E6FD07463946FE
:101CF00022462B4601F00700C0F1070ABAF1040F93
:101D000002D94FF0040A01E0C0F1070AD14600F100
:101D1000040ABAF1070F02D24FF0000A01E0A0F165
:101D2000030AD4464FF0010A0AFA09FAAAF1010A95
:101D30000AEA020A0AFA0CFA4FF0010B0BFA0CFB42
:101D4000ABF1010B0BEA030B4AEA0B0631464046A6
:101D500003F0BAFDBDE8F09F40E2000810B504466C
:101D6000072C07D0062C05D0052C03D0042C01D05D
:101D7000032C00D103E0BB2109480AF0B7FD00BFE6
:101D800004F00701074A10684FF6FF021040064AA8
:101D9000024342EA0120034A106000BF10BD000068
:101DA00040E200080CED00E00000FA05012081028D
:101DB00091FAA1F1B1FA81F1014A42F8210070478C
:101DC00000000E420120410291FAA1F1B1FA81F125
:101DD000014A42F82100704700000E4202480068A4
:101DE00000F4C05070470000007000400020102137
:101DF00091FAA1F1B1FA81F1014A42F8210070474C
:101E000000000E4270B504460D460CB1012C00D105
:101E100004E040F2012114480AF068FD012D01D0D0
:101E2000022D00D104E040F202210F480AF05EFDCD
:101E30000E48006820F0030020430C4908600C485D
:101E4000006840F004000A490860012D01D130BF4C
:101E500002E040BF20BF20BF0548006820F004001A
:101E60000349086070BD0000E4E200080070004013
:101E700010ED00E0F8B50446002600252068012892
:101E800003D32068022800D803E0742199480AF09F
:101E90002DFD207800F0010020B9207800F002002C
:101EA000022871D1207800F00100F0B16068B8B16B
:101EB0006068B0F5803F13D06068B0F5003F0FD088
:101EC0006068B0F5403F0BD08B496068884207D00E
:101ED0008A496068884203D089496068884200D195
:101EE00003E0802183480AF001FD207800F0020021
:101EF00002281ED1A068B8B1A068B0F5803F13D009
:101F0000A068B0F5003F0FD0A068B0F5403F0BD0FF
:101F10007949A068884207D07849A068884203D0F0
:101F20007749A068884200D103E0862171480AF011
:101F3000DDFC00277348006800F0805070B900BFD6
:101F40007048006840F080506E490860084600689C
:101F500000F08050009000BF00BF01276A48006871
:101F600000F48070B8B96848006840F48070664931
:101F70000860FFF75DFE064607E0FFF759FE801B8D
:101F8000642802D90320F8BDB2E05F48006800F47D
:101F900080700028F1D05B482438006800F0C0450C
:101FA000606800F0C040A84204D1A06800F0C040C2
:101FB000A8420DD0606800F44030B0F5403F07D132
:101FC00050482438006800F4003008B10120DAE7F6
:101FD0004C481030006800F44035B5B3606800F438
:101FE0004030A84203D0207800F0010048B9A06832
:101FF00000F44030A84252D0207800F002000228BD
:102000004DD140481030006820F440350121C8050A
:1020100090FAA0F0B0FA80F03C4A02EB8000C0F8E1
:1020200080160020C90591FAA1F1B1FA81F102EB05
:102030008101C1F8800633481030056005F48070D6
:1020400018B1FFF7F5FD064609E028E0FFF7F0FDBF
:10205000801B41F28831884201D9032093E7402058
:10206000C10091FAA1F1B1FA81F108430121B1EB6C
:10207000601F03D123482438006802E02148103053
:1020800000684021CA0092FAA2F2B2FA82F2114329
:1020900001F01F020121914008400028D6D000BF66
:1020A00000BF606800F44030B0F5403F0BD11548E8
:1020B0002438006820F0C040616801F0C041084346
:1020C00010492439086000BF0E481030006861686C
:1020D00001F4403108430B491031086000BF012F63
:1020E00005D10848006820F080500649086000BF0C
:1020F000002048E784E300080000032000000340BC
:102100000000036024380240007000400000474295
:1021100070B504460D46002604B104E040F2F221F9
:10212000F6480AF0E3FB207800F0010070B920784F
:1021300000F00200022809D0207800F004000428F2
:1021400004D0207800F00800082800D104E040F214
:10215000F321EA480AF0CAFB0DB1012D00D104E0D9
:102160004FF43D71E5480AF0C1FBE548006800F016
:102170000100A84218D200BF012D05D1E048006837
:1021800040F00400DE490860DD48006820F00100EE
:102190002843DB49086000BF0846006800F00100E2
:1021A000A84201D0012070BD207800F00200022872
:1021B00027D1A068B8B1A068802814D0A068902862
:1021C00011D0A068A0280ED0A068B0280BD0A068BD
:1021D000C02808D0A068D02805D0A068E02802D088
:1021E000A068F02800D104E040F20B31C3480AF0A7
:1021F0007DFBC448006820F0F000A1680843C14995
:102200000860207800F0010000286BD0606840B1C1
:102210006068012805D06068022802D06068032841
:1022200000D104E040F21231B4480AF05FFB60686C
:10223000022820D12020010391FAA1F1B1FA81F105
:1022400008430121B1EB601F03D1AE480838006894
:1022500002E0AC482C30006820210A0392FAA2F276
:10226000B2FA82F2114301F01F02012191400840AD
:10227000B8BB012097E76068032820D12020010522
:1022800091FAA1F1B1FA81F108430121B1EB601F8C
:1022900003D19C480838006802E09A482C30006856
:1022A00020210A0592FAA2F2B2FA82F2114301F059
:1022B0001F0201219140084098B9012073E760682E
:1022C000012822D12020022191FAA1F1B1FA81F155
:1022D00008430121B1EB601F05D18A480838006826
:1022E00004E033E089E087482C3000682021022296
:1022F00092FAA2F2B2FA82F2114301F01F02012116
:102300009140084010BB01204DE72020010191FAC7
:10231000A1F1B1FA81F108430121B1EB601F03D1B2
:1023200078480838006802E076482C3000682021A0
:102330000A0192FAA2F2B2FA82F2114301F01F02EC
:1023400001219140084008B901202CE76D48006840
:1023500020F00300616808436A490860FFF768FCE1
:1023600006466068022810D108E0FFF761FC801B78
:1023700041F28831884201D9032014E7614800689E
:1023800000F00C000828F0D137E06068032810D175
:1023900008E0FFF74DFC801B41F28831884201D9EB
:1023A000032000E75748006800F00C000C28F0D12B
:1023B00023E06068012810D108E0FFF739FC801B9A
:1023C00041F28831884201D90320ECE64D4800688B
:1023D00000F00C000428F0D10FE008E0FFF728FC23
:1023E000801B41F28831884201D90320DBE6454851
:1023F000006800F00C000028F0D14148006800F0AF
:102400000100A84218D900BF012D05D13C48006841
:1024100040F004003A4908603948006820F00100A3
:1024200028433749086000BF0846006800F00100F3
:10243000A84201D00120B6E6207800F0040004286C
:102440001FD1E06878B1E068B0F5806F0BD0E0682C
:10245000B0F5A06F07D0E068B0F5C06F03D0E068BA
:10246000B0F5E06F00D104E040F2773123480AF084
:102470003DFA2448006820F4E060E16808432149FF
:102480000860207800F00800082820D1206978B181
:102490002069B0F5806F0BD02069B0F5A06F07D030
:1024A0002069B0F5C06F03D02069B0F5E06F00D1AE
:1024B00004E040F27E3111480AF018FA1148006831
:1024C00020F46050216940EAC1000E49086000F024
:1024D00051F80C49096801F0F001F02292FAA2F2D9
:1024E000B2FA82F2D140084A515CC84007490860FC
:1024F0000020FFF7B7FB002055E6000034E300089A
:10250000003C024008380240EFDC00086400002074
:1025100001480068704700006400002000B5FFF724
:10252000F7FF0749096801F4E0614FF4E06292FAAD
:10253000A2F2B2FA82F2D140024A515CC84000BD18
:1025400008380240FFDC000800B5FFF7E1FF07494B
:10255000096801F460514FF4605292FAA2F2B2FAA3
:1025600082F2D140024A515CC84000BD08380240A6
:10257000FFDC0008F0B50021002300240022002524
:102580000020254E316801F00C067EB3042E04D0E5
:10259000082E04D00C2E2AD103E020483AE01F4830
:1025A00038E001F470164FF4701797FAA7F7B7FAEE
:1025B00087F7FE401A4FBB5D01F440064FF4400719
:1025C00097FAA7F7B7FA87F7FE40741C124E3668E1
:1025D00006F4803626B1114E5E43B6FBF4F203E0FA
:1025E0000E4E5E43B6FBF4F2104613E000E000BF6F
:1025F000094E361F366806F460464FF4604797FA76
:10260000A7F7B7FA87F726FA07F56E1C0127B74038
:10261000F80300BF00BFF0BD083802400024F400FA
:10262000E6DC0008F8B50446002504B104E04FF4E8
:102630009971FE480AF05AF92068B8B1207800F084
:10264000010098B9207800F0020002280ED020780E
:1026500000F00800082809D0207800F004000428C1
:1026600004D0207800F01000102800D104E040F2DF
:102670003311EE480AF03AF9207800F00100002802
:1026800073D0606828B16068012802D060680528AE
:1026900000D104E040F23911E4480AF027F9E44897
:1026A000006800F00C0008280CD0E148006800F039
:1026B0000C000C282BD1DE48006800F48030B0F507
:1026C000803F24D12020010391FAA1F1B1FA81F1D8
:1026D00008430121B1EB601F03D1D54808380068D9
:1026E00002E0D3482C30006820210A0392FAA2F2BB
:1026F000B2FA82F2114301F01F0201219140084019
:10270000002832D0606800282FD10120F8BD00BF1A
:102710006068012808D1C6480838006840F4803055
:10272000C349083908602EE0606868B9C0480838B5
:10273000006820F48030BE49083908600846006807
:1027400020F4802008601EE0606805280ED1B8489B
:102750000838006840F48020B54908390860084608
:10276000006840F4803008600DE066E0B04808384A
:10277000006820F48030AE490839086008460068D7
:1027800020F48020086000BF606858B3FFF750FA5B
:10279000054606E0FFF74CFA401B642801D90320E8
:1027A000B4E72020010391FAA1F1B1FA81F10843C5
:1027B0000121B1EB601F03D19D480838006802E099
:1027C0009B482C30006820210A0392FAA2F2B2FA48
:1027D00082F2114301F01F020121914008400028BC
:1027E000D8D02AE0FFF724FA054606E0FFF720FAE2
:1027F000401B642801D9032088E72020010391FAB7
:10280000A1F1B1FA81F108430121B1EB601F03D1BD
:1028100087480838006802E085482C30006820218D
:102820000A0392FAA2F2B2FA82F2114301F01F02F5
:102830000121914008400028D8D1207800F0020002
:10284000022859D1E06810B1E068012800D104E005
:1028500040F26D1175480AF049F820691F2800D828
:1028600004E04FF4B77171480AF040F8704800680E
:1028700000F00C0004280AD06D48006800F00C003D
:102880000C283BD16A48006800F48030A8BB2020A7
:10289000022191FAA1F1B1FA81F108430121B1EBD2
:1028A000601F03D162480838006802E060482C309D
:1028B00000682021022292FAA2F2B2FA82F21143B7
:1028C00001F01F0201219140084020B1E068012879
:1028D00001D001201AE75648001F006820F4F85084
:1028E0004FF4F85292FAA2F2B2FA82F221699140C0
:1028F00008434F49091F08607DE0FFE7E068E0B347
:10290000012090FAA0F1B1FA81F14A4A42F821007F
:10291000FFF78EF9054606E0FFF78AF9401B02280B
:1029200001D90320F2E62020022191FAA1F1B1FAA7
:1029300081F108430121B1EB601F03D13C48083805
:10294000006802E03A482C3000682021022292FA06
:10295000A2F2B2FA82F2114301F01F02012191406A
:1029600008400028D8D03248001F006820F4F850F2
:102970004FF4F85292FAA2F200E008E0B2FA82F2C2
:102980002169914008432A49091F086033E000206B
:10299000012191FAA1F1B1FA81F1264A42F8210010
:1029A000FFF746F9054606E0FFF742F9401B02280B
:1029B00001D90320AAE62020022191FAA1F1B1FA5F
:1029C00081F108430121B1EB601F03D11848083899
:1029D000006802E016482C3000682021022292FA9A
:1029E000A2F2B2FA82F2114301F01F0201219140DA
:1029F00008400028D8D1207800F0100010287DD1A0
:102A00000B48006800F00C00002878D1202001015C
:102A100091FAA1F1B1FA81F108430121B1EB601FF4
:102A20000AD103480838006808E0000034E30008D1
:102A30000838024000004742FE48006820210A0191
:102A400092FAA2F2B2FA82F2114301F01F020121BE
:102A50009140084018B1A06908B9012056E6E06924
:102A6000FF2800D804E04FF4DC71F34809F03EFF82
:102A7000206AB8B1206AB0F5005F13D0206AB0F5C3
:102A8000804F0FD0206AB0F5C04F0BD0206AB0F550
:102A9000004F07D0206AB0F5204F03D0206AB0F570
:102AA000404F00D104E040F2B911E34809F01EFFA5
:102AB000E0493039206A096801F46041884223D92D
:102AC000206A04F04DFC08B101201FE6D9483038D7
:102AD000006820F46040216A0843D6493039086014
:102AE0000846006820F07F404FF07F4292FAA2F241
:102AF000B2FA82F2E1699140084301E0FDE043E06F
:102B0000CC49303908601FE0CA483038006820F4EA
:102B10006040216A0843C7493039086008460068A8
:102B200020F07F404FF07F4292FAA2F2B2FA82F296
:102B3000E16991400843BF4930390860206A04F0D8
:102B40000FFC08B10120E1E54FF4604191FAA1F1D9
:102B5000B1FA81F1206AC840401C01218140C803BC
:102B6000B4492C39096801F0F001F02292FAA2F27E
:102B7000B2FA82F2D140B14A515CC840B049086013
:102B80000020FFF76FF8B8E0A06910B1A069012834
:102B900000D104E040F2E511A74809F0A7FEA069C2
:102BA000B0B30120010291FAA1F1B1FA81F1A54A75
:102BB00042F82100FFF73CF8054606E0FFF738F839
:102BC000401B022801D90320A0E52020010191FA31
:102BD000A1F1B1FA81F108430121B1EB601F03D1EA
:102BE00094483438006801E09248006820210A01C6
:102BF00092FAA2F2B2FA82F2114301F01F0201210D
:102C0000914008400028D9D0E069FF2801D805E0AC
:102C10003FE040F2F911884809F068FE206AB8B137
:102C2000206AB0F5005F13D0206AB0F5804F0FD056
:102C3000206AB0F5C04F0BD0206AB0F5004F07D026
:102C4000206AB0F5204F03D0206AB0F5404F00D184
:102C500004E04FF4FD71784809F048FE75483038BB
:102C6000006820F46040216A0843724930390860E6
:102C70000846006820F07F404FF07F4292FAA2F2AF
:102C8000B2FA82F2E169914008436A49303908603A
:102C900033E000204FF4807191FAA1F1B1FA81F193
:102CA000684A42F82100FEF7C3FF054606E0FEF73A
:102CB000BFFF401B022801D9032027E52020010186
:102CC00091FAA1F1B1FA81F108430121B1EB601F42
:102CD00003D158483438006801E056480068202184
:102CE0000A0192FAA2F2B2FA82F2114301F01F0233
:102CF0000121914008400028D9D1207800F0080037
:102D0000082877D1606910B16069012800D104E01A
:102D100040F21921484809F0E9FD6069A0B301209B
:102D200090FAA0F1B1FA81F1464A02EB8101C1F8B3
:102D30008006FEF77DFF054606E0FEF779FF401BA3
:102D4000022801D90320E1E44020022191FAA1F1F7
:102D5000B1FA81F108430121B1EB601F03D135487D
:102D60003438006801E0334800684021022292FABA
:102D7000A2F2B2FA82F2114301F01F020121914046
:102D800008400028D9D035E0FFE70020012191FA62
:102D9000A1F1B1FA81F12B4A02EB8101C1F8800661
:102DA000FEF746FF054606E0FEF742FF401B0228FD
:102DB00001D90320AAE44020022191FAA1F1B1FA3D
:102DC00081F108430121B1EB601F03D11948343868
:102DD000006801E0174800684021022292FAA2F23E
:102DE000B2FA82F2114301F01F0201219140084022
:102DF0000028D9D1207800F0040004287AD10026D8
:102E0000A06828B1A068012802D0A068052800D1D8
:102E100004E040F24521084809F068FD05481038F3
:102E2000006800F08050D8B900BF02481038006830
:102E30000AE000003438024034E30008EFDC000808
:102E4000640000200000474240F08050EF490860D5
:102E50000846006800F08050009000BF00BF0126C7
:102E6000EB48006800F48070B0B9E948006840F4AD
:102E70008070E7490860FEF7DBFE054606E0FEF7D6
:102E8000D7FE401B642801D903203FE4E0480068D6
:102E900000F480700028F2D000BFA068012808D19B
:102EA000DA481030006840F48070D849103108606A
:102EB0002EE0A06868B9D5481030006820F4807012
:102EC000D249103108600846006820F4806008602C
:102ED0001EE0A06805280ED1CC481030006840F4F0
:102EE0008060CA49103108600846006840F480706C
:102EF00008600DE073E0C5481030006820F4807071
:102F0000C249103108600846006820F480600860FB
:102F100000BFA06868B3FEF78BFE054608E0FEF729
:102F200087FE401B41F28831884201D9032037E4F3
:102F30004020C10091FAA1F1B1FA81F108430121C9
:102F4000B1EB601F03D1B1482438006802E0AF48FC
:102F5000103000684021CA0092FAA2F2B2FA82F25E
:102F6000114301F01F020121914008400028D6D0F2
:102F70002CE0FEF75DFE054608E0FEF759FE401B1B
:102F800041F28831884201D9032009E44020C10080
:102F900091FAA1F1B1FA81F108430121B1EB601F6F
:102FA00003D19A482438006802E09848103000683D
:102FB0004021CA0092FAA2F2B2FA82F2114301F061
:102FC0001F020121914008400028D6D1012E05D1D1
:102FD0008E48006820F080508C49086000BF606A0D
:102FE00028B1606A012802D0606A022800D104E09A
:102FF00040F28921874809F079FC606A002873D083
:1030000082481C38006800F00C000C286DD0606A03
:1030100002286BD1A06A18B1A06AB0F5803F00D138
:1030200004E040F292217B4809F060FCE06AF8B1CC
:10303000E06AB0F5802F1BD0E06AB0F5002F17D002
:10304000E06AB0F5402F13D0E06AB0F5801F0FD0D2
:10305000E06AB0F5A01F0BD0E06AB0F5C01F07D042
:10306000E06AB0F5E01F03D0E06AB0F5001F00D1C0
:1030700004E040F29321674809F038FC206BB0F57A
:10308000800F07D0206BB0F5000F03D0206BB0F598
:10309000400F00D104E04FF425715E4809F026FC92
:1030A00000204FF0807191FAA1F1B1FA81F15A4AF2
:1030B00042F82100FEF7BCFD054606E0FEF7B8FD2C
:1030C000401B022801D9032004E42020010591FAC5
:1030D000A1F1B1FA81F108430121B1EB601F06D1E2
:1030E0004A482438006805E08DE08AE053E047480C
:1030F0001030006820210A0592FAA2F2B2FA82F298
:10310000114301F01F020121914008400028D5D150
:10311000D4E90A010843216B08433C491C3909687A
:1031200021F47D01084339491C390860012001065A
:1031300091FAA1F1B1FA81F1374A42F82100FEF784
:1031400077FD054606E0FEF773FD401B022801D916
:1031500003202FE42020010591FAA1F1B1FA81F1B9
:1031600008430121B1EB601F03D1284824380068CF
:1031700002E026481030006820210A0592FAA2F2E7
:10318000B2FA82F2114301F01F020121914008407E
:103190000028D8D037E000204FF0807191FAA1F1DB
:1031A000B1FA81F11C4A42F82100FEF741FD0546C3
:1031B00006E0FEF73DFD401B022801D903204DE447
:1031C0002020010591FAA1F1B1FA81F10843012112
:1031D000B1EB601F03D10D482438006802E00B48B2
:1031E0001030006820210A0592FAA2F2B2FA82F2A7
:1031F000114301F01F020121914008400028D8D15D
:1032000001E001202AE4002028E4000024380240E4
:103210000070004034E30008000047427047014658
:1032200000BF087F012801D10220704701200877E4
:1032300000BF0220487700BFCA200A6850625320AE
:103240000A68506200BF0868806840F020000A6881
:10325000906000BFFF200A68506200BF01204877DD
:1032600000BF0020087700BF00BFDEE77047000006
:1032700010B5044620688068C0F3003078B120683B
:10328000C068C0F3002050B12046FFF7EFFF206870
:10329000C06800F0800060F4C0702168C8602068D9
:1032A0008068C0F3403078B12068C068C0F3402027
:1032B00050B12046FFF7B2FF2068C06800F08000E0
:1032C00060F420702168C8604FF400300249086043
:1032D0000120607710BD00001404014070B5044661
:1032E0000D460026B5F5807F02D0B5F5007F00D1F0
:1032F00004E040F27E213C4809F0F8FA00BF207F4C
:10330000012801D1022070BD0120207700BF0220DA
:10331000607700BFCA202168486253202168486254
:1033200000BFB5F5807F29D12068806820F48070C7
:10333000216888602068806820F480502168886057
:10334000FEF776FC064612E0FEF772FC801BB0F535
:103350007A7F0CD900BFFF202168486200BF03209C
:10336000607700BF0020207700BF0320CBE72068F4
:10337000C06800F001000028E6D028E020688068DE
:1033800020F40070216888602068806820F4005074
:1033900021688860FEF74CFC064612E0FEF748FC08
:1033A000801BB0F57A7F0CD900BFFF2021684862EE
:1033B00000BF0320607700BF0020207700BF0320FC
:1033C000A1E72068C068C0F340000028E6D000BF35
:1033D000FF202168486200BF0120607700BF002005
:1033E000207700BF00BF8EE7D8E300082DE9F04743
:1033F00006460C46174698460025A946B8F1000F28
:1034000002D0B8F1010F00D104E040F2CB212B48EB
:1034100009F06CFAB7F5807F02D0B7F5007F00D1D4
:1034200004E04FF43371254809F060FAB7F5807F66
:1034300009D14FF4807060623068C5693068406CB3
:10344000C0F30E0908E04FF4007060623068056A4E
:103450003068806CC0F30E09C5F305402070C5F3D9
:103460000620607005F07F00A07005F48000000C5D
:10347000E070C4F80490C5F3056084F8200005F0FE
:103480008040E06105F080306061B8F1000F11D13B
:10349000207803F0CFFF2070607803F0CBFF6070DE
:1034A000A07803F0C7FFA07094F8200003F0C2FFDB
:1034B00084F820000020BDE8F087000028E4000820
:1034C0002DE9F04107460C46154600260DB1012DA9
:1034D00000D104E040F24721114809F007FA3868AA
:1034E0004068104900EA0106300CE070C6F3042081
:1034F000607006F03F00A070C6F3423020705DB9E6
:10350000E07803F097FFE070607803F093FF60705D
:10351000A07803F08FFFA0700020BDE8F0810000CC
:10352000D8E300083FFFFF002DE9F04105460C46B7
:10353000164600270EB1012E00D104E04FF4817130
:10354000164809F0D3F92868806A80B2606028685C
:103550000069C0F30E00A06028680068104900EA06
:103560000107C7F305402070C7F30620607007F01D
:103570007F00A07007F48000000CE0705EB9207836
:1035800003F058FF2070607803F054FF6070A0785B
:1035900003F050FFA0700020BDE8F08128E400088F
:1035A0007F7F7F0010B504460CB9012010BD504943
:1035B0002068884200D103E0CD214E4809F096F9F9
:1035C0006068402801D0606800B903E0CE21494816
:1035D00009F08CF9A0687F2800D803E0CF21454886
:1035E00009F084F9E068B0F5004F00D203E0D02183
:1035F000404809F07BF9206958B12069B0F5001FF7
:1036000007D02069B0F5800F03D02069B0F5C00F56
:1036100000D103E0D121374809F068F9606918B199
:103620006069B0F5801F00D103E0D221314809F074
:103630005DF9A06918B1A069B0F5802F00D103E051
:10364000D3212C4809F052F9607F20B9002020775F
:10365000204600F053F80220607700BFCA2021689E
:10366000486253202168486200BF204603F0FAFEFA
:1036700040B100BFFF202168486200BF042060778E
:10368000012093E7206880681B4908402168886012
:1036900021696068084361690843216889680843B3
:1036A000216888602168E0680861206801692089D4
:1036B00041EA0040216808612068C06820F080006D
:1036C0002168C8602068006C20F4802021680864AC
:1036D0002068006CA16908432168086400BFFF20CE
:1036E0002168486200BF0120607700205EE700008B
:1036F00000280040D8E30008BFFF8FFF704700009C
:103700002DE9F04705460C4617464FF00008002605
:10371000B1460FB1012F00D104E040F20221FE4872
:1037200009F0E4F8606AB0F5807F03D0606AB0F514
:10373000007F00D104E040F20321F74809F0D6F8F9
:10374000606900F07F3000B904E04FF40171F24885
:1037500009F0CCF8E06918B1E069B0F1804F00D110
:1037600004E040F20521EC4809F0C0F86068B0F5CB
:10377000004F00D204E040F20721E74809F0B6F814
:10378000A069D8B3A069B0F1807F37D0A069B0F14B
:10379000007F33D0A069B0F1407F2FD0A069B0F195
:1037A000806F2BD0A069B0F1A06F27D0A069B0F1D5
:1037B000C06F23D0A069B0F1E06F1FD0A069B0F155
:1037C000006F1BD0A069B0F1106F17D0A069B0F1E5
:1037D000206F13D0A069B0F1306F0FD0A069B0F1A5
:1037E000406F0BD0A069B0F1506F07D0A069B0F165
:1037F000606F03D0A069B0F1706F00D104E04FF4A6
:103800000271C54809F072F800BF287F012802D173
:103810000220BDE8F0870120287700BF02206877EA
:10382000002F7DD12868806800F04000B0B120787A
:1038300018B120780C2800D804E04FF40571B64880
:1038400009F054F8E07810B1E078402800D110E099
:1038500040F21521B04809F049F80AE00020E07074
:103860002078172800D804E040F21A21AA4809F06D
:103870003DF860783B2800D804E04FF40771A64873
:1038800009F034F8A0783B2800D804E040F21D216C
:10389000A14809F02BF8E06968B994F8200020B13C
:1038A00094F820001F2800D827E040F221219A48F0
:1038B00009F01CF821E094F82000012817D094F8B2
:1038C0002000022813D094F8200003280FD094F889
:1038D000200004280BD094F82000052807D094F885
:1038E0002000062803D094F82000072800D104E027
:1038F00040F22521884808F0F9FF207803F0A5FD63
:103900004FEA004A607803F0A0FD4AEA002AA07856
:1039100003F09BFD4AEA000AE0784AEA004A00E028
:103920000BE094F8200003F090FD4AEA0060E169A2
:103930000843616940EA01067DE02868806800F07C
:103940004000C0B1207803F075FD064616B10C2E7C
:1039500000D804E04FF40D716F4808F0C7FFE0781D
:1039600010B1E078402800D112E040F235216A48D9
:1039700008F0BCFF0CE00020E070207803F05AFD56
:10398000172800D804E040F23A21634808F0AEFF5F
:10399000607803F04FFD3B2800D804E040F23D2161
:1039A0005D4808F0A3FFA07803F044FD3B2800D851
:1039B00004E040F23E21584808F098FFE06970B9F1
:1039C00094F8200003F036FD064616B11F2E00D8ED
:1039D0001EE040F24321504808F088FF18E094F8B8
:1039E000200003F027FD0646012E0BD0022E09D041
:1039F000032E07D0042E05D0052E03D0062E01D0AD
:103A0000072E00D104E04FF41271434808F06EFF16
:103A100020780004617840EA0120A1780843E17829
:103A200040EA014094F8201040EA0160E16908434F
:103A3000616940EA0106A169606840EA010900BFC6
:103A4000CA202968486253202968486200BF606A1A
:103A5000B0F5807F3DD12868806820F480702968A7
:103A600088602868C06800F0800060F4C070296831
:103A7000C860FEF7DDF8804613E0FEF7D9F8A0EB4A
:103A80000800B0F57A7F0CD900BFFF202968486292
:103A900000BF0320687700BF0020287700BF032005
:103AA000B7E62868C06800F001000028E5D0286863
:103AB000C6612868C0F844902868806840F4807027
:103AC000296888602868806840F480502968886088
:103AD0003FE02868806820F40070296888602868C2
:103AE000C06800F0800060F420702968C860FEF7AC
:103AF0009FF8804616E0FEF79BF8A0EB0800B0F5B3
:103B00007A7F0FD900BFFF202968486200BF0320D9
:103B1000687700BF002001E028E40008287700BF94
:103B2000032076E62868C068C0F340000028E2D091
:103B3000286806622868C0F848902868806840F4C1
:103B40000070296888602868806840F400502968FF
:103B500088600D48006840F400300B4908600A484E
:103B60000830006840F4003007490831086000BFA1
:103B7000FF202968486200BF0120687700BF00204D
:103B8000287700BF00BF44E6000401402DE9F04162
:103B900005460C46164600270EB1012E00D104E062
:103BA0004FF4ED716B4808F0A1FE00BF287F01289B
:103BB00002D10220BDE8F0810120287700BF022059
:103BC00068774EB9607800F01000102804D1607852
:103BD00000F0EF000A3060702078012811D02078C2
:103BE00002280ED0207803280BD02078042808D093
:103BF0002078052805D02078062802D020780728CC
:103C000000D104E04FF4F371524808F06FFE7EBB20
:103C1000E078632800D804E04FF4F5714D4808F0CF
:103C200065FE607818B160780C2800D804E040F296
:103C3000EB11484808F05AFEA07818B1A0781F2868
:103C400000D804E04FF4F671424808F04FFEE078E7
:103C500003F0FBFB0304607803F0F7FB43EA002367
:103C6000A07803F0F2FB0343207843EA40372FE0CB
:103C7000FFE7E07803F0DEFB632800D804E040F2C1
:103C8000F511344808F032FE607803F0D3FB0746A4
:103C900017B10C2F00D804E040F2F7112D4808F0BE
:103CA00025FEA07803F0C6FB074617B11F2F00D8EA
:103CB00004E040F2F911274808F018FEE07800040B
:103CC000617840EA0120A1780843217840EA413731
:103CD00000BFCA202968486253202968486200BF93
:103CE000284603F0BFFB60B100BFFF20296848628F
:103CF00000BF0420687700BF0020287700BF0120A4
:103D000058E715483840296848602868C06820F09E
:103D100080002968C860284600F042F960B100BF01
:103D2000FF202968486200BF0420687700BF002098
:103D3000287700BF01203DE700BFFF2029684862C7
:103D400000BF0120687700BF0020287700BF00BFB8
:103D500030E70000D8E300083FFFFF002DE9F04105
:103D600005460C46164600270EB1012E00D104E090
:103D700040F25F11884808F0B9FDE068B0F5003FF7
:103D800005D0E068B0F5803F01D0E06800B904E0FC
:103D90004FF4B071804808F0A9FD206918B120697E
:103DA000B0F5802F00D104E040F261117A4808F0AC
:103DB0009DFD00BF287F012802D10220BDE8F081CF
:103DC0000120287700BF02206877002E49D128689B
:103DD000806800F04000B0B1207818B120780C283D
:103DE00000D804E04FF4B6716B4808F07FFDE0782E
:103DF00010B1E078402800D110E040F26D11664823
:103E000008F074FD0AE00020E0702078172800D840
:103E100004E04FF4B971604808F068FD60783B2811
:103E200000D804E04FF4BA715B4808F05FFDA07859
:103E30003B2800D804E040F27511574808F056FDC1
:103E4000207803F002FB0304607803F0FEFA43EAF3
:103E50000023A07803F0F9FA0343E07843EA00472F
:103E60004AE02868806800F04000C0B1207803F084
:103E7000E1FA074617B10C2F00D804E040F2811197
:103E8000454808F033FDE07810B1E078402800D1D3
:103E900012E04FF4C171404808F028FD0CE000200A
:103EA000E070207803F0C6FA172800D804E040F24A
:103EB0008711394808F01AFD607803F0BBFA3B28F7
:103EC00000D804E040F28911334808F00FFDA078D3
:103ED00003F0B0FA3B2800D804E04FF4C5712E4837
:103EE00008F004FD20780004617840EA0120A17800
:103EF0000843E17840EA014700BFCA2029684862C8
:103F000053202968486200BF284603F0ABFA60B12D
:103F100000BFFF202968486200BF0420687700BF07
:103F20000020287700BF012048E71C483840296856
:103F300008602868806820F4802029688860D4E9B7
:103F4000030108432968896808432968886028684C
:103F5000C06820F080002968C860284600F020F87A
:103F600060B100BFFF202968486200BF0420687765
:103F700000BF0020287700BF01201FE700BFFF20FF
:103F80002968486200BF0120687700BF00202877B9
:103F900000BF00BF12E70000D8E300087F7F7F006A
:103FA00070B5044600252068806800F02000B8B98C
:103FB0002068C06820F0A0002168C860FDF738FEC6
:103FC000054607E0FDF734FE401BB0F57A7F01D9C6
:103FD000032070BD2068C06800F020000028F1D0E8
:103FE0000020F6E710B504460CB9012010BD20688A
:103FF000006820F0400021680860204600F0F6F8D4
:104000000020606584F8510000BF84F8500000BFB4
:1040100000BFEBE710B504460CB9012010BD6F4995
:104020002068884207D06E492068884203D06D49D5
:104030002068884200D103E057216B4808F056FC05
:10404000606818B16068B0F5827F00D103E0582144
:10405000654808F04BFCA06838B1A068B0F5806FE7
:1040600003D0A068B0F5004F00D103E059215E48AD
:1040700008F03CFCE068B0F5006F01D0E06800B9E2
:1040800003E05A21584808F031FC206910B120693A
:10409000022800D103E05B21534808F027FC606947
:1040A00010B16069012800D103E05C214E4808F09E
:1040B0001DFCA069B0F5007F05D0A06918B1A0690A
:1040C000B0F5802F00D103E05D21474808F00EFCD9
:1040D000E069A0B1E069082811D0E06910280ED08D
:1040E000E06918280BD0E069202808D0E06928286A
:1040F00005D0E069302802D0E069382800D103E01B
:104100005E21394808F0F2FB206A10B1206A80284D
:1041100000D103E05F21344808F0E8FB606A10B189
:10412000606A102800D103E060212F4808F0DEFB10
:10413000A06A18B1A06AB0F5005F00D103E0612168
:10414000294808F0D3FBE06A20B1E06AB0F5803F6F
:1041500000D203E06221244808F0C8FB94F8510023
:1041600028B9002084F85000204600F040F80220D2
:1041700084F851002068006820F040002168086041
:10418000D4E901010843E1680843216908436169F2
:104190000843218B01F400710843E1690843216A57
:1041A0000843A16A0843216808600421A06901EA64
:1041B0001040616A0843216848602168E06A08612C
:1041C0002068C06920F400602168C8610020606533
:1041D000012084F85100002020E700000030014059
:1041E00000380040003C00407CE400087047704705
:1041F00010B50446042C00D004B904E04FF4DF717C
:104200000B4808F073FB042C08D14FF0E020006944
:1042100040F004004FF0E021086107E04FF0E0209B
:10422000006920F004004FF0E021086110BD00009B
:1042300040E20008704770B504462546681EB0F19C
:10424000807F01D301200FE0681E4FF0E02148611C
:104250000F214FF0FF3001F037FB00204FF0E0213D
:10426000886107200861002070BD10B5FFF7E2FFEC
:1042700010BD000010B5044601220249024800F0BA
:104280000EF910BD60000020B40C0020F8B5044603
:10429000002500262068006800F001052068C0683D
:1042A00000F4807625B11EB1E06B40F00100E063C0
:1042B00020680068C0F340052068406900F00106EE
:1042C00025B11EB1E06B40F00400E0632068006897
:1042D000C0F3800525B11EB1E06B40F00200E06341
:1042E00020680068C0F3C00525B11EB1E06B40F046
:1042F0000800E06320680068C0F340152068C068CB
:1043000000F020061DB116B1204607F003FB20681F
:104310000068C0F3C0152068C06800F080061DB1B9
:1043200016B1204607F036FD20680068C0F38015FE
:104330002068C06800F040061DB116B1204607F0A5
:10434000D1FAE06B70B100BF20680068009020686F
:104350004068009000BF00BF012084F8390020466B
:10436000FFF788FFF8BD000010B504460CB9012026
:1043700010BDA06930B343492068884207D0424944
:104380002068884203D041492068884200D104E077
:104390004FF483713E4808F0A9FAA06958B1A069AA
:1043A000B0F5807F07D0A069B0F5007F03D0A06989
:1043B000B0F5407F00D11FE040F20711344808F00B
:1043C00095FA19E02F49206888420FD02E492068BD
:1043D00088420BD02D492068884207D02D4920689B
:1043E000884203D02C492068884200D104E040F282
:1043F0000B11274808F07AFAA06818B1A068B0F548
:10440000805F00D104E040F20D11214808F06EFAFF
:10441000E06918B1E069B0F5004F00D104E04FF455
:1044200087711B4808F062FA94F8390028B9002017
:1044300084F83800204600F031F8022084F8390072
:104440002068C06820F400502168C860204607F04A
:10445000BFFA2068006920F4904021680861206854
:10446000406920F02A00216848612068C06840F453
:1044700000502168C8600020E063012084F8390002
:10448000002075E70038014000440040004800402B
:10449000D0E40008004C004000500040704730B5A8
:1044A0000346002493F83940012C01D0122C37D157
:1044B00001B10AB9012030BD00BF93F838000128CE
:1044C00001D10220F7E7012083F8380000BF99628C
:1044D0009A85DA850020D86393F83900122803D131
:1044E000322083F8390002E0222083F8390000BF2F
:1044F000002083F8380000BF1868C06840F480705E
:104500001D68E8601868406940F001001D68686136
:104510001868C06840F020001D68E8600020CAE705
:104520000220C8E710B504460B4800F083F820B914
:104530000A4801780848FCF716FF07482838406BFE
:1045400020B105482838416B0120884701220349E2
:104550000348FFF7A4FF10BD68030020600000209F
:10456000B40C002030B50346002493F83940012CE8
:1045700001D0222C2BD101B10AB9012030BD00BFDE
:1045800093F83800012801D10220F7E7012083F8D1
:10459000380000BF19629A84DA840020D86393F847
:1045A0003900222803D1322083F8390002E012209A
:1045B00083F8390000BF002083F8380000BF186876
:1045C000C06840F080001D68E8600020D6E7022047
:1045D000D4E7000010B504460B4800F022F840B9BB
:1045E0000948FCF7B1FE0949087001220848FFF7A5
:1045F000B9FF05481C38406B20B103481C38416B9B
:104600000020884710BD00005C03002061000020EE
:10461000B40C00200146E02901DD00207047012094
:10462000FCE7014608884A88904201D10120704782
:104630000020FCE710B5044661882046FCF77AFEAE
:104640002188884201D1012010BD0020FCE7000034
:1046500003480078002801DD012070470020FCE7B6
:10466000AC00002030B5044620468C4201DD2546D2
:1046700000E00D46284630BD2DE9F04707460E46BE
:1046800090461C46DDE9095ADDF820901C4880F868
:10469000059001468C71200AC871200C0872200E0A
:1046A00048728D72280AC872280C0873280E487345
:1046B000CE731448FCF7B1FA41461248FCF7BEFA33
:1046C00010220F490F48FCF7C2FAF2B239460D48E2
:1046D000FCF7BDFA0B490C48FCF7C2F90A48C07850
:1046E00000060949897840EA01400749497840EACB
:1046F0000120054909780843CAF80000BDE8F087A1
:10470000E3000020901200207C1100202DE9FC41E4
:1047100004460E46154614B90320BDE8FC81206806
:1047200028B1606818B1A06808B1E06808B9032032
:10473000F3E7284604F0F7FE08B90A20EDE79D48A4
:1047400004609D4806609D48057000209C490870E3
:104750009C4908709C4908609C4908709C49086005
:104760009C4908600B208DF8040001A9934800784B
:1047700004F0C1FE0090009808B1012000E0002084
:104780009549087008208DF8040001A98B4800782D
:1047900004F0B1FE0090009840B2904908700520E6
:1047A0008DF8040001A98548007804F0A4FE00906B
:1047B000009840B2894948700C208DF8040001A986
:1047C0007E48007804F097FE009084490098C86005
:1047D0000D208DF8040001A97848007804F08BFEC4
:1047E00000907E49009808610E208DF8040001A910
:1047F0007248007804F07FFE009078490098486184
:104800000F208DF8040001A96C48007804F073FEB5
:10481000009072490098886110208DF8040001A969
:104820006648007804F067FE00906C490098C86103
:1048300013208DF8040001A96048007804F05BFEA5
:1048400000906649009881F8210014208DF804003A
:1048500001A95A48007804F04EFE00905F49009884
:10486000486215208DF8040001A95448007804F02E
:1048700042FE00900098C1B2584880F828101A20D3
:104880008DF8040001A94D48007804F034FE009032
:104890005249009881F82C001B208DF8040001A9D2
:1048A0004648007804F027FE00904C49009881F8B3
:1048B0002D001C208DF8040001A94048007804F068
:1048C0001AFE00904549009808631D208DF80400E9
:1048D00001A93A48007804F00EFE00903F49009884
:1048E000486300213548007804F012FE01203B495E
:1048F00081F820000A2048600620087208464068B7
:10490000374948603548007A08723448C068C86042
:104910003248006908613148406948612F48806920
:1049200088612E48C069C8612C4890F8200081F841
:10493000200004F083FE2B492B4806F043FE4FF481
:104940007A71294806F00AFF2849294806F03AFEFC
:104950002849294806F036FE2849294806F032FE43
:104960002849294806F02EFE06F01EFE2749086059
:10497000274828490860284888602848086128484E
:1049800048602848C8602848016822488847264966
:1049900048698047074609F053F901202349087008
:1049A0002148816D2148007888471F49C86A80479F
:1049B0000020B2E6C8000020CC00002070000020DB
:1049C000E200002090000020C4000020920000209F
:1049D000B4000020B8000020BC00002064100020BB
:1049E0002C100020A95900089C100020F96800082C
:1049F000CC100020AD670008E010002051680008CE
:104A0000F4100020F158000830110020C0000020F0
:104A10000D660008B0100020695D00087D64000884
:104A2000696700083565000890DD000891000020E6
:104A30002DE9F04104460D4616461F461048FCF786
:104A4000ECF831460E48FCF7F9F8EAB221460C487A
:104A5000FCF7FDF80A490B48FCF702F80948C07852
:104A600000060849897840EA01400649497840EA49
:104A700001200449097808433860BDE8F08100004E
:104A8000901200207C1100202DE9FF4184B00546E2
:104A90000E461C460E9F0DF11808F02200211E48FC
:104AA00008F0CAF91C4A1021284607F081FE10229E
:104AB0000021684608F0C0F901208DF800000622A8
:104AC00031460DF1010008F09DF9022241460DF139
:104AD000070008F097F9104A2146684607F03BFEA8
:104AE00010220021684608F0A7F902208DF8000086
:104AF000062231460DF1010008F084F902224146F8
:104B00000DF1070008F07EF9034A3946684607F0C0
:104B100022FE08B0BDE8F0819C1100202DE9F04193
:104B200007460D4616461C46F02200210B4808F0A9
:104B300083F90A4A1021304607F03AFE074A214617
:104B4000384607F008FE102D06DB044A04F1100178
:104B500007F1100007F0FFFDBDE8F0819C11002077
:104B60002DE9FF47044602274FF000084FF00009E7
:104B70004FF0000A1CB9032004B0BDE8F0874E488E
:104B8000006808B10120F7E70020019014220021FD
:104B90004A4808F051F901204849487048490870CE
:104BA000207820B1012814D0032834D123E04FF01D
:104BB000010A0120434908709DF8040020F0E0003C
:104BC0004030019094F80480A568A68994F90E906D
:104BD00022E04FF0010AE07B3A4908709DF804009A
:104BE00020F0E0008030019094F80480A568A68948
:104BF00094F90E9010E04FF0010A0120314908703D
:104C00009DF8040020F0E000E030019065682689FE
:104C100094F90A9000E000BF00BF4046FFF7FAFC9D
:104C200008B90320A8E701208DF80C00264890F869
:104C30002C008DF80E0003A92448007804F05BFCDA
:104C400002900298484501D2484600E002984FFA87
:104C500080F9BAF1010F2DD11D480078A0B98DF867
:104C60000090194890F82C008DF802000422694643
:104C70001648007804F0D6FC20B19DF800001249D7
:104C8000487001E0032077E733462A46414601A8F1
:104C900005F0A2FF074657B92078084908700D486B
:104CA000007820F00100401C0A49087002E0002052
:104CB0000949087038465FE7C40000205C110020F5
:104CC000D9000020D80000202C1000207000002007
:104CD000A3000020E2000020A80000207CB50446CC
:104CE00000250CB903207CBD20781F2870D2DFE896
:104CF00000F01014181C2024272A2E323E44564A55
:104D000062676B7074787C8088848C9094989CA087
:104D1000A4004E480078207195E04D48007820713D
:104D200091E04C48007820718DE04B48006860604D
:104D300089E04A480068606085E04948606082E038
:104D4000484860607FE04848007820717BE0474831
:104D50000078207177E019208DF8040001A94448FB
:104D6000007804F0C8FB0090009860606BE0414957
:104D7000D1E90901C4E9010165E03F49D1E909012F
:104D8000C4E901015FE017208DF8040001A938484B
:104D9000007804F0B0FB00900098606053E01620AB
:104DA0008DF8040001A93248007804F0A4FB0090BB
:104DB0000098606047E02F4890F82000207142E0A2
:104DC0002C48C06860603EE02A48006960603AE0B4
:104DD00037E028484069606035E0264880696060B7
:104DE00031E02448C06960602DE02348407820719C
:104DF00029E020484078207125E01F480078207184
:104E000021E01C48007820711DE01C4800686060AB
:104E100019E01B480068606015E01A48006860608F
:104E200011E01448406860600DE01248007A20717B
:104E300009E01048406B606005E00F48406B60601F
:104E400001E0022500BF00BF28464CE7900000208B
:104E5000A2000020A3000020840000208800002081
:104E60000C0D00201C0D002091000020920000205D
:104E7000700000202C1000206410002098000020FA
:104E80009C0000208C0000207FB50446002514B94A
:104E9000032004B070BDB848007800F0010008B1EC
:104EA0000120F6E720781F287DD2DFE800F01037D8
:104EB0003B3F4347515B647C689BC0B3CDDADEEF78
:104EC000F3F7FBEAE9E8E7E67CE5E4E3E2002079D2
:104ED000AA4908700846007820B1012806D00228A7
:104EE0001AD104E0A649C86A804715E014E0002002
:104EF000A4490870A249C86A8047A3480090A34803
:104F00004368027A90F8280041B2A148007804F082
:104F1000D4FA01F041FD00BF00BF2AE120799D498C
:104F2000087026E120799C49087022E19B4960685D
:104F300008601EE19A49606808601AE1606828B15B
:104F400010229848616807F05DFF00E0032510E13A
:104F5000606828B110229448616807F053FF00E0B0
:104F6000032506E12079914908708548816D8F48B5
:104F700000788847FDE020798D490870F9E0207AB3
:104F800040B28DF80400814890F82D008DF805009E
:104F9000062201A97E48007804F044FB00B37B4858
:104FA000D4E9011200E0E2E0C0E909127348007898
:104FB000022816D177480078012812D17049C86AB2
:104FC00080477148009071484368027A90F8280041
:104FD00041B26F48007804F070FA01F0DDFC00E0A7
:104FE0000325C6E0207A40B28DF80400674890F8A7
:104FF0002D008DF80500062201A96548007804F00F
:1050000011FB28B16B48D4E90112C0E9091200E094
:105010000325AEE06068029001208DF80C0002A923
:105020005B48007803F077FF00B90325A1E06068D2
:10503000029000208DF80C0002A95548007803F07A
:105040006AFF00B9032594E02079012807DB207965
:105050000F2804DC20794D4981F8200000E0032569
:1050600087E04A496068C86083E048496068086131
:105070007FE078E073E06CE065E060E05BE038E002
:1050800048E020E00EE009E004E0FFE73F49606807
:1050900048616EE03D49606888616AE03B4960684C
:1050A000C86166E020798DF80400052201A938481E
:1050B000007804F0B7FA20B19DF804003D4948702B
:1050C00000E0032555E020798DF804002F4890F882
:1050D0002C008DF80600042201A92D48007804F068
:1050E000A1FA20B19DF804002849487000E003258A
:1050F0003FE020798DF80400082201A924480078B7
:1051000004F090FA20B19DF804002A49087000E0EC
:1051100003252EE020798DF80400072201A91C4800
:10512000007804F07FFA20B19DF804001749087058
:1051300000E003251DE020496068086019E01F4970
:105140006068086015E01B49606848600F49486066
:105150000FE02079174908720C49087209E00B49E1
:105160006068486305E013496068486301E0022510
:1051700000BF00BF28468CE6C4000020900000203D
:1051800090DD0008A80000201C1100202C10002039
:1051900070000020A2000020A30000208400002056
:1051A000880000200C0D00201C0D00209100002024
:1051B0009200002064100020980000209C00002035
:1051C00038B5044602250CB9032038BD48480068AC
:1051D00008B10120F9E70C220021464807F02CFE17
:1051E000012044494870207830B1012840D002287D
:1051F0004FD003286DD15BE03D48007800F01000EF
:10520000102801D10120E0E7606818B1A06808B15A
:10521000E06808B90320D8E704F010FA36480078AF
:1052200020F00800083034490870207831490870AF
:105230003249606808603249A06808603149E06816
:105240000860207C41B23048007803F034FE2F49DA
:105250004870002000909DF8000020F0E0000090D1
:1052600000231A461946684605F0B6FC054631E0AB
:105270002148007820F0080008301F490870207885
:105280001C490870002211460220FBF755FD054617
:1052900020E02078174908701748007820F00800AF
:1052A000083015490870A08805F0A2FD054611E0F8
:1052B0002078104908701048007820F00800083065
:1052C0000D490870227BA088A16805F0C7FD05463E
:1052D00000E000BF00BF45B100200D49087006483E
:1052E000007820F008000449087028466DE70000A7
:1052F000C400002070110020E20000207400002093
:10530000780000207C000020700000202C1000207D
:10531000A80000202DE9FE4F04460D4616461F4604
:10532000DDE90D9ADDF830803B46324629462046BD
:105330008DE8000700F002F8BDE8FE8F2DE9F05F70
:1053400081460D4693461E46DDF82C8000274FF01F
:10535000010AF02200212E4807F06EFD2C4A102190
:10536000584607F025FA2B490A9848718E71300A81
:10537000C871300C0872300E487281F80A804FEA0A
:105380001820C8724FEA184008734FEA1860487333
:1053900020E0204981F80FA00AF101001FFA80FAED
:1053A0001B4A1D491B4807F0D6F900240AE03819AA
:1053B00019F800001849095D48403A190C998854B9
:1053C000601C84B2102CF2DBA5F1100085B207F14D
:1053D0001000C7B2102DDCDA002D16DD0D4981F862
:1053E0000FA00B4A0C490B4807F0B5F900240AE05E
:1053F000381919F800000849095D48403A190C9914
:105400008854601C84B2AC42F2DBBDE8F09F00001F
:105410009C110020F30000208C11002070B588B092
:1054200006460C4632484078029031480078019098
:1054300030480078304909780844C5B214B90320CF
:1054400008B070BD00208DF814002C4800788DF84D
:1054500015002B48006806902A4840788DF81C00FB
:10546000284800788DF81D00264890F82C008DF80B
:105470001E00234801AB02AA05A90090224800782B
:1054800003F006FD1F4890F82C008DF812009DF9DE
:1054900008008DF8110009208DF810001B480078D5
:1054A000012802D10A208DF8100004A916480078BE
:1054B00004F021F80390039860706078A84203DB41
:1054C0006078401B207007E0607820700025002085
:1054D00008490870084908702A469DF908103046A6
:1054E00006F004FE08B90820AAE70020A8E700009B
:1054F00064100020AB000020AC000020A3000020BE
:10550000A40000202C100020700000209200002039
:1055100010B50446607890B9207820B1012803D0F6
:10552000032803D101E002E001E000E000BF00BF7A
:1055300001210548FCF740F9044806F019F901205B
:105540000349087010BD00001C030020E002002089
:105550004C00002010B58CB00446607808B10CB047
:1055600010BD207830B1012805D002280FD00328C3
:105570000ED10BE00DE0984806F03EF90121964867
:1055800006F0ECF8944806F0F3F802E001E000E0E1
:1055900000BF00BF6079012801D101F0BFF98F4839
:1055A0000078012804D18D488089401C8B4988816E
:1055B000607B012870D1E078012804D0022803D054
:1055C000E0286AD101E000BFFCE08448007890BB8D
:1055D000207B04282ED1A06800780128FAD1A06889
:1055E00040780128F6D1A06880780128F2D1A0681F
:1055F000C0780128EED1002079490870E02079496F
:105600000870794800787949087002207649087056
:105610000020724988818873C8730874012008705B
:10562000487002208DF8240001208DF8280009A878
:10563000FFF72AFCC4E0FFE7A068007867494870DC
:105640000846407808287BD2DFE800F0041C2028B8
:105650002F49507F0120624908700220614908707B
:10566000624800786049087000205C4988810870B1
:1056700002208DF8240000208DF8280009A8FFF7EB
:1056800003FC9CE002205849087098E0012054492E
:1056900008705249487092E095E092E0002050492D
:1056A000087001204D49487089E0207B4E49087000
:1056B00004204F490870012006E0A168095C491CDC
:1056C0004B4A1154411CC8B247490978F22902DA01
:1056D0004549097800E0F2218142EEDC6FE00120CB
:1056E0008DF8100004A8FFF76BFD68E001203C492D
:1056F000087002203B4908703C4800783A4908701D
:10570000002036498881087002208DF804000020AE
:105710008DF8080001A8FFF7B7FB00208DF81000F6
:10572000344805903449069134490791002104A872
:105730000174FFF745FD20B904203149087003E0EA
:105740003CE003202E49087039E0207B03280ED16D
:1057500002208DF81000A0688078A168497840EA9E
:105760000120ADF8140004A8FFF72AFD22E0207BF9
:1057700007281FD103208DF81000A0688078A16849
:10578000497840EA0120ADF81400A068C078000410
:10579000A168097940EA0120A16849790843642198
:1057A00048430690A06881798DF81C1004A8FFF783
:1057B00007FD00BF01200949487000E000BF00BF9D
:1057C00000E000BF00BF01210E48FBF7F5FF0E48C7
:1057D00005F0CEFF00BFC2E6CC0200200803002087
:1057E0004700002044000020450000204600002023
:1057F000D801002000000020080000201000002038
:105800004D00002028030020F402002000BFFEE726
:1058100010B586B00446207810B101282CD11EE0C6
:10582000607818B902201849087017E000208DF838
:10583000040016480290164903911649049100216C
:105840008DF8141001A8FFF7BBFC18B904200E490D
:10585000087002E003200C49087000BF0DE060787A
:1058600048B90D480078012805D10B498873207A82
:10587000C873607A087400E000BF00BF01200749C8
:10588000087006B010BD00004D0000200000002090
:105890000800002010000020080300204C00002019
:1058A00010B504462078042802D101F037F800E052
:1058B00000BF00BF10BD704702480068C0F302205F
:1058C000704700000CED00E010B5002807DA0A0769
:1058D000140E054A00F00F031B1FD45403E00A07FF
:1058E000130E024A135410BD18ED00E000E400E06E
:1058F00010B50F4805F080FF0E480078012807D149
:105900000D4908700D48006820F004000B4908603C
:105910000B480078022806D10A48007820F02000C1
:1059200020300849087008A006F02CFC10BD0000CB
:1059300030110020A8000020DA000020C400002060
:1059400090000020E20000204F6E41636B54696DAF
:10595000656F757454696D65724576656E74282936
:105960000D0A000001200149087070475000002016
:1059700010B5044805F040FF00210348FBF71CFF69
:1059800010BD0000E00200201C03002010B50448F8
:1059900005F032FF00210348FBF70EFF10BD0000A9
:1059A000F4020020280300201CB50024DA4805F08A
:1059B00023FFDA480078C0F3401000287ED0D84892
:1059C000007800F0400040280AD1D548006820F057
:1059D0004000D34908600846006820F001000860D4
:1059E000CE480078C0F3C00020B9CC48007800F061
:1059F0000100C0B1CB484078022803D0CA484078A3
:105A0000022810D1C648006820F00100C44908608F
:105A10000020C6490870C6480078C2494871002075
:105A2000087188600124C3480078002858D1002CF0
:105A300056D1BA480078C0F3C00028B9B7480078FA
:105A400000F0010000284BD0B4480078C0F3C0003B
:105A500088B1B548007870B9B348407820B90020C3
:105A6000B5490860B5490870AD48006820F00100EC
:105A7000AB49086034E0B24890F82000AF4909789B
:105A8000884204DDA5480078C0F3400000B3A34875
:105A90000078C0F3400038B90020A4490870A94834
:105AA0000068401CA74908600020A4490870A64867
:105AB000007830B9A0480068401C00E079E09E49B9
:105AC00008609748006820F001009549086007E0E9
:105AD0009248007820F020009049087000F00CFFF8
